:1000000000800020BD010000F5160000C1160000B0
:10001000C1160000C1160000C1160000C116000084
:10002000C1160000C1160000C1160000F516000040
:10003000F5160000C1160000F5160000B11600000C
:10004000F5160000F5160000F5160000F516000084
:10005000F5160000F5160000F5160000F516000074
:10006000F5160000F5160000F5160000F516000064
:10007000F5160000F5160000F5160000F516000054
:10008000F5160000F5160000F5160000F516000044
:10009000F5160000F5160000F5160000F516000034
:1000A000F5160000F5160000F5160000F516000024
:1000B000F5160000F5160000F5160000F516000014
:1000C000F5160000F5160000F5160000F516000004
:1000D000F5160000F5160000F5160000F5160000F4
:1000E000F5160000F5160000F5160000F5160000E4
:1000F000F516000085080000F5160000250D00002B
:10010000F5160000F1100000F5160000F5160000CD
:10011000F5160000F5160000F5160000F5160000B3
:10012000F5160000F5160000F5160000F5160000A3
:10013000F5160000F5160000F5160000F516000093
:10014000F5160000F5160000F5160000F516000083
:10015000F5160000F5160000F5160000F516000073
:10016000F5160000C91A0000F5160000F51600008B
:10017000F5160000F5160000F5160000F516000053
:10018000F5160000F5160000F5160000F516000043
:10019000F5160000F5160000F5160000F516000033
:1001A000F5160000F5160000F5160000F516000023
:1001B000F5160000F5160000F5160000554B4CF240
:1001C000205210B51A804DF628121A8000BF00BFC9
:1001D00001F094FA504B4FF010621A604F4A9A6047
:1001E0004F4ADA60A3F53043203B1A6812F480725C
:1001F00004D14C490A604FF4A8521A604A4B1A784D
:10020000110703D51A7842F008021A70474B2A22C8
:100210001A700023464A47499818884204D2464932
:10022000595899500433F5E7444A454B9A424FF0E8
:10023000000302D242F8043BF7E74249424A5958C8
:1002400099500433B3F5DE7FF7D1404B802103F89A
:10025000011B3F498B42F9D13E4B1A603E4B0A22AB
:100260001A70A3F6FF7324221A70A02203F8012C3F
:100270003A4B1A789207FBD51A78D406FCD41A7830
:1002800002F00C02082AFAD1354B05221A704322DB
:100290005A70324B1A789006FBD51A785106FCD565
:1002A000304B4FF081721A6005225A602E4B20228B
:1002B0001A702A4B1B7803F00C030C2BF9D12B4B33
:1002C0002B4A1A602B4B2C4A1A60072243F8042C45
:1002D00062B601F0E1FA134B1B68DA0705D527482F
:1002E00001F05AFA264B274A1A60274B1B785B0607
:1002F00009D5234C234A2368934204D11F4801F0B7
:100300004BFA0023236001F0E9FF01F0FDF900F052
:10031000B5F8FEE70E20054030800440823F04001F
:100320000100002B14D0034002D0074000E007403A
:100330006087FF1F308CFF1FD4260000308CFF1F0A
:10034000208FFF1F000000000082FF1F00E400E07C
:100350005FE400E008ED00E0005006400640064083
:1003600004400640448004400040064004800440AD
:10037000C010050014E000E03F19010053098B553F
:100380001CE00340A5C3945A00F00740FFFFFFFFA5
:10039000FFFFFFFFFFFFFFFFFFFFFFFFFFFFFFFF6D
:1003A000FFFFFFFFFFFFFFFFFFFFFFFFFFFFFFFF5D
:1003B000FFFFFFFFFFFFFFFFFFFFFFFFFFFFFFFF4D
:1003C000FFFFFFFFFFFFFFFFFFFFFFFFFFFFFFFF3D
:1003D000FFFFFFFFFFFFFFFFFFFFFFFFFFFFFFFF2D
:1003E000FFFFFFFFFFFFFFFFFFFFFFFFFFFFFFFF1D
:1003F000FFFFFFFFFFFFFFFFFFFFFFFFFFFFFFFF0D
:10040000FFFFFFFFFFFFFFFFFFFFFFFFFEFFFFFFFD
:1004100010B5054C237833B9044B13B10448AFF33E
:1004200000800123237010BD308CFF1F00000000EE
:10043000D426000008B5064B1BB106480649AFF3A9
:1004400000800648036813B1054B03B1984708BD07
:1004500000000000D4260000348CFF1F308CFF1FEA
:100460000000000070477047034B4FF47A729A60A7
:1004700000221A745A7470474C8CFF1F08B5FFF79E
:10048000F1FFFFF7F0FF00F001F8FAE710B50E4CAE
:100490002378BBB90123237000F0C2FE08B101F03C
:1004A000F8F800F08FF908B100F0F1FF00F0DAFB86
:1004B00008B101F05EF800F0CFFD08B101F0CBF813
:1004C0000023237010BD00BF608CFF1F194B1A68FA
:1004D00042F480621A60184A00231370174A13709E
:1004E000174A1370174A1370174A1370174B40F2CC
:1004F00013321A604FF451725A60154BC0F34432F4
:100500001A70C0F347125A700221042200F01F0033
:1005100098729A70D9745A7588221A743C22DA70CB
:100520000C4B40226FF44A711A700B444FF4005286
:100530001A60704734800440E38CFF1F628CFF1FF9
:10054000EC8CFF1FE48CFF1F618CFF1F40A0044058
:1005500000A006402DE400E0134A937800F0030168
:1005600003F0EC030B43410748BF43F010039370C3
:1005700000F00F03042B0C4903D18B7943F04003A7
:100580008B715379C20603F0EF03074A48BF43F06B
:10059000100353719379810603F0EF0348BF43F0D2
:1005A00010039371704700BF00A0064008B50E4BC2
:1005B0001B685B0500D408BD0C4B1A7802F0FF03E2
:1005C00012B1FFF763FFF7E7094A4FF400511160DA
:1005D000084A0949D37040F203120A604A60074A88
:1005E0001370074A137008BD34800440618CFF1FEC
:1005F00084E100E000A0064040A00440E38CFF1F1F
:10060000628CFF1F38B50446094B1B7803F0FF05C9
:10061000002BF9D12046012101F0EEF820462946B1
:1006200001F0CAF8034B53F83420034B1A6038BD6D
:10063000618CFF1F38250000E88CFF1FF8B51D4BAB
:100640001B685A05064633D51B4B1B680BB10122AC
:100650001A701A4B1C780134402C1F4628BF002406
:10066000174D2B78A34218D101F050F840280FDC29
:10067000144A13791B06F3D52B7813490133402B09
:1006800028BF0023C95CDBB2C9B2D1712B70E7E788
:10069000FF28E5DDFFF7FAFEE2E70B4BF6B21E5549
:1006A0000A4B01221A70074BE4B2BC223C70DA708C
:1006B000F8BD00BF34800440E88CFF1FEC8CFF1FA6
:1006C000E48CFF1F00A00640638CFF1F618CFF1F9E
:1006D000274B1B685A052DE9F04707468A4644D543
:1006E000244B1B680BB101221A703D4607EB0A032D
:1006F0009D4237D2DFF890801F4E98F8004096F860
:1007000000900134402C28BF00245FFA89F9A145EC
:100710001DD11A4BBC22DA7000F0F8FF40280FDC24
:10072000164A13791B060FD5337815490133402B30
:1007300028BF0023C95CDBB2C9B2D171337003E0BA
:10074000FF2801DDFFF7A2FE33784B45E4D00C4BC8
:1007500015F8012B1A550B4B0122E4B21A7088F8D8
:100760000040C3E7054BBC22DA70BDE8F08700BF4C
:1007700034800440E88CFF1FE48CFF1F00A006407B
:10078000638CFF1F618CFF1FEC8CFF1F08B5034BB0
:100790001B7813B1FFF77AFEF9E708BD618CFF1FE4
:1007A000064A074B1B781078DBB2C0B283422CBFDD
:1007B0003F3000F1FF30C01A704700BFE48CFF1FCC
:1007C000EC8CFF1F054B1878054B1B78C0B2DBB2D1
:1007D000984238BF4030C01A704700BFE38CFF1FFB
:1007E000628CFF1F094B0A4A19781378DBB29942D1
:1007F00008D00133402B28BF00230649C85CDBB278
:10080000137070474FF0FF30704700BFE38CFF1F3D
:10081000628CFF1FA38CFF1F084B1A78084B1B78B4
:10082000DBB29A4207D00133402B28BF0023054A90
:10083000D05CC0B270474FF0FF307047E38CFF1FB1
:10084000628CFF1FA38CFF1F0A4B1B685B050FD533
:10085000094BDA7802F0CB02DA7040225A74DA7867
:1008600042F03402DA70054B1A78054BD2B21A7096
:10087000704700BF3480044000A00640628CFF1F18
:10088000E38CFF1F30B5304B1A7912F0300F23D0B4
:1008900072B69A7D02F0FF0122B9DA7940225A74C9
:1008A00062B619E062B6294B29481A780478D2B2A8
:1008B000E4B21846244BDD79531C402B28BF00239B
:1008C000A342EDB202D0234AD5541A464B1E13F070
:1008D000FF01EFD1D2B202701B4BD978C9B20C061E
:1008E00020D51B7918061DD51B4B1C4A1D78137883
:1008F000EDB2DBB21046AB420CD0134A0133402BB1
:100900001479174C28BF0023E45CE4B2D471127D43
:10091000072AF0D9DBB203700B4B1A79120644BFD9
:100920007C22DA704B060ED5074B1A7912F0400F75
:10093000194608D00B4B00221A700B4B1B6803B1F1
:100940001A703C23CB7030BD00A00640E38CFF1F23
:10095000628CFF1FA38CFF1FEC8CFF1FE48CFF1F1A
:10096000638CFF1F618CFF1FE88CFF1F194B1A68F7
:1009700042F400621A60184A00231370174A137079
:10098000174A1370174A1370174A1370174B40F227
:1009900013321A604FF451725A60154BC0F344324F
:1009A0001A70C0F347125A7000F01F00042202218F
:1009B00098729A70D9745A7588221A743C22DA7027
:1009C0000C4B40221A70A3F22B334FF400421A60F2
:1009D000704700BF34800440578DFF1FEE8CFF1F0F
:1009E000608DFF1F588DFF1FED8CFF1F0CB0044062
:1009F00000B006402FE400E0134A937800F00301B2
:100A000003F0EC030B43410748BF43F0100393701E
:100A100000F00F03042B0C4903D18B7943F0400302
:100A20008B715379C20603F0EF03074A48BF43F0C6
:100A3000100353719379810603F0EF0348BF43F02D
:100A400010039371704700BF00B0064008B50E4B0D
:100A50001B681B0500D408BD0C4B1A7802F0FF037D
:100A600012B1FFF713FDF7E7094A4FF40041116097
:100A7000084A0949D37040F203120A604A60074AE3
:100A80001370074A137008BD34800440ED8CFF1FBB
:100A900084E100E000B006400CB00440578DFF1F19
:100AA000EE8CFF1F38B50446094B1B7803F0FF0599
:100AB000002BF9D12046012100F09EFE2046294658
:100AC00000F07AFE034B53F83420034B1A6038BD14
:100AD000ED8CFF1F382500005C8DFF1FF8B51D4B06
:100AE0001B681A05064633D51B4B1B680BB1012248
:100AF0001A701A4B1C780134282C1F4628BF00247A
:100B0000174D2B78A34218D100F000FE40280FDCCF
:100B1000144A13791B06F3D52B7813490133282B7C
:100B200028BF0023C95CDBB2C9B2D1712B70E7E7E3
:100B3000FF28E5DDFFF7AAFCE2E70B4BF6B21E55F6
:100B40000A4B01221A70074BE4B2BC223C70DA70E7
:100B5000F8BD00BF348004405C8DFF1F608DFF1F17
:100B6000588DFF1F00B00640EF8CFF1FED8CFF1F5C
:100B7000274B1B681A052DE9F04707468A4644D5DE
:100B8000244B1B680BB101221A703D4607EB0A0388
:100B90009D4237D2DFF890801F4E98F8004096F8BB
:100BA00000900134282C28BF00245FFA89F9A14560
:100BB0001DD11A4BBC22DA7000F0A8FD40280FDCD2
:100BC000164A13791B060FD5337815490133282BA4
:100BD00028BF0023C95CDBB2C9B2D171337003E016
:100BE000FF2801DDFFF752FC33784B45E4D00C4B76
:100BF00015F8012B1A550B4B0122E4B21A7088F834
:100C00000040C3E7054BBC22DA70BDE8F08700BFA7
:100C1000348004405C8DFF1F588DFF1F00B00640DC
:100C2000EF8CFF1FED8CFF1F608DFF1F08B5034B7E
:100C30001B7813B1FFF72AFCF9E708BDED8CFF1F05
:100C4000064A074B1B781078DBB2C0B283422CBF38
:100C5000273000F1FF30C01A704700BF588DFF1FCA
:100C6000608DFF1F054B1878054B1B78C0B2DBB2B7
:100C7000984238BF4030C01A704700BF578DFF1FE1
:100C8000EE8CFF1F094B0A4A19781378DBB29942A0
:100C900008D00133402B28BF00230649C85CDBB2D3
:100CA000137070474FF0FF30704700BF578DFF1F24
:100CB000EE8CFF1F178DFF1F084B1A78084B1B780F
:100CC000DBB29A4207D00133402B28BF0023054AEC
:100CD000D05CC0B270474FF0FF307047578DFF1F98
:100CE000EE8CFF1F178DFF1F0A4B1B681B050FD5CE
:100CF000094BDA7802F0CB02DA7040225A74DA78C3
:100D000042F03402DA70054B1A78054BD2B21A70F1
:100D1000704700BF3480044000B00640EE8CFF1FD7
:100D2000578DFF1F30B5304B1A7912F0300F23D09A
:100D300072B69A7D02F0FF0122B9DA7940225A7424
:100D400062B619E062B6294B29481A780478D2B203
:100D5000E4B21846244BDD79531C402B28BF0023F6
:100D6000A342EDB202D0234AD5541A464B1E13F0CB
:100D7000FF01EFD1D2B202701B4BD978C9B20C0679
:100D800020D51B7918061DD51B4B1C4A1D781378DE
:100D9000EDB2DBB21046AB420CD0134A0133282B24
:100DA0001479174C28BF0023E45CE4B2D471127D9F
:100DB000072AF0D9DBB203700B4B1A79120644BF35
:100DC0007C22DA704B060ED5074B1A7912F0400FD1
:100DD000194608D00B4B00221A700B4B1B6803B14D
:100DE0001A703C23CB7030BD00B00640578DFF1FFA
:100DF000EE8CFF1F178DFF1F608DFF1F588DFF1F8B
:100E0000EF8CFF1FED8CFF1F5C8DFF1F174B1A68C7
:100E100042F480521A60164A00231370154A137068
:100E2000154A1370154A1370154A1370154A40F28B
:100E3000133111604FF451715160134AC0F34431C2
:100E40001170C0F3471100F01F0051709072937041
:100E500013742C23D3700D4B40226FF44B711A7016
:100E60000B444FF400321A60704700BF34800440D6
:100E7000CB8DFF1F628DFF1FD48DFF1FCC8DFF1FF9
:100E8000618DFF1F08C0044000C0064031E400E04F
:100E9000134A937800F0030103F0EC030B4341077E
:100EA00048BF43F01003937000F00F03042B0C496C
:100EB00003D18B7943F040038B715379C20603F061
:100EC000EF03074A48BF43F010035371937981063B
:100ED00003F0EF0348BF43F010039371704700BF66
:100EE00000C0064008B50E4B1B68DB0400D408BDEB
:100EF0000C4B1A7802F0FF0312B1FFF7C7FAF7E7BD
:100F0000094A4FF400311160084A0949D37040F290
:100F100003120A604A60074A1370074A137008BD3B
:100F200034800440618DFF1F84E100E000C0064072
:100F300008C00440CB8DFF1F628DFF1F38B50446EB
:100F4000094B1B7803F0FF05002BF9D12046012146
:100F500000F052FC2046294600F02EFC034B53F8CB
:100F60003420034B1A6038BD618DFF1F3825000007
:100F7000D08DFF1FF8B51D4B1B68DA04064633D52C
:100F80001B4B1B680BB101221A701A4B1C780134E1
:100F9000282C1F4628BF0024174D2B78A34218D1B8
:100FA00000F0B4FB40280FDC144A13791B06F3D57C
:100FB0002B7813490133282B28BF0023C95CDBB2EF
:100FC000C9B2D1712B70E7E7FF28E5DDFFF75EFAC4
:100FD000E2E70B4BF6B21E550A4B01221A70074B83
:100FE000E4B2AC223C70DA70F8BD00BF348004403B
:100FF000D08DFF1FD48DFF1FCC8DFF1F00C006407A
:10100000638DFF1F618DFF1F38B504464518AC4244
:1010100004D014F8010BFFF7ADFFF8E738BDFFFF70
:1010200008B5034B1B7813B1FFF730FAF9E708BD99
:10103000618DFF1F064A074B1B781078DBB2C0B2E8
:1010400083422CBF273000F1FF30C01A704700BF29
:10105000CC8DFF1FD48DFF1F054B1878054B1B78D7
:10106000C0B2DBB2984238BF4030C01A704700BFF0
:10107000CB8DFF1F628DFF1F094B0A4A1978137829
:10108000DBB2994208D00133402B28BF0023064928
:10109000C85CDBB2137070474FF0FF30704700BF81
:1010A000CB8DFF1F628DFF1F8B8DFF1F084B1A78A2
:1010B000084B1B78DBB29A4207D00133402B28BF84
:1010C0000023054AD05CC0B270474FF0FF30704734
:1010D000CB8DFF1F628DFF1F8B8DFF1F024B1A7878
:1010E000024BD2B21A707047628DFF1FCB8DFF1F6B
:1010F00010B5214B1A7992060FD5204AD87913786A
:101100001F490133402B097828BF00238B42C0B20E
:1011100003D01C49C854DBB21370174AD178C9B246
:101120000C0616D51379180613D5174B17481C78DB
:101130000378DBB29C4202D16C23D37009E0013307
:10114000282B28BF0023124CE45CDBB2E4B2D4713C
:1011500003704B060ED5084B1A7912F0400F194652
:1011600008D00C4B00221A700B4B1B6803B11A708D
:101170002C23CB7010BD00BF00C00640CB8DFF1FDD
:10118000628DFF1F8B8DFF1FD48DFF1FCC8DFF1F26
:10119000638DFF1F618DFF1FD08DFF1F10B5104C99
:1011A00023686BB120684288531C0244147A028879
:1011B000934212D300F0DCFF094B00221A600DE0CD
:1011C000084B1B7813B94FF0FF3010BD032000F01F
:1011D000D1FB20600028E5D1F5E74380204610BD13
:1011E000E08DFF1F0B8FFF1F10B50B4C236813B151
:1011F00023686BB902E0094B1B7813B94FF0FF303D
:1012000010BD032000F0B6FB20600028F0D1F5E708
:101210005A881344187A10BDE08DFF1F0B8FFF1FF3
:10122000044B9888044B1B681BB11A885B88D31A3F
:1012300018447047188FFF1FE08DFF1F2DE9F843FA
:101240002D4E012307460C463370002C4FD02B4DFA
:101250002B68A9462BBB48F60148294B1B7803F0A5
:10126000FF020BB9327015E0042000F09FFB072845
:1012700008D80123337000F05DFFC9F8000080B981
:101280001D4B1870B8F101081E4B01D01A782AB115
:1012900001221A704FF0FF30BDE8F883FFF7F6F82F
:1012A000DBE72968174A488800231370C0F1400221
:1012B000944238BF224600F1080C10448C44488008
:1012C000A41A934204D0F85C0CF803000133F8E749
:1012D0001F444B883F2B06D940230B80042000F08D
:1012E000B3FB00232B60084B05221A70ADE7347066
:1012F0002046BDE8F88300BFD68DFF1FD88DFF1FA5
:101300000B8FFF1FDC8DFF1FD58DFF1F07B502ABB5
:10131000012103F8010D1846FFF790FF03B05DF8B7
:1013200004FBFFFF2DE9F041114B1B78F3B1114E87
:10133000114B3468114D01271F7098464CB100279E
:1013400063882F7004202380214600F07DFB3760E6
:1013500009E000F0EFFE014620B104202C7000F0FF
:1013600073FB00E02F70002388F80030BDE8F081A7
:101370000B8FFF1FD88DFF1FD68DFF1FD58DFF1F31
:1013800038B50E4B1B7803F0FF05ABB90C4C216848
:1013900031B14B880B80042000F056FB256038BD2E
:1013A00000F0C8FE014620B10420BDE8384000F03E
:1013B0004BBB044B01221A7038BD00BFD68DFF1FF6
:1013C000D88DFF1FD58DFF1F08B50368C9B21B68F4
:1013D000984708BD08B50368C9B21B68984708BD9F
:1013E00008B50368C9B21B68984708BD08B503680B
:1013F000C9B21B68984708BD034800EB5100B0FB19
:10140000F1F0FFF763B800BF0044950810B5064837
:1014100000EB51001446B0FBF1F0FFF757F82046FF
:10142000BDE81040FFF798B800449508FFF7BEB834
:101430000846FFF7E7B8FFF7C5B9FFF7EDB9FFF7C3
:10144000D1B9FFF7A3B9FFF7FFB9FFF7A9B908B5FD
:101450000846FFF7F3F8012008BD08B50846FFF776
:10146000EDF8012008BD10B5084614461146FFF7F7
:101470002FF9204610BD38B508460D4600F066F934
:10148000044621462846FFF723F9204638BD704719
:10149000044B00221A714FF47A711A73024A996050
:1014A0001A607047E88DFF1F3024000008B50368FC
:1014B000C9B21B68984708BD08B50368C9B21B6864
:1014C000984708BD08B50368C9B21B68984708BDAE
:1014D00008B50368C9B21B68984708BD034800EB0C
:1014E0005100B0FBF1F0FFF741BA00BF004495088E
:1014F00010B5064800EB51001446B0FBF1F0FFF7C1
:1015000035FA2046BDE81040FFF776BA004495084A
:10151000FFF79CBA0846FFF7C5BAFFF7A3BBFFF772
:10152000CBBBFFF7AFBBFFF781BBFFF7DDBBFFF71F
:1015300087BB08B50846FFF7D1FA012008BD08B5FA
:101540000846FFF7CBFA012008BD10B5084614463F
:101550001146FFF70DFB204610BD38B508460D4675
:1015600000F0F4F8044621462846FFF701FB204628
:1015700038BD7047044B00221A714FF47A711A7308
:10158000024A99601A607047F88DFF1F802400009E
:1015900008B50368C9B21B68984708BD08B5036859
:1015A000C9B21B68984708BD08B50368C9B21B6873
:1015B000984708BD08B50368C9B21B68984708BDBD
:1015C000034800EB5100B0FBF1F0FFF71FBC00BF78
:1015D00000A24A0410B5064800EB51001446B0FBC7
:1015E000F1F0FFF713FC2046BDE81040FFF750BCB8
:1015F00000A24A04FFF776BC0846FFF79FBCFFF73E
:101600002BBDFFF753BDFFF737BDFFF709BDFFF750
:1016100065BDFFF70FBD08B50846FFF7ABFC01201D
:1016200008BD08B50846FFF7A5FC012008BD10B5A8
:10163000084614461146FFF7E7FC204610BD38B5B2
:1016400008460D4600F082F8044621462846FFF77A
:10165000DBFC204638BD7047044B00221A714FF462
:101660007A711A73024A99601A607047088EFF1FD8
:10167000D0240000FFF7D4BDFFF790BDFFF7B4BD45
:10168000FFF750BE0846FFF741BE08461146FFF778
:10169000D5BD7047044B00221A714FF47A711A734A
:1016A000024A99601A607047188EFF1F20250000BB
:1016B000024B1A6801321A60704700BF288EFF1F64
:1016C00008B50B4C2368580301D500F0FDF92368D9
:1016D000590501D5FFF7D6F823681A0501D5FFF79C
:1016E00021FB2368DB04ECD5FFF702FDE9E700BF2F
:1016F0003480044008B5FFF7E3FFFFFF014B1022E1
:101700001A807047002005407047FFFFEFF31383F6
:10171000ABB9EFF31083ABB9EFF3058323B10F2B14
:1017200005D9094A985C03E04FF4807000E000207E
:10173000EFF311833BB1834238BF184670474FF037
:10174000FF30704700207047F0E300E00023C25CE8
:101750000AB10133FBE71846704710B50023B0FB10
:10176000F2F402FB1400092894BF30303730C0B2C5
:10177000C85420460CB10133F1E7CA185470224610
:101780009A4206DA885CCC5C8C54C8540132013B26
:10179000F6E7084610BDFFFF044B054900221A601A
:1017A0000A60044A106010221A60704714D0034087
:1017B00004D0034000D00340212810B518D80D4AAA
:1017C00052F8303093F880423CB1012211B183F8D5
:1017D000802010BD83F8002110BD02EBC0004368DB
:1017E0001A6811B142F0030201E022F002021A600D
:1017F00010BD00BF38250000212816D80B4A02EB87
:10180000C00301295B6852F8302004D182F88012AD
:101810004FF4A27208E0002082F8800211B94FF460
:10182000807201E040F203121A6070473825000010
:1018300072B60C4B0C491A680C4B1B68096862B6EF
:10184000490102D5322A88BF0133C2F58C324821C2
:1018500002F23F12B2FBF1F24FF47A7000FB032068
:10186000704700BF18E000E004ED00E0288EFF1F85
:1018700038B50446FFF7DCFF054664B1FFF7D8FF33
:10188000401BB0F57A7F03D3013C04D005F57A758F
:10189000FEF7FCFDF2E738BD1F4B4FF4000210B518
:1018A0001A604FF080721A604FF000721A604FF0A9
:1018B00080621A604FF000621A60184B184A194C87
:1018C000002048F6FF711860596028231360936068
:1018D000136193611362936213639363092222601D
:1018E00004F58054043420606160A360236144F8EF
:1018F000042C04F5FE2420600B4801600B490B60AA
:101900008B600B4B1A6000F055FC0420FFF7B0FF12
:10191000BDE8104000F0CEBB08E100E004800340C9
:101920000C8003400080034008800B400C800B407B
:1019300000800B40F0B50C4B0C4C1A7842F00205BD
:1019400004EBC50682F00102706009481A7006783F
:10195000002E0CBF8827C82786F0010647EA014100
:10196000067044F83510F0BD948EFF1F0080FF1FF5
:101970000C8FFF1F431E032B10B510D872B6094AF7
:1019800052F8230048B1416842F82310064A018802
:1019900032F81340611A22F8131062B610BD00200D
:1019A00010BD00BF848EFF1F188FFF1F0138032852
:1019B0000AD872B6054B53F82030002013B101301D
:1019C0005B68FBE762B6704700207047D88EFF1F48
:1019D00010B572B60123174A1A4412F8012C1207E7
:1019E0001CD59900144A52F831402CB902EB43132C
:1019F00008305860114B09E041F0010152F83140C4
:101A000064B902EBC103083058600D4B42F8313025
:101A10000C4B1A78013A1A7062B610BD0133052BCF
:101A2000D9D162B6074B00221A70BDE8104000F011
:101A30009FBB00BF482600000080FF1F88004000B9
:101A4000C8004000028FFF1F431E032B30B532D861
:101A5000194A400140F01000104472B6174CE25C85
:101A6000032A09D8DFE802F016021805083002221E
:101A700013E00830042210E01148124A50F82340C5
:101A800014B940F8231002E052F82300416042F8F4
:101A900023100FE0032200E00522E25410F0080FAB
:101AA00001F108030A8843600CBF8823C82343EA76
:101AB0000243036062B630BD0080FF1F408EFF1FEF
:101AC000D88EFF1FE88EFF1F2DE9F84FAB4F3C78F3
:101AD000E4B214F0040F3D4619D0A94B1B78A3B112
:101AE000A84A117801F0FF0321B1013BDBB213706A
:101AF00003B900BEA44A117801F0FF0329B1013BEC
:101B0000DBB213700BB9FFF73BFC04233B7004F00E
:101B1000080303F0FF02002B00F063829B4B9C4CF8
:101B20001A78D2B215094FEA920840F0E08104EB2E
:101B3000C803596854F83830C3F38303013B0C2BB6
:101B400000F2D281DFE813F091019101D001D001C0
:101B5000D001D001D001D001AC01D001D001D00121
:101B60000D008C4D0A684B688B486B6001218B4BD4
:101B700044F838302A60DFF85082017092B240F2A7
:101B8000816000238242C8F800302361A36117D826
:101B9000B2F5D06F80F01E81B2F5817F00F0CF806A
:101BA00006D8802A00F0BA80822A00F0BB802DE19E
:101BB00040F202339A4200F0D180B2F5A06F1CE0EF
:101BC00042F22100824200F04D810ED8B2F5086F3A
:101BD00000F09E80B2F5106F40F01881684B6C4E9B
:101BE000AA781A7006F180090AE042F221218A429D
:101BF00000F0088142F221339A4200F00B8105E1A6
:101C0000336A1B0603D5706A083800F0B1FA08364B
:101C10004E45F5D10026B146DFF8B0A156F80A00CE
:101C200028B1D0F804B000F0A3FA5846F8E74AF813
:101C300006005B4BDFF898A1F05056F80A0028B177
:101C4000D0F804B000F094FA5846F8E7554B4AF83B
:101C50000600F050544B23F81900544B19F8032098
:101C6000023A032A08D8DFE802F002040204002244
:101C700000E0012203F8092009F10109B9F1040F7C
:101C800006F10406C8D14A4B00221A7001269A4672
:101C9000484A494B3244334412F8012C9B0012F05D
:101CA000080F1A704FEA860925D000F043FA38B1C0
:101CB00004EB461308305860404B44F8393006E0D6
:101CC0009AF8003044F8390001338AF8003000F007
:101CD00031FA49F0010338B104EBC3020830506017
:101CE0002E4A44F8332006E044F833009AF80030D6
:101CF00001338AF8003049F00202013649F0030945
:101D00000023052E44F8323044F83930C0D182E047
:101D10001B4B2B4C1B7823700B467FE0284C237009
:101D200063707AE0AA88042A70D8254C9200237048
:101D30006370244B9B5C9E076FD521706DE0AA8871
:101D400002F07F03042B61DC6B88002B5ED19100D5
:101D50001C4A0A44117821F0020155E0AA8802F0D9
:101D60007F03042B52DC6B88002B4FD19100154A66
:101D70000A44117841F0020146E000BF802007408C
:101D80000B8FFF1F958EFF1FD58DFF1F90200740E3
:101D90000080FF1FF88EFF1F0C8FFF1FC800400040
:101DA000308EFF1FE88EFF1F188FFF1F408EFF1F12
:101DB000028FFF1F4826000030C801108800400035
:101DC000038FFF1FC02007402C8EFF1F848EFF1F34
:101DD000D88EFF1F6A88A9889D4B53F8084CA3F141
:101DE0000C009CB133F80C6C964209D133F80A6CA4
:101DF0008E4205D1120A032A0CBF237803890DE015
:101E00000C33EAE7A978934A117004E0924B0F2251
:101E10001A7027E000231C4600E00223EE88B3423C
:101E200038BF1E46402E34BF354640252046294641
:101E3000FFF780FD761B2C4403D1402D12D135468F
:101E400003E0402E34BF3546402520462946FFF7A3
:101E500071FD761B2C4401D1402D03D17F4AC8F877
:101E60000040168001227E4B3DE07E4B1A8842F2F4
:101E700021039A4210D100237B4AC85C9854013355
:101E8000072BF9D11368862B02D1784B0F221A70D9
:101E900000200146FFF74EFD754B44F8383023E033
:101EA000744E3568B5B1DFF8B481B8F80090B9F177
:101EB000400F34BF4C46402428462146FFF73AFDE8
:101EC000C4EB09039BB2A8F800300BB9402C00D139
:101ED0002B193360634B1A88B2F5A06F04D100222E
:101EE0005A709A78644B1A7001225D4B6CE004EBD7
:101EF000C806013D736802F00802A3F10800EDB2C4
:101F000002F0FF01002A36D000F032F95B485C4B4A
:101F100050F82520EAB1516840F8251002F1080177
:101F20007160595D03290BD8DFE801F0020406084F
:101F3000032104E0022102E0052100E004215955BB
:101F400016F0080F12880CBF8823C82343EA024307
:101F500042E05A5D032A07D8DFE802F0404002045D
:101F6000002206E0012204E016F0080F0CBF022256
:101F700003225A5532E054F83820120C23F8082C6A
:101F800022B3DFF82CE123F8061C43F8041C5EF8AA
:101F900025303C4913B94EF8250002E051F82530B0
:101FA0005860394B41F8250033F815100A4423F8DE
:101FB000152000F0BFF810B10830706006E0334B18
:101FC00044F838001A7801321A7007E0284B304A7A
:101FD00016F0080F08BF134644F8383008233B704A
:101FE00074E5E0071FD51E4929482A4C02230B70CF
:101FF000294B1A70294B186098602948D8601A61DB
:102000009A615C60144B0D2018702648FF23037002
:102010002B700274244A1370244B9F221A700123E0
:102020000B70BDE8F88F210604D50B4B0D221A70FA
:1020300080232B70A20705D51A4B1A78D2B21A70DA
:1020400002232B70E30644BF10232B70BDE8F88FEA
:1020500058260000E48DFF1FC0200740008FFF1F9F
:1020600094200740F88EFF1F108FFF1F958EFF1FD3
:10207000C80040002C8EFF1F98200740D88EFF1FFD
:10208000408EFF1F308EFF1F188FFF1F028FFF1F14
:1020900088004000448EFF1F948EFF1F0080FF1FAA
:1020A000988EFF1F882007408C200740842007401F
:1020B000848EFF1F08B500F0D9F800221A4B0021CA
:1020C000D15098180832882A4160F7D1174A106811
:1020D00040F48020106002F528326832C3F30720F4
:1020E0001070C3F307401B0E10751376FF2302F820
:1020F0001C3C02F8143C02F88C3C012302F8083C1A
:1021000082F8641002F8183C094B70226FF4507189
:102110001A700B444FF400721A6003F1C04303F5C8
:10212000C82310221A7008BD0080FF1F34800440AD
:1021300049E400E072B60C4A1168B1FA81F30B2B46
:1021400002D962B6002070474FF00040D84021EA23
:102150000001116062B6054948225343C8180022A5
:10216000CA504260704700BF6087FF1F0084FF1F96
:102170000C4B4822C31AB3FBF2F30B2B11D80A4ABB
:10218000127822B1094A12780AB1FFF721BC72B65F
:10219000074A4FF0004121FA03F311681943116017
:1021A00062B670470084FF1F028FFF1F0B8FFF1F57
:1021B0006087FF1F10B5204B2048214960221A700C
:1021C000E1225A701F4B204A1C78204B082C01D169
:1021D000012402E00A2C03D119240460132005E035
:1021E0000C2C0CBF15243D240460122008601460E0
:1021F0001860174B17491B78174A03B101230B606E
:102200001360164B164A1978164B012901D8802104
:102210000BE0042901D8842107E0082901D8852191
:1022200003E0102994BF86218721116019600E4BAD
:1022300001221A7010BD00BF0040074008B00340E3
:102240000CB003406487FF1F08B00B400CB00B407C
:102250000E8FFF1F20B0034020B00B406587FF1F8B
:1022600024B0034024B00B400D8FFF1F1FB572B682
:10227000154B70221A70154A412111700F2102F876
:10228000011C80221A701A781206FCD5104B1868AF
:1022900062B6104B984298BF0A2301AC98BF5843CE
:1022A00021460A22FFF759FA0023E15C0A4A29B1C4
:1022B00002EB430001330A2B4180F6D101335B006E
:1022C000137004B010BD00BF0000024007000240C0
:1022D000080002407F969800EE87FF1F70B50F4EF2
:1022E0000F4D761BB61007D0043D0024013455F87D
:1022F000043F9847A642F9D10A4E0B4D761B00F0D9
:10230000D3F9B61008D0043D0024013455F8043F39
:102310009847A642F9D170BD70BD00BFB426000039
:10232000B4260000D0260000B4260000024B13B1F2
:10233000024800F005B87047000000004D2300007F
:10234000014600200246034600F018B838B5094D92
:10235000094C641BA41018BF05EB840505D0013C93
:1023600055F8043D9847002CF9D1BDE8384000F0FD
:10237000AFB900BF0000000000000000F0B5274C1E
:102380002668D6F8484185B00746002C41D06568DC
:102390001F2D1EDD224818B94FF0FF3005B0F0BDEB
:1023A0004FF4C870039102920193AFF30080039938
:1023B000029A019B04460028EED0D6F848512560C9
:1023C000002060600546C6F84841C4F88801C4F89A
:1023D0008C013FB9AB1C00200135656044F8231027
:1023E00005B0F0BD04EB85004FF0010CC0F888206B
:1023F000D4F888610CFA05F21643022FC4F88861FC
:10240000C0F80831E6D1D4F88C311A43C4F88C21D5
:10241000E0E706F5A674C6F84841B8E7A426000030
:1024200000000000FFFFFFFF0000000000000000B0
:102430004F14000067140000371400003F14000020
:102440003B14000043140000F91300000D140000B9
:102450002D14000031140000471400004B1400003C
:10246000C9130000D5130000E1130000ED130000B4
:10247000771400005B140000000000000000000062
:10248000331500004B1500001B150000231500003C
:102490001F15000027150000DD140000F1140000D6
:1024A00011150000151500002B1500002F15000058
:1024B000AD140000B9140000C5140000D1140000D0
:1024C0005B1500003F150000000000000000000048
:1024D000171600002F160000FF1500000716000059
:1024E000031600000B160000C1150000D5150000F2
:1024F000F5150000F91500000F1600001316000076
:10250000911500009D150000A9150000B5150000EB
:102510003F1600002316000000000000000000002D
:10252000851600008B160000751600007916000055
:102530007D160000811600004008FE4340A00440C4
:102540004408FE4344A004400018FE4300C0044079
:102550003000FE43309004403400FE433490044089
:102560001C18FE431CC004401018FE4310C0044059
:102570000818FE4308C004400C18FE430CC0044079
:102580000C10FE430CB004401010FE4310B0044089
:102590001810FE4318B004401C10FE431CB0044049
:1025A0001410FE4314B004400418FE4304C0044059
:1025B0000010FE4300B004400008FE4300A00440A9
:1025C0000408FE4304A004400C08FE430CA0044091
:1025D0000808FE4308A004401418FE4314C0044039
:1025E0001818FE4318C004400410FE4304B0044011
:1025F0000810FE4308B004401400FE431490044049
:102600004C08FE434CA004400420FE4304D0044088
:102610002410FE4324B004402010FE4320B00440A8
:102620002810FE4328B004402C10FE432CB0044078
:102630000020FE4300D004404808FE4348A0044068
:102640001000FE4310900440001519150001000011
:102650006687FF1F12000000000200009087FF1F26
:102660004300000000030000EA87FF1F0000000095
:10267000010309047887FF1F00000000020309041A
:10268000D487FF1F0000000003030904EE87FF1F2B
:10269000000000000000000000000000000000003A
:1026A000430000000888FF1FF8B500BFF8BC08BC55
:1026B0009E4670472D230000350400006904000089
:1026C00091140000751500005916000095160000C1
:0426D000F8B500BF9A
:1026D400FFFFFFFF0A041201000202000040C016BF
:1026E400830400010102030118035400650065001E
:1026F4006E00730079006400750069006E006F005D
:1027040009024300020100C0320904000001020270
:10271400010005240010010524010101042402061E
:102724000524060001070582031000400904010086
:10273400020A0000000705030240000007058402A6
:1027440040000000160355005300420020005300CF
:1027540065007200690061006C00040309040C0345
:102764000000000000000000000000000000000065
:10277400000000000000000000000000F48AFF1FB9
:102784005C8BFF1FC48BFF1F0000000000000000D3
:102794000000000000000000000000000000000035
:1027A400000000000000000000000000A02600005F
:1027B4000000000000000000000000000000000015
:1027C4000000000000000000000000000000000005
:1027D40000000000000000000000000000000000F5
:1027E40000000000000000000000000000000000E5
:1027F40000000000000000000000000000000000D5
:1028040000000000000000000000000000000000C4
:1028140000000000000000000000000000000000B4
:1028240001000000000000000E33CDAB34126DE651
:10283400ECDE05000B0000000000000000000000BA
:102844000000000000000000000000000000000084
:102854000000000000000000000000000000000074
:102864000000000000000000000000000000000064
:102874000000000000000000000000000000000054
:00000001FF
