:1000000000800020BD0100005D15000029150000E2
:1000100029150000291500002915000029150000E8
:100020002915000029150000291500005D150000A4
:100030005D150000291500005D1500001915000070
:100040005D1500005D1500005D1500005D150000E8
:100050005D1500005D1500005D1500005D150000D8
:100060005D1500005D1500005D1500005D150000C8
:100070005D1500005D1500005D1500005D150000B8
:100080005D1500005D1500005D1500005D150000A8
:100090005D1500005D1500005D1500005D15000098
:1000A0005D1500005D1500005D1500005D15000088
:1000B0005D1500005D1500005D1500005D15000078
:1000C0005D1500005D1500005D1500005D15000068
:1000D0005D1500005D1500005D1500005D15000058
:1000E0005D1500005D1500005D1500005D15000048
:1000F0005D1500007D1900005D1500001D1E00004B
:100100005D150000E92100005D1500005D1500008F
:100110005D1500005D1500005D1500005D15000017
:100120005D1500005D1500005D1500005D15000007
:100130005D1500005D1500005D1500005D150000F7
:100140005D1500005D1500005D1500005D150000E7
:100150005D1500005D1500005D1500005D150000D7
:100160005D1500001D0A00005D1500005D15000012
:100170005D1500005D1500005D1500005D150000B7
:100180005D1500005D1500005D1500005D150000A7
:100190005D1500005D1500005D1500005D15000097
:1001A0005D1500005D1500005D1500005D15000087
:1001B0005D1500005D1500005D150000554B4CF20B
:1001C000205210B51A804DF628121A8000BF00BFC9
:1001D00001F0C8F9504B4FF010621A604F4A9A6014
:1001E0004F4ADA60A3F53043203B1A6812F480725C
:1001F00004D14C490A604FF4A8521A604A4B1A784D
:10020000110703D51A7842F008021A70474B2A22C8
:100210001A700023464A47499818884204D2464932
:10022000595899500433F5E7444A454B9A424FF0E8
:10023000000302D242F8043BF7E74249424A5958C8
:1002400099500433B3F5DE7FF7D1404B802103F89A
:10025000011B3F498B42F9D13E4B1A603E4B0A22AB
:100260001A70A3F6FF7324221A70A02203F8012C3F
:100270003A4B1A789207FBD51A78D406FCD41A7830
:1002800002F00C02082AFAD1354B05221A704322DB
:100290005A70324B1A789006FBD51A785106FCD565
:1002A000304B4FF081721A6005225A602E4B20228B
:1002B0001A702A4B1B7803F00C030C2BF9D12B4B33
:1002C0002B4A1A602B4B2C4A1A60072243F8042C45
:1002D00062B600F08BFA134B1B68DA0705D5274886
:1002E00000F0F6F9264B274A1A60274B1B785B066D
:1002F00009D5234C234A2368934204D11F4800F0B8
:10030000E7F90023236002F063F901F031F901F00D
:1003100061F8FEE70E20054030800440823F040073
:100320000100002B14D0034002D0074000E007403A
:100330006087FF1F4C90FF1F843100004C90FF1F0F
:100340000C94FF1F000000000082FF1F00E400E08B
:100350005FE400E008ED00E0005006400640064083
:1003600004400640448004400040064004800440AD
:10037000C010050014E000E03F1901008C5B8C55B3
:100380001CE00340A5C3945A00F00740FFFFFFFFA5
:10039000FFFFFFFFFFFFFFFFFFFFFFFFFFFFFFFF6D
:1003A000FFFFFFFFFFFFFFFFFFFFFFFFFFFFFFFF5D
:1003B000FFFFFFFFFFFFFFFFFFFFFFFFFFFFFFFF4D
:1003C000FFFFFFFFFFFFFFFFFFFFFFFFFFFFFFFF3D
:1003D000FFFFFFFFFFFFFFFFFFFFFFFFFFFFFFFF2D
:1003E000FFFFFFFFFFFFFFFFFFFFFFFFFFFFFFFF1D
:1003F000FFFFFFFFFFFFFFFFFFFFFFFFFFFFFFFF0D
:10040000FFFFFFFFFFFFFFFFFFFFFFFFFEFFFFFFFD
:1004100010B5054C237833B9044B13B10448AFF33E
:1004200000800123237010BD4C90FF1F00000000CE
:100430007C31000008B5064B1BB106480649AFF3F6
:1004400000800648036813B1054B03B1984708BD07
:10045000000000007C3100005090FF1F4C90FF1FF7
:10046000000000007047704738B5044608460D4646
:1004700000F008F9236802465B6820462946984741
:1004800038BD10B542F2107304460361417108464D
:10049000022100F05BF9607900F04AF9003018BFE2
:1004A000012000230122A0706070E3702270A3601D
:1004B000204610BD38B5104905461048FFF7D4FF57
:1004C00000240F4B0D48195D00F07CFF01340B48F0
:1004D0000C49FFF7C9FF042CF3D1294600230A2257
:1004E000064800F037FF05480749FFF7BDFF0348FE
:1004F000BDE8384000F01EBFC42E00000C92FF1F64
:100500007C90FF1FC62E0000C92E00007047FFFF21
:10051000F8B500F037F9284C054604F1500654F8B8
:10052000043C226844F8085CE91A914222D313443F
:1005300044F8043C14F80B0C00F0FAF814F8102CF2
:10054000003018BF012004F80F0C8AB1002204F813
:10055000102C14F80E2C12B180F0010100E01146AD
:10056000002A0CBF0246002204F80D1C04F80C2CD3
:1005700004F80E0C1434B442D1D11048027A411E52
:1005800000230F4EF7184FF0000CFC7801F8014FD4
:1005900087F803C001279F550E791433A64218BF70
:1005A0003A46502BEDD1027222B12846BDE8F84000
:1005B000FFF780BFF8BD00BFC090FF1F7C90FF1FFA
:1005C000B090FF1F2DE9F843264CDFF8AC80264E93
:1005D000DFF8A890254F264D20460021FFF751FF58
:1005E00042463146204601F0E3FF48460121FFF72D
:1005F00048FF42463146484601F0DAFF38460221BC
:10060000FFF73FFF42463146384601F0D1FF28460A
:100610000321FFF736FF31464246284601F0C8FF66
:100620000FCCDFF85CC066460FC6236833604C46CB
:100630000FCC0CF114060FC6236833600FCF0CF1FA
:1006400028060FC63B6833600FCD0CF13C040FC485
:100650002B682360424600200649BDE8F84301F0BC
:10066000A7BF00BF6890FF1F650400008890FF1FB0
:100670009C90FF1F670400006087FF1F0091FF1F11
:10068000B090FF1F0023C25C0AB10133FBE718469C
:10069000704710B50023B0FBF2F402FB14000928E8
:1006A00094BF30303730C0B2C85420460CB101334B
:1006B000F1E7CA18547022469A4206DA885CCC5C8C
:1006C0008C54C8540132013BF6E7084610BDFFFFC9
:1006D000044B054900221A600A60044A1060102287
:1006E0001A60704714D0034004D0034000D0034088
:1006F000212810B518D80D4A52F8303093F88042AE
:100700003CB1012211B183F8802010BD83F8002193
:1007100010BD02EBC00043681A6811B142F0030239
:1007200001E022F002021A6010BD00BFCC2E0000D2
:10073000212806D8044B53F8303093F80002C0B299
:1007400070470020704700BFCC2E0000212816D82B
:100750000B4A02EBC00301295B6852F8302004D138
:1007600082F880124FF4A27208E0002082F8800222
:1007700011B94FF4807201E040F203121A60704721
:10078000CC2E000072B60C4B0C491A680C4B1B683F
:10079000096862B6490102D5322A88BF0133C2F521
:1007A0008C32482102F23F12B2FBF1F24FF47A7020
:1007B00000FB0320704700BF18E000E004ED00E0FC
:1007C0001491FF1F38B50446FFF7DCFF054664B1FE
:1007D000FFF7D8FF401BB0F57A7F03D3013C04D06C
:1007E00005F57A7500F01CFEF2E738BD1F4B4FF49B
:1007F000000210B51A604FF080721A604FF000725C
:100800001A604FF080621A604FF000621A60184B55
:10081000184A194C002048F6FF71186059602823C7
:100820001360936013619361136293621363936324
:100830000922226004F58054043420606160A360C2
:10084000236144F8042C04F5FE2420600B48016069
:100850000B490B608B600B4B1A6000F001FE04200B
:10086000FFF7B0FFBDE8104000F0CEBB08E100E0AC
:10087000048003400C8003400080034008800B404C
:100880000C800B4000800B40F0B50C4B0C4C1A78E0
:1008900042F0020504EBC50682F0010270600948CF
:1008A0001A700678002E0CBF8827C82786F001062C
:1008B00047EA0141067044F83510F0BD8091FF1FF2
:1008C0000080FF1FF891FF1F431E032B10B510D8A7
:1008D00072B6094A52F8230048B1416842F8231021
:1008E000064A018832F81340611A22F8131062B6E2
:1008F00010BD002010BD00BF7091FF1FF893FF1FB7
:10090000013803280AD872B6054B53F8203000206E
:1009100013B101305B68FBE762B670470020704797
:10092000C491FF1F10B572B60123174A1A4412F87A
:10093000012C12071CD59900144A52F831402CB9E9
:1009400002EB431308305860114B09E041F00101FC
:1009500052F8314064B902EBC103083058600D4BC6
:1009600042F831300C4B1A78013A1A7062B610BD59
:100970000133052BD9D162B6074B00221A70BDE8AE
:10098000104000F09FBB00BF003000000080FF1F40
:1009900088004000C8004000EE91FF1F431E032B5B
:1009A00030B532D8194A400140F01000104472B6F8
:1009B000174CE25C032A09D8DFE802F0160218059A
:1009C0000830022213E00830042210E01148124AD5
:1009D00050F8234014B940F8231002E052F82300E5
:1009E000416042F823100FE0032200E00522E254A8
:1009F00010F0080F01F108030A8843600CBF882338
:100A0000C82343EA0243036062B630BD0080FF1F83
:100A10002C91FF1FC491FF1FD491FF1F2DE9F84FA8
:100A2000AB4F3C78E4B214F0040F3D4619D0A94B0B
:100A30001B78A3B1A84A117801F0FF0321B1013B53
:100A4000DBB2137003B900BEA44A117801F0FF03B2
:100A500029B1013BDBB213700BB900F047FC042352
:100A60003B7004F0080303F0FF02002B00F06382E8
:100A70009B4B9C4C1A78D2B215094FEA920840F071
:100A8000E08104EBC803596854F83830C3F383039A
:100A9000013B0C2B00F2D281DFE813F091019101B0
:100AA000D001D001D001D001D001D001AC01D001E2
:100AB000D001D0010D008C4D0A684B688B486B60EB
:100AC00001218B4B44F838302A60DFF850820170E6
:100AD00092B240F2816000238242C8F80030236164
:100AE000A36117D8B2F5D06F80F01E81B2F5817F77
:100AF00000F0CF8006D8802A00F0BA80822A00F069
:100B0000BB802DE140F202339A4200F0D180B2F571
:100B1000A06F1CE042F22100824200F04D810ED80D
:100B2000B2F5086F00F09E80B2F5106F40F01881AA
:100B3000684B6C4EAA781A7006F180090AE042F2FE
:100B400021218A4200F0088142F221339A4200F0CA
:100B50000B8105E1336A1B0603D5706A083800F083
:100B6000B1FA08364E45F5D10026B146DFF8B0A1FE
:100B700056F80A0028B1D0F804B000F0A3FA58469D
:100B8000F8E74AF806005B4BDFF898A1F05056F8FA
:100B90000A0028B1D0F804B000F094FA5846F8E7FB
:100BA000554B4AF80600F050544B23F81900544BAB
:100BB00019F80320023A032A08D8DFE802F00204F9
:100BC0000204002200E0012203F8092009F10109D2
:100BD000B9F1040F06F10406C8D14A4B00221A707D
:100BE00001269A46484A494B3244334412F8012CB4
:100BF0009B0012F0080F1A704FEA860925D000F00A
:100C000043FA38B104EB461308305860404B44F8BF
:100C1000393006E09AF8003044F8390001338AF898
:100C2000003000F031FA49F0010338B104EBC3029F
:100C3000083050602E4A44F8332006E044F8330070
:100C40009AF8003001338AF8003049F00202013688
:100C500049F003090023052E44F8323044F83930B6
:100C6000C0D182E01B4B2B4C1B7823700B467FE0DE
:100C7000284C237063707AE0AA88042A70D8254C27
:100C8000920023706370244B9B5C9E076FD521708C
:100C90006DE0AA8802F07F03042B61DC6B88002BD7
:100CA0005ED191001C4A0A44117821F0020155E0FE
:100CB000AA8802F07F03042B52DC6B88002B4FD1F3
:100CC0009100154A0A44117841F0020146E000BF44
:100CD00080200740F791FF1F8191FF1FF991FF1FAF
:100CE000902007400080FF1FE491FF1FF891FF1F35
:100CF000C80040001C91FF1FD491FF1FF893FF1FF5
:100D00002C91FF1FEE91FF1F0030000030C8011032
:100D100088004000EF91FF1FC02007401891FF1F7F
:100D20007091FF1FC491FF1F6A88A9889D4B53F8DB
:100D3000084CA3F10C009CB133F80C6C964209D11D
:100D400033F80A6C8E4205D1120A032A0CBF2378AD
:100D500003890DE00C33EAE7A978934A117004E0A7
:100D6000924B0F221A7027E000231C4600E002235A
:100D7000EE88B34238BF1E46402E34BF354640256C
:100D800020462946FFF780FD761B2C4403D1402DD9
:100D900012D1354603E0402E34BF3546402520466B
:100DA0002946FFF771FD761B2C4401D1402D03D15C
:100DB0007F4AC8F80040168001227E4B3DE07E4B02
:100DC0001A8842F221039A4210D100237B4AC85C60
:100DD00098540133072BF9D11368862B02D1784B35
:100DE0000F221A7000200146FFF74EFD754B44F8A4
:100DF000383023E0744E3568B5B1DFF8B481B8F807
:100E00000090B9F1400F34BF4C464024284621469B
:100E1000FFF73AFDC4EB09039BB2A8F800300BB909
:100E2000402C00D12B193360634B1A88B2F5A06FA8
:100E300004D100225A709A78644B1A7001225D4BDB
:100E40006CE004EBC806013D736802F00802A3F1F0
:100E50000800EDB202F0FF01002A36D000F032F9AE
:100E60005B485C4B50F82520EAB1516840F82510EA
:100E700002F108017160595D03290BD8DFE801F028
:100E800002040608032104E0022102E0052100E03B
:100E90000421595516F0080F12880CBF8823C82367
:100EA00043EA024342E05A5D032A07D8DFE802F032
:100EB00040400204002206E0012204E016F0080F80
:100EC0000CBF022203225A5532E054F83820120C8B
:100ED00023F8082C22B3DFF82CE123F8061C43F892
:100EE000041C5EF825303C4913B94EF8250002E099
:100EF00051F825305860394B41F8250033F815106A
:100F00000A4423F8152000F0BFF810B108307060D3
:100F100006E0334B44F838001A7801321A7007E0C3
:100F2000284B304A16F0080F08BF134644F83830F3
:100F300008233B7074E5E0071FD51E4929482A4C59
:100F400002230B70294B1A70294B186098602948AE
:100F5000D8601A619A615C60144B0D2018702648A5
:100F6000FF2303702B700274244A1370244B9F22BA
:100F70001A7001230B70BDE8F88F210604D50B4BC6
:100F80000D221A7080232B70A20705D51A4B1A78F0
:100F9000D2B21A7002232B70E30644BF10232B70C9
:100FA000BDE8F88F103000000892FF1FC0200740F6
:100FB000EC91FF1F94200740E491FF1F0094FF1F56
:100FC0008191FF1FC80040001891FF1F9820074023
:100FD000C491FF1F2C91FF1F1C91FF1FF893FF1F4F
:100FE000EE91FF1F880040003091FF1F8091FF1F8E
:100FF0000080FF1F8491FF1F882007408C2007403E
:10100000842007407091FF1F08B501F043F90022CA
:101010001A4B0021D15098180832882A4160F7D124
:10102000174A106840F48020106002F528326832B8
:10103000C3F307201070C3F307401B0E107513761F
:10104000FF2302F81C3C02F8143C02F88C3C0123FC
:1010500002F8083C82F8641002F8183C094B702230
:101060006FF450711A700B444FF400721A6003F160
:10107000C04303F5C82310221A7008BD0080FF1F6B
:101080003480044049E400E072B60C4A1168B1FAB9
:1010900081F30B2B02D962B6002070474FF000405D
:1010A000D84021EA0001116062B605494822534345
:1010B000C8180022CA504260704700BF6487FF1FF3
:1010C0000084FF1F0C4B4822C31AB3FBF2F30B2B17
:1010D00011D80A4A127822B1094A12780AB1FFF7E8
:1010E00021BC72B6074A4FF0004121FA03F31168A0
:1010F0001943116062B670470084FF1FEE91FF1F15
:10110000F791FF1F6487FF1F10B5104C23686BB168
:1011100020684288531C0244147A0288934212D3F6
:10112000FFF7D0FF094B00221A600DE0084B1B7837
:1011300013B94FF0FF3010BD0320FFF7C5FB20604F
:101140000028E5D1F5E74380204610BD0492FF1F3B
:10115000F791FF1F10B50B4C236813B123686BB9CF
:1011600002E0094B1B7813B94FF0FF3010BD03208C
:10117000FFF7AAFB20600028F0D1F5E75A88134456
:10118000187A10BD0492FF1FF791FF1F044B988837
:10119000044B1B681BB11A885B88D31A184470472C
:1011A000F893FF1F0492FF1F2DE9F8432D4E0123F2
:1011B00007460C463370002C4FD02B4D2B68A946A8
:1011C0002BBB48F60148294B1B7803F0FF020BB9F3
:1011D000327015E00420FFF793FB072808D801239D
:1011E0003370FFF751FFC9F8000080B91D4B18702C
:1011F000B8F101081E4B01D01A782AB101221A70E9
:101200004FF0FF30BDE8F88300F00AF9DBE729680A
:10121000174A488800231370C0F14002944238BF37
:10122000224600F1080C10448C444880A41A9342D2
:1012300004D0F85C0CF803000133F8E71F444B8836
:101240003F2B06D940230B800420FFF7A7FB002388
:101250002B60084B05221A70ADE734702046BDE8BC
:10126000F88300BFFA91FF1FFC91FF1FF791FF1F4A
:101270000092FF1FF991FF1F07B502AB012103F890
:10128000010D1846FFF790FF03B05DF804FBFFFF68
:101290002DE9F041114B1B78F3B1114E114B34681D
:1012A000114D01271F7098464CB1002763882F709D
:1012B000042023802146FFF771FB376009E0FFF728
:1012C000E3FE014620B104202C70FFF767FB00E02D
:1012D0002F70002388F80030BDE8F081F791FF1FE0
:1012E000FC91FF1FFA91FF1FF991FF1F38B50E4BBC
:1012F0001B7803F0FF05ABB90C4C216831B14B886A
:101300000B800420FFF74AFB256038BDFFF7BCFEC9
:10131000014620B10420BDE83840FFF73FBB044B35
:1013200001221A7038BD00BFFA91FF1FFC91FF1F08
:10133000F991FF1F07B5064B1B88ADF80430036811
:1013400001A95B680222984703B05DF804FB00BF67
:10135000DC2F000070B505468AB022B90368C9B217
:101360001B6898472CE0012A08BF0A2221B93022C5
:101370008DF82520212413E02124B1FBF2F002FB9B
:101380001011C9B209290AAE94BF30313731264451
:10139000C9B206F8241C014610B1013CE4B2ECE7E6
:1013A00033B1013CE4B20AAB23442D2203F8242CD0
:1013B0002B6801A95B6828462144C4F122029847A2
:1013C0000AB070BD0029BABF49422D2300230A226A
:1013D000FFF7C0BF08B5FFF799F8FFF799F800F0DD
:1013E0001FF8FAE7FFF7D2BEFFF78EBEFFF7B2BED7
:1013F000FFF74EBF0846FFF73FBF08461146FFF70D
:10140000D3BE7047044B00221A714FF47A711A73DD
:10141000024A99601A6070470C92FF1FE82F000083
:1014200010B50E4C2378BBB901232370FFF7AEFE35
:1014300008B1FFF7E6FF00F041FA08B100F0C5FF80
:1014400000F08CFC08B101F032F800F081FE08B128
:1014500001F09FF80023237010BD00BF1C92FF1FF6
:1014600010B5204B2048214960221A70E1225A70A1
:101470001F4B204A1C78204B082C01D1012402E08C
:101480000A2C03D119240460132005E00C2C0CBF96
:1014900015243D2404601220086014601860174B66
:1014A00017491B78174A03B101230B601360164BD1
:1014B000164A1978164B012901D880210BE004291E
:1014C00001D8842107E0082901D8852103E01029EB
:1014D00094BF86218721116019600E4B01221A707A
:1014E00010BD00BF0040074008B003400CB00340EF
:1014F0006887FF1F08B00B400CB00B401E92FF1F07
:1015000020B0034020B00B406987FF1F24B0034088
:1015100024B00B401D92FF1F024B1A6801321A6063
:10152000704700BF1491FF1F08B50B4C2368580388
:1015300001D5FFF773FA2368590501D500F01EFAAB
:1015400023681A0501D500F069FC2368DB04ECD59B
:1015500000F04AFEE9E700BF3480044008B5FFF719
:10156000E3FFFFFF014B10221A8070470020054067
:101570007047FFFF024A136818441060184670470E
:101580006C87FF1FEFF31383ABB9EFF31083ABB995
:10159000EFF3058323B10F2B05D9094A985C03E0CB
:1015A0004FF4807000E00020EFF311833BB18342E1
:1015B00038BF184670474FF0FF3070470020704723
:1015C000F0E300E0194B1A6842F480621A60184A8E
:1015D00000231370174A1370174A1370174A1370B9
:1015E000174A1370174B40F213321A604FF45172BE
:1015F0005A60154BC0F344321A70C0F347125A7048
:101600000221042200F01F0098729A70D9745A7552
:1016100088221A743C22DA700C4B40226FF44A7113
:101620001A700B444FF400521A6070473480044023
:10163000A192FF1F2092FF1FA892FF1FA292FF1FDF
:101640001F92FF1F40A0044000A006402DE400E0D0
:10165000134A937800F0030103F0EC030B434107B6
:1016600048BF43F01003937000F00F03042B0C49A4
:1016700003D18B7943F040038B715379C20603F099
:10168000EF03074A48BF43F0100353719379810673
:1016900003F0EF0348BF43F010039371704700BF9E
:1016A00000A0064008B50E4B1B685B0500D408BDC2
:1016B0000C4B1A7802F0FF0312B1FFF7B1FEF7E707
:1016C000094A4FF400511160084A0949D37040F2A9
:1016D00003120A604A60074A1370074A137008BD74
:1016E000348004401F92FF1F84E100E000A0064008
:1016F00040A00440A192FF1F2092FF1F38B504466E
:10170000094B1B7803F0FF05002BF9D1204601217E
:10171000FFF71CF820462946FEF7EAFF034B53F873
:101720003420034B1A6038BD1F92FF1FCC2E0000DF
:10173000A492FF1FF8B51D4B1B685A05064633D50A
:101740001B4B1B680BB101221A701A4B1C78013419
:10175000402C1F4628BF0024174D2B78A34218D1D8
:10176000FFF710FF40280FDC144A13791B06F3D54E
:101770002B7813490133402B28BF0023C95CDBB20F
:10178000C9B2D1712B70E7E7FF28E5DDFFF748FE0E
:10179000E2E70B4BF6B21E550A4B01221A70074BBB
:1017A000E4B2BC223C70DA70F8BD00BF3480044063
:1017B000A492FF1FA892FF1FA292FF1F00A0064045
:1017C0002192FF1F1F92FF1F274B1B685A052DE90F
:1017D000F04707468A4644D5244B1B680BB10122CB
:1017E0001A703D4607EB0A039D4237D2DFF890801E
:1017F0001F4E98F8004096F800900134402C28BF06
:1018000000245FFA89F9A1451DD11A4BBC22DA7078
:10181000FFF7B8FE40280FDC164A13791B060FD5D8
:10182000337815490133402B28BF0023C95CDBB254
:10183000C9B2D171337003E0FF2801DDFFF7F0FD7D
:1018400033784B45E4D00C4B15F8012B1A550B4B54
:101850000122E4B21A7088F80040C3E7054BBC22AD
:10186000DA70BDE8F08700BF34800440A492FF1F07
:10187000A292FF1F00A006402192FF1F1F92FF1F90
:10188000A892FF1F08B5034B1B7813B1FFF7C8FDE3
:10189000F9E708BD1F92FF1F064A074B1B78107817
:1018A000DBB2C0B283422CBF3F3000F1FF30C01A20
:1018B000704700BFA292FF1FA892FF1F054B187828
:1018C000054B1B78C0B2DBB2984238BF4030C01A1B
:1018D000704700BFA192FF1F2092FF1F094B0A4AC9
:1018E00019781378DBB2994208D00133402B28BF16
:1018F00000230649C85CDBB2137070474FF0FF301D
:10190000704700BFA192FF1F2092FF1F6192FF1F2F
:10191000084B1A78084B1B78DBB29A4207D0013388
:10192000402B28BF0023054AD05CC0B270474FF05F
:10193000FF307047A192FF1F2092FF1F6192FF1F8F
:101940000A4B1B685B050FD5094BDA7802F0CB0216
:10195000DA7040225A74DA7842F03402DA70054BB9
:101960001A78054BD2B21A70704700BF3480044019
:1019700000A006402092FF1FA192FF1F30B5304B00
:101980001A7912F0300F23D072B69A7D02F0FF015F
:1019900022B9DA7940225A7462B619E062B6294B4C
:1019A00029481A780478D2B2E4B21846244BDD797B
:1019B000531C402B28BF0023A342EDB202D0234A80
:1019C000D5541A464B1E13F0FF01EFD1D2B202706C
:1019D0001B4BD978C9B20C0620D51B7918061DD52A
:1019E0001B4B1C4A1D781378EDB2DBB21046AB429C
:1019F0000CD0134A0133402B1479174C28BF002315
:101A0000E45CE4B2D471127D072AF0D9DBB2037032
:101A10000B4B1A79120644BF7C22DA704B060ED5A6
:101A2000074B1A7912F0400F194608D00B4B0022D1
:101A30001A700B4B1B6803B11A703C23CB7030BD7E
:101A400000A00640A192FF1F2092FF1F6192FF1F7E
:101A5000A892FF1FA292FF1F2192FF1F1F92FF1F3C
:101A6000A492FF1F194B1A6842F400621A60184AC8
:101A700000231370174A1370174A1370174A137014
:101A8000174A1370174B40F213321A604FF4517219
:101A90005A60154BC0F344321A70C0F347125A70A3
:101AA00000F01F000422022198729A70D9745A75AE
:101AB00088221A743C22DA700C4B40221A70A3F26E
:101AC0002B334FF400421A60704700BF348004404B
:101AD0001393FF1FAA92FF1F1C93FF1F1493FF1F56
:101AE000A992FF1F0CB0044000B006402FE400E0B4
:101AF000134A937800F0030103F0EC030B43410712
:101B000048BF43F01003937000F00F03042B0C49FF
:101B100003D18B7943F040038B715379C20603F0F4
:101B2000EF03074A48BF43F01003537193798106CE
:101B300003F0EF0348BF43F010039371704700BFF9
:101B400000B0064008B50E4B1B681B0500D408BD4D
:101B50000C4B1A7802F0FF0312B1FFF761FCF7E7B4
:101B6000094A4FF400411160084A0949D37040F214
:101B700003120A604A60074A1370074A137008BDCF
:101B800034800440A992FF1F84E100E000B00640C9
:101B90000CB004401393FF1FAA92FF1F38B50446F0
:101BA000094B1B7803F0FF05002BF9D120460121DA
:101BB000FEF7CCFD20462946FEF79AFD034B53F86D
:101BC0003420034B1A6038BDA992FF1FCC2E0000B1
:101BD0001893FF1FF8B51D4B1B681A05064633D531
:101BE0001B4B1B680BB101221A701A4B1C78013475
:101BF000282C1F4628BF0024174D2B78A34218D14C
:101C0000FFF7C0FC40280FDC144A13791B06F3D5FC
:101C10002B7813490133282B28BF0023C95CDBB282
:101C2000C9B2D1712B70E7E7FF28E5DDFFF7F8FBBC
:101C3000E2E70B4BF6B21E550A4B01221A70074B16
:101C4000E4B2BC223C70DA70F8BD00BF34800440BE
:101C50001893FF1F1C93FF1F1493FF1F00B0064033
:101C6000AB92FF1FA992FF1F274B1B681A052DE996
:101C7000F04707468A4644D5244B1B680BB1012226
:101C80001A703D4607EB0A039D4237D2DFF8908079
:101C90001F4E98F8004096F800900134282C28BF79
:101CA00000245FFA89F9A1451DD11A4BBC22DA70D4
:101CB000FFF768FC40280FDC164A13791B060FD586
:101CC000337815490133282B28BF0023C95CDBB2C8
:101CD000C9B2D171337003E0FF2801DDFFF7A0FB2B
:101CE00033784B45E4D00C4B15F8012B1A550B4BB0
:101CF0000122E4B21A7088F80040C3E7054BBC2209
:101D0000DA70BDE8F08700BF348004401893FF1FED
:101D10001493FF1F00B00640AB92FF1FA992FF1F54
:101D20001C93FF1F08B5034B1B7813B1FFF778FB1B
:101D3000F9E708BDA992FF1F064A074B1B781078E8
:101D4000DBB2C0B283422CBF273000F1FF30C01A93
:101D5000704700BF1493FF1F1C93FF1F054B18789B
:101D6000054B1B78C0B2DBB2984238BF4030C01A76
:101D7000704700BF1393FF1FAA92FF1F094B0A4A27
:101D800019781378DBB2994208D00133402B28BF71
:101D900000230649C85CDBB2137070474FF0FF3078
:101DA000704700BF1393FF1FAA92FF1FD392FF1F1C
:101DB000084B1A78084B1B78DBB29A4207D00133E4
:101DC000402B28BF0023054AD05CC0B270474FF0BB
:101DD000FF3070471393FF1FAA92FF1FD392FF1F7C
:101DE0000A4B1B681B050FD5094BDA7802F0CB02B2
:101DF000DA7040225A74DA7842F03402DA70054B15
:101E00001A78054BD2B21A70704700BF3480044074
:101E100000B00640AA92FF1F1393FF1F30B5304B4E
:101E20001A7912F0300F23D072B69A7D02F0FF01BA
:101E300022B9DA7940225A7462B619E062B6294BA7
:101E400029481A780478D2B2E4B21846244BDD79D6
:101E5000531C402B28BF0023A342EDB202D0234ADB
:101E6000D5541A464B1E13F0FF01EFD1D2B20270C7
:101E70001B4BD978C9B20C0620D51B7918061DD585
:101E80001B4B1C4A1D781378EDB2DBB21046AB42F7
:101E90000CD0134A0133282B1479174C28BF002388
:101EA000E45CE4B2D471127D072AF0D9DBB203708E
:101EB0000B4B1A79120644BF7C22DA704B060ED502
:101EC000074B1A7912F0400F194608D00B4B00222D
:101ED0001A700B4B1B6803B11A703C23CB7030BDDA
:101EE00000B006401393FF1FAA92FF1FD392FF1F5B
:101EF0001C93FF1F1493FF1FAB92FF1FA992FF1F9C
:101F00001893FF1F174B1A6842F480521A60164A42
:101F100000231370154A1370154A1370154A137075
:101F2000154A1370154A40F2133111604FF4517184
:101F30005160134AC0F344311170C0F3471100F0EF
:101F40001F0051709072937013742C23D3700D4B3B
:101F500040226FF44B711A700B444FF400321A6038
:101F6000704700BF348004408793FF1F1E93FF1FFC
:101F70009093FF1F8893FF1F1D93FF1F08C004400D
:101F800000C0064031E400E0134A937800F00301FA
:101F900003F0EC030B43410748BF43F01003937079
:101FA00000F00F03042B0C4903D18B7943F040035D
:101FB0008B715379C20603F0EF03074A48BF43F021
:101FC000100353719379810603F0EF0348BF43F088
:101FD00010039371704700BF00C0064008B50E4B58
:101FE0001B68DB0400D408BD0C4B1A7802F0FF0319
:101FF00012B1FFF715FAF7E7094A4FF40031116003
:10200000084A0949D37040F203120A604A60074A3D
:102010001370074A137008BD348004401D93FF1FDE
:1020200084E100E000C0064008C004408793FF1F21
:102030001E93FF1F38B50446094B1B7803F0FF05BC
:10204000002BF9D120460121FEF780FB20462946CE
:10205000FEF74EFB034B53F83420034B1A6038BD98
:102060001D93FF1FCC2E00008C93FF1FF8B51D4B56
:102070001B68DA04064633D51B4B1B680BB10122E3
:102080001A701A4B1C780134282C1F4628BF0024D4
:10209000174D2B78A34218D1FFF774FA40280FDCB4
:1020A000144A13791B06F3D52B7813490133282BD7
:1020B00028BF0023C95CDBB2C9B2D1712B70E7E73E
:1020C000FF28E5DDFFF7ACF9E2E70B4BF6B21E5552
:1020D0000A4B01221A70074BE4B2AC223C70DA7052
:1020E000F8BD00BF348004408C93FF1F9093FF1F06
:1020F0008893FF1F00C006401F93FF1F1D93FF1F03
:1021000038B504464518AC4204D014F8010BFFF76B
:10211000ADFFF8E738BDFFFF08B5034B1B7813B1DF
:10212000FFF77EF9F9E708BD1D93FF1F064A074B2D
:102130001B781078DBB2C0B283422CBF273000F18D
:10214000FF30C01A704700BF8893FF1F9093FF1F96
:10215000054B1878054B1B78C0B2DBB2984238BFEC
:102160004030C01A704700BF8793FF1F1E93FF1FA8
:10217000094B0A4A19781378DBB2994208D0013327
:10218000402B28BF00230649C85CDBB213707047A0
:102190004FF0FF30704700BF8793FF1F1E93FF1F54
:1021A0004793FF1F084B1A78084B1B78DBB29A4203
:1021B00007D00133402B28BF0023054AD05CC0B2B2
:1021C00070474FF0FF3070478793FF1F1E93FF1F2C
:1021D0004793FF1F024B1A78024BD2B21A70704716
:1021E0001E93FF1F8793FF1F10B5214B1A7992068C
:1021F0000FD5204AD87913781F490133402B09782D
:1022000028BF00238B42C0B203D01C49C854DBB2A4
:102210001370174AD178C9B20C0616D5137918066F
:1022200013D5174B17481C780378DBB29C4202D1B8
:102230006C23D37009E00133282B28BF0023124CF4
:10224000E45CDBB2E4B2D47103704B060ED5084BEC
:102250001A7912F0400F194608D00C4B00221A7060
:102260000B4B1B6803B11A702C23CB7010BD00BF41
:1022700000C006408793FF1F1E93FF1F4793FF1F59
:102280009093FF1F8893FF1F1F93FF1F1D93FF1F36
:102290008C93FF1F1FB572B6154B70221A70154A2A
:1022A000412111700F2102F8011C80221A701A7846
:1022B0001206FCD5104B186862B6104B984298BFB6
:1022C0000A2301AC98BF584321460A22FEF7E1F9E0
:1022D0000023E15C0A4A29B102EB430001330A2BD7
:1022E0004180F6D101335B00137004B010BD00BF14
:1022F0000000024007000240080002407F9698005C
:10230000F887FF1F08B50368C9B21B68984708BD66
:1023100008B50368C9B21B68984708BD08B50368CB
:10232000C9B21B68984708BD08B50368C9B21B68E5
:10233000984708BD034800EB5100B0FBF1F0FFF7F0
:1023400041B900BF0044950810B5064800EB5100A4
:102350001446B0FBF1F0FFF735F92046BDE8104018
:10236000FFF776B900449508FFF79CB90846FFF7D8
:10237000C5B9FFF7A3BAFFF7CBBAFFF7AFBAFFF7BC
:1023800081BAFFF7DDBAFFF787BA08B50846FFF74D
:10239000D1F9012008BD08B50846FFF7CBF90120A7
:1023A00008BD10B5084614461146FFF70DFA204641
:1023B00010BD38B508460D46FEF764F904462146BF
:1023C0002846FFF701FA204638BD7047044B00222B
:1023D0001A714FF47A711A73024A99601A60704741
:1023E0009493FF1F6030000008B50368C9B21B68F2
:1023F000984708BD08B50368C9B21B68984708BD6F
:1024000008B50368C9B21B68984708BD08B50368DA
:10241000C9B21B68984708BD034800EB5100B0FBE8
:10242000F1F0FFF71FBB00BF0044950810B5064848
:1024300000EB51001446B0FBF1F0FFF713FB204610
:10244000BDE81040FFF754BB00449508FFF77ABB86
:102450000846FFF7A3BBFFF781BCFFF7A9BCFFF756
:102460008DBCFFF75FBCFFF7BBBCFFF765BC08B5D1
:102470000846FFF7AFFB012008BD08B50846FFF787
:10248000A9FB012008BD10B5084614461146FFF708
:10249000EBFB204610BD38B508460D46FEF7F2F8B6
:1024A000044621462846FFF7DFFB204638BD70472B
:1024B000044B00221A714FF47A711A73024A996020
:1024C0001A607047A493FF1FB030000008B503687E
:1024D000C9B21B68984708BD08B50368C9B21B6834
:1024E000984708BD08B50368C9B21B68984708BD7E
:1024F00008B50368C9B21B68984708BD034800EBDC
:102500005100B0FBF1F0FFF7FDBC00BF00A24A0490
:1025100010B5064800EB51001446B0FBF1F0FFF790
:10252000F1FC2046BDE81040FFF72EBD00A24A0492
:10253000FFF754BD0846FFF77DBDFFF709BEFFF763
:1025400031BEFFF715BEFFF7E7BDFFF743BEFFF74C
:10255000EDBD08B50846FFF789FD012008BD08B5A7
:102560000846FFF783FD012008BD10B50846144654
:102570001146FFF7C5FD204610BD38B508460D468B
:10258000FEF780F8044621462846FFF7B9FD2046AD
:1025900038BD7047044B00221A714FF47A711A73D8
:1025A000024A99601A607047B493FF1F003100001F
:1025B00003460846194600F001B800BF10B40C46A7
:1025C00013460146224602205DF8044B00F0E2BAB1
:1025D00070B50F4E0F4D761BB61007D0043D00248A
:1025E000013455F8043F9847A642F9D10A4E0B4DE5
:1025F000761B00F0ADFDB61008D0043D0024013478
:1026000055F8043F9847A642F9D170BD70BD00BF90
:102610005C3100005C310000783100005C3100006A
:10262000024B0146186800F003B800BF388CFF1F4A
:102630002DE9F04F01F10B05162D83B0064627D981
:1026400035F0070527D4A94225D8304600F08CFA8A
:10265000B5F5FC7F26D2C14F4FEAD50C07EBCC0372
:10266000DC689C4200F0D2816368E268A16823F0D4
:102670000303234430465D68CA6045F0010591605C
:102680005D6000F073FA0834204603B0BDE8F08FB7
:102690001025A942D9D900240C232046336003B069
:1026A000BDE8F08F5FEA552C00F08A80BCF1040F82
:1026B00000F260814FEA951C0CF1380C4FEA4C0196
:1026C000A64F07EB8101CC68A14205D10CE0002B9D
:1026D0007ADAE468A14207D0626822F00302531B51
:1026E0000F2BF4DD0CF1FF3C0CF1010C9B4B3C6912
:1026F00003F1080E744500F07E81616821F003014A
:102700004A1B0F2A00F36481002AC3F814E0C3F8BF
:1027100010E06ADAB1F5007F80F03A81C90803EB76
:10272000C1004FEAA1085A688168A1604FF0010911
:1027300009FA08F848EA0202E0605A608460CC6056
:102740004FEAAC030120984090425BD8024206D188
:102750002CF0030C400002420CF1040CFAD007EB01
:10276000CC084446E146E3689C4207D145E1002A93
:1027700080F25681DB689C4200F03F81596821F06D
:1027800003014A1B0F2AF2DD1C46D3F80CC054F893
:10279000088F591945F0010942F00105C3F804906A
:1027A0003046C8F80CC0CCF8088079613961C1F8AE
:1027B0000CE0C1F808E04D608A5000F0D7F963E7FB
:1027C0007E214FF03F0C7BE72244E3685068A1680C
:1027D00040F00105CB6030469960556000F0C6F9C5
:1027E0000834204603B0BDE8F08F214430464B68E2
:1027F00043F001034B6000F0B9F90834204603B000
:10280000BDE8F08FBC68636823F00309A94504D3D1
:10281000C5EB09030F2B00F39180514B514A196806
:102820001368013305EB010A04EB090B00F0618129
:102830000AF5805A0AF10F0A2AF47F6A2AF00F0A71
:1028400030465146019200F093F9B0F1FF3F8046C7
:10285000019A00F00081834500F2FA80DFF810C190
:10286000DCF80030C3455344CCF8003000F04A8116
:1028700012683C4901321BBFCBEB080B5B44C1F82B
:102880000080CCF8003018F0070300F01381C3F18A
:102890000802C3F5805390440833C244CAF30B0ABC
:1028A000CAEB030A51463046CDF804C000F060F987
:1028B000431CDDF804C000F03581C8EB000252442F
:1028C00042F00102DCF80030C7F808805344BC42F3
:1028D000C8F80420CCF80030DFF894A015D0B9F186
:1028E0000F0F40F2EA806168A9F10C0222F00702A2
:1028F00001F0010EA118052042EA0E0E0F2AC4F8BD
:1029000004E04860886000F21181174ABC681168D1
:102910008B4288BF1360154A11688B4288BF1360D1
:10292000626822F003029542C5EB020301D80F2B27
:1029300004DC304600F01AF90024A5E6621943F0E1
:10294000010345F0010565603046BA60536000F050
:102950000DF90834204603B0BDE8F08F3C8CFF1F12
:10296000CC93FF1F4890FF1FC893FF1FC493FF1F06
:10297000D093FF1FBCF1140F61D9BCF1540F00F2CA
:102980008F804FEA153C0CF16E0C4FEA4C0197E634
:102990004B0A042B58D9142B00F2AE8003F15B02D2
:1029A000500007EB8000DFF8BC818368834200F0B1
:1029B0008A805A6822F00302914202D29B689842B0
:1029C000F7D1D9687A68E160A3608C60DC60B7E613
:1029D000611942F0010745F0010565603046596113
:1029E0001961C1F80CE0C1F808E04F608A50083462
:1029F00000F0BCF848E65A68A2E609F1010919F0AE
:102A0000030F04F108047FF4AEAE2DE004F10803D7
:102A10006469A34208BF0CF1020C3FF467AE23E6E1
:102A200019441C464868DB6854F8082F40F001053B
:102A30004D603046D3609A6000F098F824E60CF1BF
:102A40005B0C4FEA4C013BE68A0938325000A8E79C
:102A5000BC423FF403AFBC68626822F0030262E745
:102A6000D8F8008098457BD11CF0030FA8F108032B
:102A70000CF1FF3CF4D17B6823EA00037B6040004B
:102A800098423FF6BFAE00283FF4BCAE0342CC46AE
:102A90007FF465AE400003420CF1040CFAD05EE610
:102AA000BCF5AA7F1AD84FEAD53C0CF1770C4FEA57
:102AB0004C0105E64FF48053EFE60123C8F80430DB
:102AC000444600222FE791100120D8F8042000FA94
:102AD00001F10A43C8F80420194674E740F2545340
:102AE0009C451BD84FEA954C0CF17C0C4FEA4C01ED
:102AF000E6E50AF1100AA3E6542B1FD80A0B6E3242
:102B000050004EE7CBF30B0100297FF4B1AE0AEB86
:102B10000901BA6841F001015160F6E6FC214FF06D
:102B20007E0CCDE501224FF0000ACBE604F108014E
:102B3000304600F0F9F8DAF80030E6E6B3F5AA7F9F
:102B400003D8CA0B773250002BE740F2545293421D
:102B500003D88A0C7C32500023E7FC207E2220E739
:102B60007B688CE73C8CFF1F704700BF704700BF3D
:102B700038B5074C0023054608462360FEF7FAFCEB
:102B8000431C00D038BD2368002BFBD02B6038BD20
:102B90000894FF1FF0B5274C2668D6F8484185B049
:102BA0000746002C41D065681F2D1EDD224818B94C
:102BB0004FF0FF3005B0F0BD4FF4C87003910292A2
:102BC0000193FFF72DFD0399029A019B044600280B
:102BD000EED0D6F848512560002060600546C6F862
:102BE0004841C4F88801C4F88C013FB9AB1C0020EF
:102BF0000135656044F8231005B0F0BD04EB850095
:102C00004FF0010CC0F88820D4F888610CFA05F266
:102C10001643022FC4F88861C0F80831E6D1D4F811
:102C20008C311A43C4F88C21E0E706F5A674C6F887
:102C30004841B8E74C31000021260000024B13B197
:102C4000024800F005B87047000000005D2C00004D
:102C50000146002002460346FFF79CBF38B5094DE8
:102C6000094C641BA41018BF05EB840505D0013C7A
:102C700055F8043D9847002CF9D1BDE8384000F0E4
:102C80007BBA00BF0000000000000000F8B5234D33
:102C90000F460446FFF768FFAB685E6826F0030640
:102CA000F11B01F6EF7121F47F6121F00F01A1F515
:102CB0008057B7F5805F07DB20460021FFF758FFFC
:102CC000AB683344984204D02046FFF74FFF002002
:102CD000F8BD20467942FFF74BFF01300DD0104B75
:102CE000AA681968F61B46F001062046C91B566003
:102CF0001960FFF73BFF0120F8BD20460021FFF7D8
:102D000037FFAB68C21A0F2ADEDD064D04492D6875
:102D100042F00102401B5A600860D5E73C8CFF1F5F
:102D2000D093FF1F4890FF1F2DE9F0410D46064646
:102D3000002955D0FFF718FF55F8041CDFF874C1BF
:102D400021F00103A5F10804E218DCF80800576837
:102D5000904227F0030769D011F00101576032D08B
:102D60000021D0194068C00706D43B449068002970
:102D70004ED0D268C260906043F001026260E350BE
:102D8000E1B9B3F5007F2DD35A0A042A6AD898090D
:102D9000383041000CEB810C4649DCF808206245D4
:102DA00066D0516821F003018B4202D292689445AB
:102DB000F7D1D368E360A2609C60D4603046BDE880
:102DC000F041FFF7D3BE55F8085C641B0CF108080E
:102DD000A06840452B4443D0E568C560A860C0E7C3
:102DE000BDE8F081DB080CEBC3020125DCF8040030
:102DF0009168A1609B1005FA03F31843E260CCF8D8
:102E0000040094603046CC60BDE8F041FFF7AEBEF0
:102E1000294DA842ADD143F00102CCF81440CCF8C2
:102E20001040E060A0606260E350C7E71F44CB073A
:102E300007D455F8083CE41A1F44A268E368D3603D
:102E40009A601E4B1B6847F001029F426260CCF8FB
:102E50000840B3D31A4B30461968FFF717FFADE7A8
:102E600001217EE7142A0CD802F15B00410091E7B2
:102E70004B688010012505FA00F003434B601346B0
:102E800098E7542A03D8180B6E30410082E7B2F558
:102E9000AA7F03D8D80B773041007BE740F254512A
:102EA0008A4203D8980C7C30410073E7FC217E20D5
:102EB00070E700BF3C8CFF1F448CFF1F4490FF1F36
:102EC000CC93FF1F28002C20002900FF4008FE4360
:102ED00040A004404408FE4344A004400018FE43C0
:102EE00000C004403000FE43309004403400FE43F4
:102EF000349004401C18FE431CC004401018FE43CC
:102F000010C004400818FE4308C004400C18FE43DB
:102F10000CC004400C10FE430CB004401010FE43E3
:102F200010B004401810FE4318B004401C10FE43BB
:102F30001CB004401410FE4314B004400418FE43B7
:102F400004C004400010FE4300B004400008FE43EB
:102F500000A004400408FE4304A004400C08FE4303
:102F60000CA004400808FE4308A004401418FE43C7
:102F700014C004401818FE4318C004400410FE4357
:102F800004B004400810FE4308B004401400FE439F
:102F9000149004404C08FE434CA004400420FE431F
:102FA00004D004402410FE4324B004402010FE430B
:102FB00020B004402810FE4328B004402C10FE43EB
:102FC0002CB004400020FE4300D004404808FE43DB
:102FD00048A004401000FE43109004400D0AFFFF7B
:102FE0000000000000000000F5130000FB130000CB
:102FF000E5130000E9130000ED130000F1130000D9
:1030000000151915000100007087FF1F1200000055
:10301000000200009A87FF1F430000000003000029
:10302000F487FF1F00000000010309048287FF1FCF
:103030000000000002030904DE87FF1F00000000FB
:1030400003030904F887FF1F0000000000000000D0
:103050000000000000000000000000000000000070
:103060008B230000A3230000732300007B230000B8
:10307000772300007F230000352300004923000050
:10308000692300006D2300008323000087230000D4
:1030900005230000112300001D2300002923000048
:1030A000B323000097230000000000000000000090
:1030B0006F24000087240000572400005F240000D4
:1030C0005B24000063240000192400002D2400006C
:1030D0004D24000051240000672400006B240000F0
:1030E000E9230000F5230000012400000D24000066
:1030F000972400007B240000000000000000000076
:10310000532500006B2500003B25000043250000EF
:103110003F25000047250000FD2400001125000088
:1031200031250000352500004B2500004F2500000B
:10313000CD240000D9240000E5240000F124000083
:103140007B2500005F250000430000001088FF1F62
:10315000F8B500BFF8BC08BC9E4670473D2C000087
:1031600035040000C505000005140000CD23000053
:08317000B124000095250000C8
:04317800F8B500BFE7
:08317C0034F4FF7F01000000A4
:1031840000000000FFFFFFFF0A0400000C94FF1F73
:103194001201000202000040C01683040001010273
:1031A400030118035400650065006E007300790084
:1031B4006400750069006E006F000902430002019B
:1031C40000C03209040000010202010005240010BD
:1031D4000105240101010424020605240600010757
:1031E40005820310004009040100020A00000007E0
:1031F4000503024000000705840240000000160396
:10320400550053004200200053006500720069001D
:1032140061006C00040309040C03000000000000BA
:10322400000000000000000000000000000000009A
:1032340000000000FC8AFF1F648BFF1FCC8BFF1F64
:10324400000000000000000000000000000000007A
:10325400000000000000000000000000000000006A
:1032640000000000483100000000000000000000E1
:10327400000000000000000000000000000000004A
:10328400000000000000000000000000000000003A
:10329400000000000000000000000000000000002A
:1032A400000000000000000000000000000000001A
:1032B400000000000000000000000000000000000A
:1032C40000000000000000000000000000000000FA
:1032D40000000000000000000100000000000000E9
:1032E4000E33CDAB34126DE6ECDE05000B000000AE
:1032F40000000000000000000000000000000000CA
:1033040000000000000000000000000000000000B9
:1033140000000000000000000000000000000000A9
:103324000000000000000000000000000000000099
:1036540000000000000000001088FF1F00000000B0
:10366400000000003C8CFF1F3C8CFF1F448CFF1F9C
:10367400448CFF1F4C8CFF1F4C8CFF1F548CFF1F6E
:10368400548CFF1F5C8CFF1F5C8CFF1F648CFF1F1E
:10369400648CFF1F6C8CFF1F6C8CFF1F748CFF1FCE
:1036A400748CFF1F7C8CFF1F7C8CFF1F848CFF1F7E
:1036B400848CFF1F8C8CFF1F8C8CFF1F948CFF1F2E
:1036C400948CFF1F9C8CFF1F9C8CFF1FA48CFF1FDE
:1036D400A48CFF1FAC8CFF1FAC8CFF1FB48CFF1F8E
:1036E400B48CFF1FBC8CFF1FBC8CFF1FC48CFF1F3E
:1036F400C48CFF1FCC8CFF1FCC8CFF1FD48CFF1FEE
:10370400D48CFF1FDC8CFF1FDC8CFF1FE48CFF1F9D
:10371400E48CFF1FEC8CFF1FEC8CFF1FF48CFF1F4D
:10372400F48CFF1FFC8CFF1FFC8CFF1F048DFF1FFC
:10373400048DFF1F0C8DFF1F0C8DFF1F148DFF1FA9
:10374400148DFF1F1C8DFF1F1C8DFF1F248DFF1F59
:10375400248DFF1F2C8DFF1F2C8DFF1F348DFF1F09
:10376400348DFF1F3C8DFF1F3C8DFF1F448DFF1FB9
:10377400448DFF1F4C8DFF1F4C8DFF1F548DFF1F69
:10378400548DFF1F5C8DFF1F5C8DFF1F648DFF1F19
:10379400648DFF1F6C8DFF1F6C8DFF1F748DFF1FC9
:1037A400748DFF1F7C8DFF1F7C8DFF1F848DFF1F79
:1037B400848DFF1F8C8DFF1F8C8DFF1F948DFF1F29
:1037C400948DFF1F9C8DFF1F9C8DFF1FA48DFF1FD9
:1037D400A48DFF1FAC8DFF1FAC8DFF1FB48DFF1F89
:1037E400B48DFF1FBC8DFF1FBC8DFF1FC48DFF1F39
:1037F400C48DFF1FCC8DFF1FCC8DFF1FD48DFF1FE9
:10380400D48DFF1FDC8DFF1FDC8DFF1FE48DFF1F98
:10381400E48DFF1FEC8DFF1FEC8DFF1FF48DFF1F48
:10382400F48DFF1FFC8DFF1FFC8DFF1F048EFF1FF7
:10383400048EFF1F0C8EFF1F0C8EFF1F148EFF1FA4
:10384400148EFF1F1C8EFF1F1C8EFF1F248EFF1F54
:10385400248EFF1F2C8EFF1F2C8EFF1F348EFF1F04
:10386400348EFF1F3C8EFF1F3C8EFF1F448EFF1FB4
:10387400448EFF1F4C8EFF1F4C8EFF1F548EFF1F64
:10388400548EFF1F5C8EFF1F5C8EFF1F648EFF1F14
:10389400648EFF1F6C8EFF1F6C8EFF1F748EFF1FC4
:1038A400748EFF1F7C8EFF1F7C8EFF1F848EFF1F74
:1038B400848EFF1F8C8EFF1F8C8EFF1F948EFF1F24
:1038C400948EFF1F9C8EFF1F9C8EFF1FA48EFF1FD4
:1038D400A48EFF1FAC8EFF1FAC8EFF1FB48EFF1F84
:1038E400B48EFF1FBC8EFF1FBC8EFF1FC48EFF1F34
:1038F400C48EFF1FCC8EFF1FCC8EFF1FD48EFF1FE4
:10390400D48EFF1FDC8EFF1FDC8EFF1FE48EFF1F93
:10391400E48EFF1FEC8EFF1FEC8EFF1FF48EFF1F43
:10392400F48EFF1FFC8EFF1FFC8EFF1F048FFF1FF2
:10393400048FFF1F0C8FFF1F0C8FFF1F148FFF1F9F
:10394400148FFF1F1C8FFF1F1C8FFF1F248FFF1F4F
:10395400248FFF1F2C8FFF1F2C8FFF1F348FFF1FFF
:10396400348FFF1F3C8FFF1F3C8FFF1F448FFF1FAF
:10397400448FFF1F4C8FFF1F4C8FFF1F548FFF1F5F
:10398400548FFF1F5C8FFF1F5C8FFF1F648FFF1F0F
:10399400648FFF1F6C8FFF1F6C8FFF1F748FFF1FBF
:1039A400748FFF1F7C8FFF1F7C8FFF1F848FFF1F6F
:1039B400848FFF1F8C8FFF1F8C8FFF1F948FFF1F1F
:1039C400948FFF1F9C8FFF1F9C8FFF1FA48FFF1FCF
:1039D400A48FFF1FAC8FFF1FAC8FFF1FB48FFF1F7F
:1039E400B48FFF1FBC8FFF1FBC8FFF1FC48FFF1F2F
:1039F400C48FFF1FCC8FFF1FCC8FFF1FD48FFF1FDF
:103A0400D48FFF1FDC8FFF1FDC8FFF1FE48FFF1F8E
:103A1400E48FFF1FEC8FFF1FEC8FFF1FF48FFF1F3E
:103A2400F48FFF1FFC8FFF1FFC8FFF1F0490FF1FED
:103A34000490FF1F0C90FF1F0C90FF1F1490FF1F9A
:103A44001490FF1F1C90FF1F1C90FF1F2490FF1F4A
:103A54002490FF1F2C90FF1F2C90FF1F3490FF1FFA
:0C3A64003490FF1F00000200FFFFFFFF76
:00000001FF
