:1000000000800020BD010000911400005D1400007C
:100010005D1400005D1400005D1400005D1400001C
:100020005D1400005D1400005D14000091140000D8
:10003000911400005D140000911400004D140000A4
:10004000911400009114000091140000911400001C
:10005000911400009114000091140000911400000C
:1000600091140000911400009114000091140000FC
:1000700091140000911400009114000091140000EC
:1000800091140000911400009114000091140000DC
:1000900091140000911400009114000091140000CC
:1000A00091140000911400009114000091140000BC
:1000B00091140000911400009114000091140000AC
:1000C000911400009114000091140000911400009C
:1000D000911400009114000091140000911400008C
:1000E000911400009114000091140000911400007C
:1000F00091140000B118000091140000511D00007F
:10010000911400001D2100009114000091140000C2
:10011000911400009114000091140000911400004B
:10012000911400009114000091140000911400003B
:10013000911400009114000091140000911400002B
:10014000911400009114000091140000911400001B
:10015000911400009114000091140000911400000B
:1001600091140000E50700009114000091140000B4
:1001700091140000911400009114000091140000EB
:1001800091140000911400009114000091140000DB
:1001900091140000911400009114000091140000CB
:1001A00091140000911400009114000091140000BB
:1001B000911400009114000091140000554B4CF272
:1001C000205210B51A804DF628121A8000BF00BFC9
:1001D00001F062F9504B4FF010621A604F4A9A607A
:1001E0004F4ADA60A3F53043203B1A6812F480725C
:1001F00004D14C490A604FF4A8521A604A4B1A784D
:10020000110703D51A7842F008021A70474B2A22C8
:100210001A700023464A47499818884204D2464932
:10022000595899500433F5E7444A454B9A424FF0E8
:10023000000302D242F8043BF7E74249424A5958C8
:1002400099500433B3F5DE7FF7D1404B802103F89A
:10025000011B3F498B42F9D13E4B1A603E4B0A22AB
:100260001A70A3F6FF7324221A70A02203F8012C3F
:100270003A4B1A789207FBD51A78D406FCD41A7830
:1002800002F00C02082AFAD1354B05221A704322DB
:100290005A70324B1A789006FBD51A785106FCD565
:1002A000304B4FF081721A6005225A602E4B20228B
:1002B0001A702A4B1B7803F00C030C2BF9D12B4B33
:1002C0002B4A1A602B4B2C4A1A60072243F8042C45
:1002D00062B600F06FF9134B1B68DA0705D52748A3
:1002E00000F0E8F8264B274A1A60274B1B785B067C
:1002F00009D5234C234A2368934204D11F4800F0B8
:10030000D9F80023236002F04FF901F0CBF801F097
:1003100019F8FEE70E20054030800440823F0400BB
:100320000100002B14D0034002D0074000E007403A
:10033000708CFF1FC496FF1F00320000C496FF1F81
:10034000189AFF1F000000000082FF1F00E400E079
:100350005FE400E008ED00E0005006400640064083
:1003600004400640448004400040064004800440AD
:10037000C010050014E000E03F1901005FC98A5574
:100380001CE00340A5C3945A00F00740FFFFFFFFA5
:10039000FFFFFFFFFFFFFFFFFFFFFFFFFFFFFFFF6D
:1003A000FFFFFFFFFFFFFFFFFFFFFFFFFFFFFFFF5D
:1003B000FFFFFFFFFFFFFFFFFFFFFFFFFFFFFFFF4D
:1003C000FFFFFFFFFFFFFFFFFFFFFFFFFFFFFFFF3D
:1003D000FFFFFFFFFFFFFFFFFFFFFFFFFFFFFFFF2D
:1003E000FFFFFFFFFFFFFFFFFFFFFFFFFFFFFFFF1D
:1003F000FFFFFFFFFFFFFFFFFFFFFFFFFFFFFFFF0D
:10040000FFFFFFFFFFFFFFFFFFFFFFFFFEFFFFFFFD
:1004100010B5054C237833B9044B13B10448AFF33E
:1004200000800123237010BDC496FF1F0000000050
:100430000032000008B5064B1BB106480649AFF371
:1004400000800648036813B1054B03B1984708BD07
:100450000000000000320000C896FF1FC496FF1F76
:1004600000000000704710B528244FF0FF31002233
:10047000022000F003FE192000F088F8013CF4D1BE
:10048000282402200146002200F0F8FD192000F087
:100490007DF8013CF5D128244FF0FF3100226FF0A8
:1004A000030000F0EBFD192000F070F8013CF3D1DF
:1004B00010BDFFFF044B054900221A600A60044A80
:1004C000106010221A60704714D0034004D003401B
:1004D00000D00340212810B518D80D4A52F830300A
:1004E00093F880423CB1012211B183F8802010BD05
:1004F00083F8002110BD02EBC00043681A6811B1F7
:1005000042F0030201E022F002021A6010BD00BFB7
:100510009C2E0000212816D80B4A02EBC0030129AB
:100520005B6852F8302004D182F880124FF4A27236
:1005300008E0002082F8800211B94FF4807201E0D7
:1005400040F203121A6070479C2E000072B60C4BEA
:100550000C491A680C4B1B68096862B6490102D540
:10056000322A88BF0133C2F58C32482102F23F1291
:10057000B2FBF1F24FF47A7000FB0320704700BF2A
:1005800018E000E004ED00E0E096FF1F38B50446F7
:10059000FFF7DCFF054664B1FFF7D8FF401BB0F55D
:1005A0007A7F03D3013C04D005F57A7500F0D2FEC2
:1005B000F2E738BD1F4B4FF4000210B51A604FF040
:1005C00080721A604FF000721A604FF080621A60F9
:1005D0004FF000621A60184B184A194C002048F678
:1005E000FF71186059602823136093601361936151
:1005F00013629362136393630922226004F58054AB
:10060000043420606160A360236144F8042C04F585
:10061000FE2420600B4801600B490B608B600B4B84
:100620001A6000F0B7FE0420FFF7B0FFBDE81040ED
:1006300000F0F4BB08E100E0048003400C800340BC
:100640000080034008800B400C800B4000800B4072
:10065000F0B50C4B0C4C1A7842F0020504EBC506C1
:1006600082F00102706009481A700678002E0CBFF3
:100670008827C82786F0010647EA0141067044F83A
:100680003510F0BD6097FF1F0080FF1FE897FF1F28
:10069000431E052B10B510D872B6094A52F8230034
:1006A00048B1416842F82310064A018832F81340E5
:1006B000611A22F8131062B610BD002010BD00BFF1
:1006C0004897FF1F009AFF1F013805280AD872B605
:1006D000054B53F82030002013B101305B68FBE775
:1006E00062B6704700207047A497FF1F10B572B61E
:1006F0000123174A1A4412F8012C12071CD599003D
:10070000144A52F831402CB902EB431308305860B8
:10071000114B09E041F0010152F8314064B902EB9C
:10072000C103083058600D4B42F831300C4B1A7839
:10073000013A1A7062B610BD0133072BD9D162B6E7
:10074000074B00221A70BDE8104000F075BC00BFD6
:100750000C3000000080FF1F88004000C8004000EF
:10076000DE97FF1F431E052B30B532D8194A4001D2
:1007700040F01000104472B6174CE25C032A09D80E
:10078000DFE802F0160218050830022213E00830F4
:10079000042210E01148124A50F8234014B940F8DE
:1007A000231002E052F82300416042F823100FE0CA
:1007B000032200E00522E25410F0080F01F10803C3
:1007C0000A8843600CBF8823C82343EA02430360BE
:1007D00062B630BD0080FF1F0097FF1FA497FF1F68
:1007E000BC97FF1F2DE9F84FA84F3C78E4B214F0F6
:1007F000040F3D4619D0A64B1B78A3B1A54A11782A
:1008000001F0FF0321B1013BDBB2137003B900BE5D
:10081000A14A117801F0FF0329B1013BDBB213704B
:100820000BB900F06BFD04233B7004F0080303F0E8
:10083000FF02002B00F07D82984B994C1A78D2B2BF
:1008400015094FEA920840F0FA8104EBC8035E688C
:1008500054F83830C3F38303013B0C2B00F2EC81D6
:10086000DFE813F099019901EA01EA01EA01EA01DE
:10087000EA01EA01C601EA01EA01EA010D00894D37
:100880003268736888486B600121884B44F83830BF
:100890002A60DFF84482017092B240F28160002346
:1008A0008242C8F800302361A36119D8B2F5D06F35
:1008B00080F02681B2F5817F00F0D98006D8802AA9
:1008C00000F0C480822A00F0C58035E140F2023396
:1008D0009A4200F00781B2F5A06F00F031812BE160
:1008E00040F62120824200F02B8111D8B2F5106F22
:1008F0001ED040F621139A4200F04A81B2F5086FEB
:1009000040F01A81624B6A4C1B7823700B461BE146
:1009100042F221218A4200F00B8142F221339A42B5
:1009200000F00E8142F221039A4240F005812FE14E
:10093000574B5B4EAA781A7006F1C009336A1B0642
:1009400003D5706A083800F077FB08364E45F5D1BC
:100950000026B146DFF884A156F80A0028B1D0F885
:1009600004B000F069FB5846F8E74AF80600514B1E
:10097000DFF86CA1F05056F80A0028B1D0F804B0A6
:1009800000F05AFB5846F8E74B4B4AF80600F05087
:100990004A4B23F819004A4B19F80320023A032A5C
:1009A00008D8DFE802F002040204002200E001227D
:1009B00003F8092009F10109B9F1060F06F104064F
:1009C000C8D1404B00221A7001269A463E4A3F4B3E
:1009D0003244334412F8012C9B0012F0080F1A70B5
:1009E0004FEA860925D000F009FB38B104EB461325
:1009F00008305860364B44F8393006E09AF8003039
:100A000044F8390001338AF8003000F0F7FA49F071
:100A1000010338B104EBC30208305060234A44F8A4
:100A2000332006E044F833009AF8003001338AF8A6
:100A3000003049F00202013649F003090023072E75
:100A400044F8323044F83930C0D17AE0184C237081
:100A5000637078E0AA88062A6ED8154C920023703D
:100A600063701C4B9B5C9E076DD521706BE0AA8860
:100A700002F07F03062B5FDC6B88002B5CD19100BA
:100A8000144A0A44117821F0020153E08020074003
:100A9000E797FF1F6197FF1FFE97FF1F90200740FA
:100AA0000080FF1FD497FF1FE897FF1FC80040007A
:100AB000DF97FF1FE896FF1FBC97FF1F009AFF1FDD
:100AC0000097FF1FDE97FF1F0C30000030C8011099
:100AD00088004000C0200740E496FF1F4897FF1F92
:100AE000A497FF1FAA8802F07F03062B24DC6B88E3
:100AF00013BB9100A04A0A44117841F0020119E0A9
:100B00006A88A9889D4B53F8084CA3F10C009CB14E
:100B100033F80C6C964209D133F80A6C8E4205D139
:100B2000120A032A0CBF237803890DE00C33EAE78D
:100B3000A978934A117004E08F4B0F221A7027E0B6
:100B400000231C4600E00223EE88B34238BF1E4655
:100B5000402E34BF3546402520462946FFF778FD14
:100B6000761B2C4403D1402D12D1354603E0402E94
:100B700034BF3546402520462946FFF769FD761BE0
:100B80002C4401D1402D03D17E4AC8F80040168084
:100B900001227D4B4FE07D4D2A8842F221039A428B
:100BA00012D100237A4AF15C99540133072BF9D111
:100BB0001368862B06F1070602D1764B0F221A70B6
:100BC00000200146FFF744FD2A68734B9A420BD17F
:100BD0006E4B5A68714B9A4206D1714B32781A703B
:100BE00000200146FFF734FD6E4B44F8383023E017
:100BF0006D4E3568B5B1DFF88C81B8F80090B9F169
:100C0000400F34BF4C46402428462146FFF720FDC4
:100C1000C4EB09039BB2A8F800300BB9402C00D1FB
:100C20002B193360594B1A88B2F5A06F04D10022FA
:100C30005A709A785D4B1A700122534B6CE004EBAA
:100C4000C806013D736802F00802A3F10800EDB286
:100C500002F0FF01002A36D000F0EEF95448554B5F
:100C600050F82520EAB1516840F8251002F108013A
:100C70007160595D03290BD8DFE801F00204060812
:100C8000032104E0022102E0052100E0042159557E
:100C900016F0080F12880CBF8823C82343EA0243CA
:100CA00042E05A5D032A07D8DFE802F04040020420
:100CB000002206E0012204E016F0080F0CBF022219
:100CC00003225A5532E054F83820120C23F8082C2D
:100CD00022B3DFF810E123F8061C43F8041C5EF889
:100CE0002530354913B94EF8250002E051F825307A
:100CF0005860324B41F8250033F815100A4423F8A8
:100D0000152000F07BF910B10830706006E02C4B24
:100D100044F838001A7801321A7007E0214B294A4A
:100D200016F0080F08BF134644F8383008233B700C
:100D30005AE5E00758D514492248234C02230B708A
:100D4000224B1A70224B186098602248D8601A61B2
:100D50009A615C60084B0D2018701F48FF230370D8
:100D60002B7002741D4A13701D4B9F221A700123B1
:100D70000B70BDE8F88F00BFC02007402030000096
:100D80000C98FF1FDC97FF1F94200740D497FF1F8C
:100D90000C9AFF1F6197FF1F21090002020001004A
:100DA000E997FF1FC8004000E496FF1F9820074006
:100DB000A497FF1F0097FF1FE896FF1F009AFF1FD1
:100DC000DE97FF1F880040000897FF1F6097FF1FF6
:100DD0000080FF1F6497FF1F882007408C2007407A
:100DE000842007404897FF1F210604D5094B0D2298
:100DF0001A7080232B70A20705D5074B1A78D2B240
:100E00001A7002232B70E30644BF10232B70BDE839
:100E1000F88F00BFC02007408820074008B501F0C8
:100E2000D3F900221A4B0021D15098180832C82A51
:100E30004160F7D1174A106840F48020106002F535
:100E400028326832C3F307201070C3F307401B0E2B
:100E500010751376FF2302F81C3C02F8143C02F8CC
:100E60008C3C012302F8083C82F8641002F8183C1C
:100E7000094B70226FF450711A700B444FF40072DA
:100E80001A6003F1C04303F5C82310221A7008BD8D
:100E90000080FF1F3480044049E400E01F2808D888
:100EA0000A2804D00B2814BF00202B2070472820CC
:100EB00070477F289DBF034BC01810F8200C0020FE
:100EC000704700BFAC2F000010B546F20144174B2D
:100ED0001B7843B30120FFF7F7FB032803D9013C3C
:100EE000134B18D119E000F089F801460028F6D01C
:100EF000104B1B780372104B1B7843720F4B1A6810
:100F00009B88C3810823C0F80A2003800120FFF7D3
:100F100029FC002010BD1A7812B101221A7002E0DB
:100F200000F018FAD3E74FF0FF3010BDE797FF1F2E
:100F3000F897FF1FF097FF1FF197FF1FEA97FF1F1A
:100F400038B50A4C0A4D2070002329706370A370D5
:100F5000E37023716371FFF7B7FF28B92870207021
:100F6000BDE83840FFF7B0BF38BD00BFEA97FF1FAC
:100F7000F097FF1F08B5FFF791FF50B110F0400F39
:100F800014BF0221002100F03F00BDE80840FFF738
:100F9000D7BF08BD10F0800F164B02D100221A6097
:100FA0000BE0BF2812D81968012900F03F0206D1D2
:100FB00000211960104B18881043FFF7DBBF02298E
:100FC00016D10D49088840EA821205E0DF2806D8CC
:100FD00000F01F02084992010A80012207E0EF2871
:100FE00004D8054902030A80022200E0FF221A60A9
:100FF000704700BFF497FF1FFA97FF1F72B60C4AA5
:101000001168B1FA81F31D2B02D962B60020704736
:101010004FF00040D84021EA0001116062B6054956
:1010200048225343C8180022CA504260704700BF8C
:10103000708CFF1F0084FF1F0C4B4822C31AB3FBA8
:10104000F2F31D2B11D80A4A127822B1094A1278FC
:101050000AB1FFF74BBB72B6074A4FF0004121FAC5
:1010600003F311681943116062B670470084FF1FD3
:10107000DE97FF1FE797FF1F708CFF1F2DE9F041E0
:1010800010F1800F06460D4608BF6FF07E0611F185
:10109000800F144608BF6FF07E0512F1800F08BF65
:1010A0006FF07E0443F60147184B1B7853B30520BD
:1010B000FFF70AFB0228DFF85C8002D9013F17D155
:1010C00019E0FFF79BFF01460028F7D001220272CA
:1010D0000F4A867212784272C57204730520002787
:1010E000088088F80070FFF73DFB3846BDE8F081C6
:1010F00098F800301BB1012388F8003002E000F0BE
:1011000029F9D1E74FF0FF30BDE8F081E797FF1FE5
:10111000FC97FF1FFD97FF1F10B5104C23686BB1A4
:1011200020684288531C0244147A0288934212D3E6
:10113000FFF782FF094B00221A600DE0084B1B7875
:1011400013B94FF0FF3010BD0320FFF7A1FA206064
:101150000028E5D1F5E74380204610BD0898FF1F21
:10116000E797FF1F10B50B4C236813B123686BB9C9
:1011700002E0094B1B7813B94FF0FF3010BD03207C
:10118000FFF786FA20600028F0D1F5E75A8813446B
:10119000187A10BD0898FF1FE797FF1F044B988827
:1011A000044B1B681BB11A885B88D31A184470471C
:1011B000009AFF1F0898FF1F2DE9F8432D4E0123C9
:1011C00007460C463370002C4FD02B4D2B68A94698
:1011D0002BBB48F60148294B1B7803F0FF020BB9E3
:1011E000327015E00420FFF76FFA072808D80123B2
:1011F0003370FFF703FFC9F8000080B91D4B18706A
:10120000B8F101081E4B01D01A782AB101221A70D8
:101210004FF0FF30BDE8F88300F09CF8DBE7296869
:10122000174A488800231370C0F14002944238BF27
:10123000224600F1080C10448C444880A41A9342C2
:1012400004D0F85C0CF803000133F8E71F444B8826
:101250003F2B06D940230B800420FFF783FA00239D
:101260002B60084B05221A70ADE734702046BDE8AC
:10127000F88300BFFF97FF1F0098FF1FE797FF1F2E
:101280000498FF1FFE97FF1F07B502AB012103F86B
:10129000010D1846FFF790FF03B05DF804FBFFFF58
:1012A0002DE9F041114B1B78F3B1114E114B34680D
:1012B000114D01271F7098464CB1002763882F708D
:1012C000042023802146FFF74DFA376009E0FFF73D
:1012D00095FE014620B104202C70FFF743FA00E090
:1012E0002F70002388F80030BDE8F081E797FF1FDA
:1012F0000098FF1FFF97FF1FFE97FF1F38B50E4B8B
:101300001B7803F0FF05ABB90C4C216831B14B8859
:101310000B800420FFF726FA256038BDFFF76EFE2C
:10132000014620B10420BDE83840FFF71BBA044B4A
:1013300001221A7038BD00BFFF97FF1F0098FF1FE2
:10134000FE97FF1F08B5FFF78DF8FFF78CF800F048
:1013500001F8FAE710B50E4C2378BBB901232370CE
:10136000FFF71CFF08B101F0D2F800F041FA08B114
:1013700000F0C5FF00F08CFC08B101F032F800F07D
:1013800081FE08B101F09FF80023237010BD00BF5B
:101390000D98FF1F10B5204B2048214960221A707C
:1013A000E1225A701F4B204A1C78204B082C01D197
:1013B000012402E00A2C03D119240460132005E063
:1013C0000C2C0CBF15243D2404601220086014600E
:1013D0001860174B17491B78174A03B101230B609C
:1013E0001360164B164A1978164B012901D8802133
:1013F0000BE0042901D8842107E0082901D88521C0
:1014000003E0102994BF86218721116019600E4BDB
:1014100001221A7010BD00BF0040074008B0034011
:101420000CB00340748CFF1F08B00B400CB00B4095
:101430000F98FF1F20B0034020B00B40758CFF1F9A
:1014400024B0034024B00B400E98FF1F024B1A68D3
:1014500001321A60704700BFE096FF1F08B50B4CC1
:101460002368580301D5FFF7BDF92368590501D555
:1014700000F01EFA23681A0501D500F069FC236804
:10148000DB04ECD500F04AFEE9E700BF34800440FD
:1014900008B5FFF7E3FFFFFF014B10221A807047EA
:1014A000002005407047FFFF024A1368184410608F
:1014B00018467047788CFF1FEFF31383ABB9EFF337
:1014C0001083ABB9EFF3058323B10F2B05D9094A7C
:1014D000985C03E04FF4807000E00020EFF311838C
:1014E0003BB1834238BF184670474FF0FF3070471A
:1014F00000207047F0E300E0194B1A6842F4806264
:101500001A60184A00231370174A1370174A137091
:10151000174A1370174A1370174B40F213321A60B0
:101520004FF451725A60154BC0F344321A70C0F335
:1015300047125A700221042200F01F0098729A701C
:10154000D9745A7588221A743C22DA700C4B4022E6
:101550006FF44A711A700B444FF400521A607047CE
:10156000348004409298FF1F1198FF1F9898FF1F26
:101570009398FF1F1098FF1F40A0044000A0064052
:101580002DE400E0134A937800F0030103F0EC032C
:101590000B43410748BF43F01003937000F00F0363
:1015A000042B0C4903D18B7943F040038B715379A1
:1015B000C20603F0EF03074A48BF43F0100353711C
:1015C0009379810603F0EF0348BF43F01003937152
:1015D000704700BF00A0064008B50E4B1B685B05B6
:1015E00000D408BD0C4B1A7802F0FF0312B1FFF7CC
:1015F000B1FEF7E7094A4FF400511160084A094962
:10160000D37040F203120A604A60074A1370074A17
:10161000137008BD348004401098FF1F84E100E07F
:1016200000A0064040A004409298FF1F1198FF1FA1
:1016300038B50446094B1B7803F0FF05002BF9D1A0
:1016400020460121FEF766FF20462946FEF742FFAD
:10165000034B53F83420034B1A6038BD1098FF1F1A
:101660009C2E00009498FF1FF8B51D4B1B685A056F
:10167000064633D51B4B1B680BB101221A701A4B5F
:101680001C780134402C1F4628BF0024174D2B78AE
:10169000A34218D1FFF710FF40280FDC144A13793A
:1016A0001B06F3D52B7813490133402B28BF0023A9
:1016B000C95CDBB2C9B2D1712B70E7E7FF28E5DD69
:1016C000FFF748FEE2E70B4BF6B21E550A4B01222C
:1016D0001A70074BE4B2BC223C70DA70F8BD00BF50
:1016E000348004409498FF1F9898FF1F9398FF1F21
:1016F00000A006401298FF1F1098FF1F274B1B6881
:101700005A052DE9F04707468A4644D5244B1B6805
:101710000BB101221A703D4607EB0A039D4237D2F6
:10172000DFF890801F4E98F8004096F80090013442
:10173000402C28BF00245FFA89F9A1451DD11A4B1E
:10174000BC22DA70FFF7B8FE40280FDC164A137986
:101750001B060FD5337815490133402B28BF0023D2
:10176000C95CDBB2C9B2D171337003E0FF2801DD7F
:10177000FFF7F0FD33784B45E4D00C4B15F8012B07
:101780001A550B4B0122E4B21A7088F80040C3E7E7
:10179000054BBC22DA70BDE8F08700BF34800440FE
:1017A0009498FF1F9398FF1F00A006401298FF1FF8
:1017B0001098FF1F9898FF1F08B5034B1B7813B1B3
:1017C000FFF7C8FDF9E708BD1098FF1F064A074B51
:1017D0001B781078DBB2C0B283422CBF3F3000F1DF
:1017E000FF30C01A704700BF9398FF1F9898FF1FE3
:1017F000054B1878054B1B78C0B2DBB2984238BF56
:101800004030C01A704700BF9298FF1F1198FF1F09
:10181000094B0A4A19781378DBB2994208D0013390
:10182000402B28BF00230649C85CDBB21370704709
:101830004FF0FF30704700BF9298FF1F1198FF1FB5
:101840005298FF1F084B1A78084B1B78DBB29A425C
:1018500007D00133402B28BF0023054AD05CC0B21B
:1018600070474FF0FF3070479298FF1F1198FF1F8D
:101870005298FF1F0A4B1B685B050FD5094BDA789E
:1018800002F0CB02DA7040225A74DA7842F0340265
:10189000DA70054B1A78054BD2B21A70704700BF48
:1018A0003480044000A006401198FF1F9298FF1F4B
:1018B00030B5304B1A7912F0300F23D072B69A7DC2
:1018C00002F0FF0122B9DA7940225A7462B619E0B7
:1018D00062B6294B29481A780478D2B2E4B2184685
:1018E000244BDD79531C402B28BF0023A342EDB2CB
:1018F00002D0234AD5541A464B1E13F0FF01EFD1F4
:10190000D2B202701B4BD978C9B20C0620D51B7914
:1019100018061DD51B4B1C4A1D781378EDB2DBB29F
:101920001046AB420CD0134A0133402B1479174CAC
:1019300028BF0023E45CE4B2D471127D072AF0D9F9
:10194000DBB203700B4B1A79120644BF7C22DA70AB
:101950004B060ED5074B1A7912F0400F194608D0E6
:101960000B4B00221A700B4B1B6803B11A703C23FF
:10197000CB7030BD00A006409298FF1F1198FF1F4A
:101980005298FF1F9898FF1F9398FF1F1298FF1FF0
:101990001098FF1F9498FF1F194B1A6842F40062B9
:1019A0001A60184A00231370174A1370174A1370ED
:1019B000174A1370174A1370174B40F213321A600C
:1019C0004FF451725A60154BC0F344321A70C0F391
:1019D00047125A7000F01F000422022198729A7078
:1019E000D9745A7588221A743C22DA700C4B402242
:1019F0001A70A3F22B334FF400421A60704700BFF5
:101A0000348004400399FF1F9A98FF1F0C99FF1F11
:101A10000499FF1F9998FF1F0CB0044000B00640C6
:101A20002FE400E0134A937800F0030103F0EC0385
:101A30000B43410748BF43F01003937000F00F03BE
:101A4000042B0C4903D18B7943F040038B715379FC
:101A5000C20603F0EF03074A48BF43F01003537177
:101A60009379810603F0EF0348BF43F010039371AD
:101A7000704700BF00B0064008B50E4B1B681B0541
:101A800000D408BD0C4B1A7802F0FF0312B1FFF727
:101A900061FCF7E7094A4FF400411160084A09491F
:101AA000D37040F203120A604A60074A1370074A73
:101AB000137008BD348004409998FF1F84E100E052
:101AC00000B006400CB004400399FF1F9A98FF1F16
:101AD00038B50446094B1B7803F0FF05002BF9D1FC
:101AE00020460121FEF716FD20462946FEF7F2FCAE
:101AF000034B53F83420034B1A6038BD9998FF1FED
:101B00009C2E00000899FF1FF8B51D4B1B681A0595
:101B1000064633D51B4B1B680BB101221A701A4BBA
:101B20001C780134282C1F4628BF0024174D2B7821
:101B3000A34218D1FFF7C0FC40280FDC144A1379E8
:101B40001B06F3D52B7813490133282B28BF00231C
:101B5000C95CDBB2C9B2D1712B70E7E7FF28E5DDC4
:101B6000FFF7F8FBE2E70B4BF6B21E550A4B0122DA
:101B70001A70074BE4B2BC223C70DA70F8BD00BFAB
:101B8000348004400899FF1F0C99FF1F0499FF1F20
:101B900000B006409B98FF1F9998FF1F274B1B68BA
:101BA0001A052DE9F04707468A4644D5244B1B68A1
:101BB0000BB101221A703D4607EB0A039D4237D252
:101BC000DFF890801F4E98F8004096F8009001349E
:101BD000282C28BF00245FFA89F9A1451DD11A4B92
:101BE000BC22DA70FFF768FC40280FDC164A137934
:101BF0001B060FD5337815490133282B28BF002346
:101C0000C95CDBB2C9B2D171337003E0FF2801DDDA
:101C1000FFF7A0FB33784B45E4D00C4B15F8012BB4
:101C20001A550B4B0122E4B21A7088F80040C3E742
:101C3000054BBC22DA70BDE8F08700BF3480044059
:101C40000899FF1F0499FF1F00B006409B98FF1FD3
:101C50009998FF1F0C99FF1F08B5034B1B7813B110
:101C6000FFF778FBF9E708BD9998FF1F064A074B75
:101C70001B781078DBB2C0B283422CBF273000F152
:101C8000FF30C01A704700BF0499FF1F0C99FF1F57
:101C9000054B1878054B1B78C0B2DBB2984238BFB1
:101CA0004030C01A704700BF0399FF1F9A98FF1F6A
:101CB000094B0A4A19781378DBB2994208D00133EC
:101CC000402B28BF00230649C85CDBB21370704765
:101CD0004FF0FF30704700BF0399FF1F9A98FF1F16
:101CE000C398FF1F084B1A78084B1B78DBB29A4247
:101CF00007D00133402B28BF0023054AD05CC0B277
:101D000070474FF0FF3070470399FF1F9A98FF1FED
:101D1000C398FF1F0A4B1B681B050FD5094BDA78C8
:101D200002F0CB02DA7040225A74DA7842F03402C0
:101D3000DA70054B1A78054BD2B21A70704700BFA3
:101D40003480044000B006409A98FF1F0399FF1F9B
:101D500030B5304B1A7912F0300F23D072B69A7D1D
:101D600002F0FF0122B9DA7940225A7462B619E012
:101D700062B6294B29481A780478D2B2E4B21846E0
:101D8000244BDD79531C402B28BF0023A342EDB226
:101D900002D0234AD5541A464B1E13F0FF01EFD14F
:101DA000D2B202701B4BD978C9B20C0620D51B7970
:101DB00018061DD51B4B1C4A1D781378EDB2DBB2FB
:101DC0001046AB420CD0134A0133282B1479174C20
:101DD00028BF0023E45CE4B2D471127D072AF0D955
:101DE000DBB203700B4B1A79120644BF7C22DA7007
:101DF0004B060ED5074B1A7912F0400F194608D042
:101E00000B4B00221A700B4B1B6803B11A703C235A
:101E1000CB7030BD00B006400399FF1F9A98FF1F9A
:101E2000C398FF1F0C99FF1F0499FF1F9B98FF1F6A
:101E30009998FF1F0899FF1F174B1A6842F48052A8
:101E40001A60164A00231370154A1370154A13704E
:101E5000154A1370154A1370154A40F21331116078
:101E60004FF451715160134AC0F344311170C0F303
:101E7000471100F01F0051709072937013742C235F
:101E8000D3700D4B40226FF44B711A700B444FF41A
:101E900000321A60704700BF348004407799FF1FFA
:101EA0000E99FF1F8099FF1F7899FF1F0D99FF1F43
:101EB00008C0044000C0064031E400E0134A9378B3
:101EC00000F0030103F0EC030B43410748BF43F06C
:101ED0001003937000F00F03042B0C4903D18B798E
:101EE00043F040038B715379C20603F0EF03074AB6
:101EF00048BF43F0100353719379810603F0EF0359
:101F000048BF43F010039371704700BF00C0064004
:101F100008B50E4B1B68DB0400D408BD0C4B1A78C7
:101F200002F0FF0312B1FFF715FAF7E7094A4FF481
:101F300000311160084A0949D37040F203120A6067
:101F40004A60074A1370074A137008BD3480044082
:101F50000D99FF1F84E100E000C0064008C0044066
:101F60007799FF1F0E99FF1F38B50446094B1B7860
:101F700003F0FF05002BF9D120460121FEF7CAFA34
:101F800020462946FEF7A6FA034B53F83420034BAC
:101F90001A6038BD0D99FF1F9C2E00007C99FF1F11
:101FA000F8B51D4B1B68DA04064633D51B4B1B687E
:101FB0000BB101221A701A4B1C780134282C1F46D1
:101FC00028BF0024174D2B78A34218D1FFF774FACD
:101FD00040280FDC144A13791B06F3D52B781349DC
:101FE0000133282B28BF0023C95CDBB2C9B2D171F1
:101FF0002B70E7E7FF28E5DDFFF7ACF9E2E70B4BD5
:10200000F6B21E550A4B01221A70074BE4B2AC22FD
:102010003C70DA70F8BD00BF348004407C99FF1F2B
:102020008099FF1F7899FF1F00C006400F99FF1F7E
:102030000D99FF1F38B504464518AC4204D014F87A
:10204000010BFFF7ADFFF8E738BDFFFF08B5034B05
:102050001B7813B1FFF77EF9F9E708BD0D99FF1F53
:10206000064A074B1B781078DBB2C0B283422CBF04
:10207000273000F1FF30C01A704700BF7899FF1F6A
:102080008099FF1F054B1878054B1B78C0B2DBB257
:10209000984238BF4030C01A704700BF7799FF1F81
:1020A0000E99FF1F094B0A4A19781378DBB299423F
:1020B00008D00133402B28BF00230649C85CDBB29F
:1020C000137070474FF0FF30704700BF7799FF1FC4
:1020D0000E99FF1F3799FF1F084B1A78084B1B7882
:1020E000DBB29A4207D00133402B28BF0023054AB8
:1020F000D05CC0B270474FF0FF3070477799FF1F38
:102100000E99FF1F3799FF1F024B1A78024BD2B26C
:102110001A7070470E99FF1F7799FF1F10B5214B5A
:102120001A7992060FD5204AD87913781F490133BE
:10213000402B097828BF00238B42C0B203D01C4932
:10214000C854DBB21370174AD178C9B20C0616D541
:102150001379180613D5174B17481C780378DBB290
:102160009C4202D16C23D37009E00133282B28BF95
:102170000023124CE45CDBB2E4B2D47103704B0672
:102180000ED5084B1A7912F0400F194608D00C4BA7
:1021900000221A700B4B1B6803B11A702C23CB70F2
:1021A00010BD00BF00C006407799FF1F0E99FF1FAA
:1021B0003799FF1F8099FF1F7899FF1F0F99FF1F05
:1021C0000D99FF1F7C99FF1F1FB572B6154B70222A
:1021D0001A70154A412111700F2102F8011C80224A
:1021E0001A701A781206FCD5104B186862B6104B9C
:1021F000984298BF0A2301AC98BF584321460A224F
:1022000000F0A3F90023E15C0A4A29B102EB430084
:1022100001330A2B4180F6D101335B00137004B007
:1022200010BD00BF0000024007000240080002404D
:102230007F9698006E8EFF1F08B50368C9B21B68B1
:10224000984708BD08B50368C9B21B68984708BD20
:1022500008B50368C9B21B68984708BD08B503688C
:10226000C9B21B68984708BD034800EB5100B0FB9A
:10227000F1F0FFF741B900BF0044950810B50648DA
:1022800000EB51001446B0FBF1F0FFF735F92046A2
:10229000BDE81040FFF776B900449508FFF79CB9F8
:1022A0000846FFF7C5B9FFF7A3BAFFF7CBBAFFF7A8
:1022B000AFBAFFF781BAFFF7DDBAFFF787BA08B503
:1022C0000846FFF7D1F9012008BD08B50846FFF719
:1022D000CBF9012008BD10B5084614461146FFF79A
:1022E0000DFA204610BD38B508460D4600F026F917
:1022F000044621462846FFF701FA204638BD7047BC
:10230000044B00221A714FF47A711A73024A9960D1
:102310001A6070478499FF1FB830000008B5036841
:10232000C9B21B68984708BD08B50368C9B21B68E5
:10233000984708BD08B50368C9B21B68984708BD2F
:1023400008B50368C9B21B68984708BD034800EB8D
:102350005100B0FBF1F0FFF71FBB00BF0044950830
:1023600010B5064800EB51001446B0FBF1F0FFF742
:1023700013FB2046BDE81040FFF754BB004495080E
:10238000FFF77ABB0846FFF7A3BBFFF781BCFFF757
:10239000A9BCFFF78DBCFFF75FBCFFF7BBBCFFF725
:1023A00065BC08B50846FFF7AFFB012008BD08B5BE
:1023B0000846FFF7A9FB012008BD10B508461446E2
:1023C0001146FFF7EBFB204610BD38B508460D4619
:1023D00000F0B4F8044621462846FFF7DFFB20460C
:1023E00038BD7047044B00221A714FF47A711A738A
:1023F000024A99601A6070479499FF1F08310000E3
:1024000008B50368C9B21B68984708BD08B50368DA
:10241000C9B21B68984708BD08B50368C9B21B68F4
:10242000984708BD08B50368C9B21B68984708BD3E
:10243000034800EB5100B0FBF1F0FFF7FDBC00BF1B
:1024400000A24A0410B5064800EB51001446B0FB48
:10245000F1F0FFF7F1FC2046BDE81040FFF72EBD7C
:1024600000A24A04FFF754BD0846FFF77DBDFFF701
:1024700009BEFFF731BEFFF715BEFFF7E7BDFFF757
:1024800043BEFFF7EDBD08B50846FFF789FD012003
:1024900008BD08B50846FFF783FD012008BD10B54B
:1024A000084614461146FFF7C5FD204610BD38B555
:1024B00008460D4600F042F8044621462846FFF73C
:1024C000B9FD204638BD7047044B00221A714FF405
:1024D0007A711A73024A99601A607047A499FF1FB3
:1024E00058310000FEF75ABEFEF716BEFEF73ABEA0
:1024F000FEF7D6BE0846FEF7C7BE08461146FEF7F1
:102500005BBE08B50846FEF745FD012008BD7047D3
:10251000064B4FF47A710022996005491A711A73BB
:102520001960044B1A71044A1A607047BC99FF1F66
:10253000A8310000B499FF1FC83100000023C25C1D
:102540000AB10133FBE71846704710B50023B0FB12
:10255000F2F402FB1400092894BF30303730C0B2C7
:10256000C85420460CB10133F1E7CA185470224612
:102570009A4206DA885CCC5C8C54C8540132013B28
:10258000F6E7084610BDF8B506460C468F1800253C
:10259000BC4207D0336814F8011B1B6830469847CB
:1025A0000544F5E72846F8BD70B50F4E0F4D761B74
:1025B000B61007D0043D0024013455F8043F984775
:1025C000A642F9D10A4E0B4D761B00F005FEB6105F
:1025D00008D0043D0024013455F8043F9847A64232
:1025E000F9D170BD70BD00BFE4310000E4310000DE
:1025F000FC310000E4310000024B0146186800F095
:1026000003B800BFB092FF1F2DE9F04F01F10B0599
:10261000162D83B0064627D935F0070527D4A942E1
:1026200025D8304600F08CFAB5F5FC7F26D2C14F94
:102630004FEAD50C07EBCC03DC689C4200F0D2815A
:102640006368E268A16823F00303234430465D68B1
:10265000CA6045F0010591605D6000F073FA0834CE
:10266000204603B0BDE8F08F1025A942D9D9002437
:102670000C232046336003B0BDE8F08F5FEA552C91
:1026800000F08A80BCF1040F00F260814FEA951CD3
:102690000CF1380C4FEA4C01A64F07EB8101CC68D6
:1026A000A14205D10CE0002B7ADAE468A14207D000
:1026B000626822F00302531B0F2BF4DD0CF1FF3C88
:1026C0000CF1010C9B4B3C6903F1080E744500F0C2
:1026D0007E81616821F003014A1B0F2A00F36481A7
:1026E000002AC3F814E0C3F810E06ADAB1F5007FFD
:1026F00080F03A81C90803EBC1004FEAA1085A688B
:102700008168A1604FF0010909FA08F848EA02025D
:10271000E0605A608460CC604FEAAC0301209840CE
:1027200090425BD8024206D12CF0030C40000242DA
:102730000CF1040CFAD007EBCC084446E146E36800
:102740009C4207D145E1002A80F25681DB689C4219
:1027500000F03F81596821F003014A1B0F2AF2DD86
:102760001C46D3F80CC054F8088F591945F00109DC
:1027700042F00105C3F804903046C8F80CC0CCF80C
:10278000088079613961C1F80CE0C1F808E04D605A
:102790008A5000F0D7F963E77E214FF03F0C7BE7CA
:1027A0002244E3685068A16840F00105CB603046E0
:1027B0009960556000F0C6F90834204603B0BDE8C2
:1027C000F08F214430464B6843F001034B6000F02A
:1027D000B9F90834204603B0BDE8F08FBC686368DF
:1027E00023F00309A94504D3C5EB09030F2B00F31C
:1027F0009180514B514A19681368013305EB010A66
:1028000004EB090B00F061810AF5805A0AF10F0A06
:102810002AF47F6A2AF00F0A30465146019200F0EE
:1028200093F9B0F1FF3F8046019A00F000818345A3
:1028300000F2FA80DFF810C1DCF80030C3455344E1
:10284000CCF8003000F04A8112683C4901321BBFCD
:10285000CBEB080B5B44C1F80080CCF8003018F0DB
:10286000070300F01381C3F10802C3F580539044BD
:102870000833C244CAF30B0ACAEB030A5146304676
:10288000CDF804C000F060F9431CDDF804C000F08E
:102890003581C8EB0002524442F00102DCF80030FE
:1028A000C7F808805344BC42C8F80420CCF8003074
:1028B000DFF894A015D0B9F10F0F40F2EA806168FB
:1028C000A9F10C0222F0070201F0010EA118052067
:1028D00042EA0E0E0F2AC4F804E04860886000F255
:1028E0001181174ABC6811688B4288BF1360154A72
:1028F00011688B4288BF1360626822F00302954220
:10290000C5EB020301D80F2B04DC304600F01AF9A6
:102910000024A5E6621943F0010345F00105656056
:102920003046BA60536000F00DF90834204603B019
:10293000BDE8F08FB492FF1FD499FF1FC096FF1F10
:10294000D099FF1FCC99FF1FD899FF1FBCF1140F1E
:1029500061D9BCF1540F00F28F804FEA153C0CF1A5
:102960006E0C4FEA4C0197E64B0A042B58D9142BF6
:1029700000F2AE8003F15B02500007EB8000DFF84D
:10298000BC818368834200F08A805A6822F0030287
:10299000914202D29B689842F7D1D9687A68E16087
:1029A000A3608C60DC60B7E6611942F0010745F076
:1029B00001056560304659611961C1F80CE0C1F844
:1029C00008E04F608A50083400F0BCF848E65A68C6
:1029D000A2E609F1010919F0030F04F108047FF4DC
:1029E000AEAE2DE004F108036469A34208BF0CF108
:1029F000020C3FF467AE23E619441C464868DB68C6
:102A000054F8082F40F001054D603046D3609A60BD
:102A100000F098F824E60CF15B0C4FEA4C013BE621
:102A20008A0938325000A8E7BC423FF403AFBC68C3
:102A3000626822F0030262E7D8F8008098457BD1F3
:102A40001CF0030FA8F108030CF1FF3CF4D17B68E4
:102A500023EA00037B60400098423FF6BFAE0028A7
:102A60003FF4BCAE0342CC467FF465AE4000034267
:102A70000CF1040CFAD05EE6BCF5AA7F1AD84FEA36
:102A8000D53C0CF1770C4FEA4C0105E64FF480532E
:102A9000EFE60123C8F80430444600222FE79110E6
:102AA0000120D8F8042000FA01F10A43C8F80420F4
:102AB000194674E740F254539C451BD84FEA954C95
:102AC0000CF17C0C4FEA4C01E6E50AF1100AA3E692
:102AD000542B1FD80A0B6E3250004EE7CBF30B017C
:102AE00000297FF4B1AE0AEB0901BA6841F0010197
:102AF0005160F6E6FC214FF07E0CCDE501224FF04F
:102B0000000ACBE604F10801304600F0A5F8DAF837
:102B10000030E6E6B3F5AA7F03D8CA0B773250003F
:102B20002BE740F25452934203D88A0C7C32500077
:102B300023E7FC207E2220E77B688CE7B492FF1F0E
:102B4000704700BF704700BF38B5074C00230546EB
:102B500008462360FEF7A8FC431C00D038BD23685C
:102B6000002BFBD02B6038BD149AFF1F024B13B112
:102B7000024800F005B87047000000008D2B0000EF
:102B8000014600200246034600F034B938B5094D2D
:102B9000094C641BA41018BF05EB840505D0013C4B
:102BA00055F8043D9847002CF9D1BDE8384000F0B5
:102BB00025BB00BF0000000000000000F8B5234D59
:102BC0000F460446FFF7BCFFAB685E6826F00306BD
:102BD000F11B01F6EF7121F47F6121F00F01A1F5E6
:102BE0008057B7F5805F07DB20460021FFF7ACFF79
:102BF000AB683344984204D02046FFF7A3FF00207F
:102C0000F8BD20467942FFF79FFF01300DD0104BF1
:102C1000AA681968F61B46F001062046C91B5660D3
:102C20001960FFF78FFF0120F8BD20460021FFF754
:102C30008BFFAB68C21A0F2ADEDD064D04492D68F2
:102C400042F00102401B5A600860D5E7B492FF1FB2
:102C5000D899FF1FC096FF1F2DE9F0410D4606468B
:102C6000002955D0FFF76CFF55F8041CDFF874C13C
:102C700021F00103A5F10804E218DCF80800576808
:102C8000904227F0030769D011F00101576032D05C
:102C90000021D0194068C00706D43B449068002941
:102CA0004ED0D268C260906043F001026260E3508F
:102CB000E1B9B3F5007F2DD35A0A042A6AD89809DE
:102CC000383041000CEB810C4649DCF808206245A5
:102CD00066D0516821F003018B4202D2926894457C
:102CE000F7D1D368E360A2609C60D4603046BDE851
:102CF000F041FFF727BF55F8085C641B0CF108088A
:102D0000A06840452B4443D0E568C560A860C0E793
:102D1000BDE8F081DB080CEBC3020125DCF8040000
:102D20009168A1609B1005FA03F31843E260CCF8A8
:102D3000040094603046CC60BDE8F041FFF702BF6C
:102D4000294DA842ADD143F00102CCF81440CCF893
:102D50001040E060A0606260E350C7E71F44CB070B
:102D600007D455F8083CE41A1F44A268E368D3600E
:102D70009A601E4B1B6847F001029F426260CCF8CC
:102D80000840B3D31A4B30461968FFF717FFADE779
:102D900001217EE7142A0CD802F15B00410091E783
:102DA0004B688010012505FA00F003434B60134681
:102DB00098E7542A03D8180B6E30410082E7B2F529
:102DC000AA7F03D8D80B773041007BE740F25451FB
:102DD0008A4203D8980C7C30410073E7FC217E20A6
:102DE00070E700BFB492FF1FBC92FF1FBC96FF1F8D
:102DF000D499FF1FF0B5274C2668D6F8484185B016
:102E00000746002C41D065681F2D1EDD224818B9E9
:102E10004FF0FF3005B0F0BD4FF4C870039102923F
:102E20000193FFF7E9FB0399029A019B04460028EE
:102E3000EED0D6F848512560002060600546C6F8FF
:102E40004841C4F88801C4F88C013FB9AB1C00208C
:102E50000135656044F8231005B0F0BD04EB850032
:102E60004FF0010CC0F88820D4F888610CFA05F204
:102E70001643022FC4F88861C0F80831E6D1D4F8AF
:102E80008C311A43C4F88C21E0E706F5A674C6F825
:102E90004841B8E7D4310000F92500004008FE435E
:102EA00040A004404408FE4344A004400018FE43F0
:102EB00000C004403000FE43309004403400FE4324
:102EC000349004401C18FE431CC004401018FE43FC
:102ED00010C004400818FE4308C004400C18FE430C
:102EE0000CC004400C10FE430CB004401010FE4314
:102EF00010B004401810FE4318B004401C10FE43EC
:102F00001CB004401410FE4314B004400418FE43E7
:102F100004C004400010FE4300B004400008FE431B
:102F200000A004400408FE4304A004400C08FE4333
:102F30000CA004400808FE4308A004401418FE43F7
:102F400014C004401818FE4318C004400410FE4387
:102F500004B004400810FE4308B004401400FE43CF
:102F6000149004404C08FE434CA004400420FE434F
:102F700004D004402410FE4324B004402010FE433B
:102F800020B004402810FE4328B004402C10FE431B
:102F90002CB004400020FE4300D004404808FE430B
:102FA00048A004401000FE43109004402C5E746062
:102FB000616264346667656E362D3738271E1F20C0
:102FC0002122232425267333762E77785F444546C5
:102FD0004748494A4B4C4D4E4F5051525354555609
:102FE0005758595A5B5C5D2F3130636D35040506C7
:102FF0000708090A0B0C0D0E0F10111213141516E9
:103000001718191A1B1C1D6F7170752A15151915C3
:103010001515FFFF00010000C18CFF1F120000000A
:1030200000020000EC8CFF1F96000000002202004E
:10303000828DFF1F5500000000210200408DFF1F00
:1030400009000000002203007C8CFF1F45000000E7
:1030500000210300598DFF1F090000000022040019
:10306000D78DFF1F5500000000210400728DFF1F47
:1030700009000000000300006A8EFF1F000000002E
:1030800001030904D48CFF1F00000000020309049F
:103090002C8EFF1F00000000030309046E8EFF1F2B
:1030A0000000000000000000000000000000000020
:1030B0000000000000000000BF220000D722000036
:1030C000A7220000AF220000AB220000B3220000C4
:1030D000692200007D2200009D220000A122000044
:1030E000B7220000BB220000392200004522000068
:1030F000512200005D220000E7220000CB220000E8
:103100000000000000000000A3230000BB2300001B
:103110008B230000932300008F23000097230000DF
:103120004D2300006123000081230000852300005F
:103130009B2300009F2300001D2300002923000083
:103140003523000041230000CB230000AF23000003
:103150000000000000000000872400009F24000001
:103160006F24000077240000732400007B240000FB
:10317000312400004524000065240000692400007B
:103180007F24000083240000012400000D2400009F
:103190001924000025240000AF240000932400001F
:1031A0000000000000000000F5240000FB240000E7
:1031B000E5240000E9240000ED240000F1240000D3
:1031C000000000000000000003250000872500002B
:1031D00043000000888EFF1FF8B500BFF8BC08BC94
:1031E0009E4670476D2B000035040000012300004F
:0C31F000E5230000C924000011250000A8
:0431FC00F8B500BF63
:10320000FFFFFFFF0A040000189AFF1F05010902D3
:10321000A101850105091901290815002501950855
:103220007501810205010930093109381581257FB1
:10323000750895038106C005010902A101850205F3
:103240000109300931150026FF7F751095028102B2
:10325000C012010002EF020140C016870400010104
:103260000203010018035400650065006E0073003E
:1032700079006400750069006E006F000902960015
:10328000050100C032080B0002020201040904001B
:1032900000010202010005240010010524010101C2
:1032A00004240206052406000107058203100040DD
:1032B00009040100020A00000007050302400000A3
:1032C0000705840240000009040200010301010017
:1032D00009211101000122550007058103080001A1
:1032E000090403000103000000092111010001226B
:1032F00045000705850308000209040400010300D6
:103300000000092111010001225500070586031064
:10331000000105010906A10175019508050719E0DD
:1033200029E7150025018102950875011500250181
:10333000050C09E909EA09E209CD09B509B609B799
:1033400009B8810295057501050819012905910241
:10335000950175039103950675081500257F0507EE
:103360001900297F8100C005010904A1011500256C
:1033700001750195200509190129208102150025F3
:10338000073500463B0175049501651405010939AF
:10339000814205010901A100150026FF03750A9568
:1033A0000409300931093209358102C0150026FFB0
:1033B00003750A9502093609368102C03E0353009F
:1033C00065007200690061006C002F004B00650011
:1033D000790062006F006100720064002F004D00F0
:1033E0006F007500730065002F004A006F007900C0
:1033F00073007400690063006B00040309040C038C
:1034000000000000000000000000000000000000BC
:103410000000000000000000000000007491FF1F89
:10342000DC91FF1F4492FF1F00000000000000001D
:10343000000000000000000000000000000000008C
:10344000000000000000000000000000D03100007B
:10345000000000000000000000000000000000006C
:10346000000000000000000000000000000000005C
:10347000000000000000000000000000000000004C
:10348000000000000000000000000000000000003C
:10349000000000000000000000000000000000002C
:1034A000000000000000000000000000000000001C
:1034B000000000000000000000000000000000000C
:1034C00001000000000000000E33CDAB34126DE6A9
:1034D000ECDE05000B000000000000000000000012
:1034E00000000000000000000000000000000000DC
:1034F00000000000000000000000000000000000CC
:1035000000000000000000000000000000000000BB
:1035100000000000000000000000000000000000AB
:10384000888EFF1F0000000000000000B492FF1FE0
:10385000B492FF1FBC92FF1FBC92FF1FC492FF1FB8
:10386000C492FF1FCC92FF1FCC92FF1FD492FF1F68
:10387000D492FF1FDC92FF1FDC92FF1FE492FF1F18
:10388000E492FF1FEC92FF1FEC92FF1FF492FF1FC8
:10389000F492FF1FFC92FF1FFC92FF1F0493FF1F77
:1038A0000493FF1F0C93FF1F0C93FF1F1493FF1F24
:1038B0001493FF1F1C93FF1F1C93FF1F2493FF1FD4
:1038C0002493FF1F2C93FF1F2C93FF1F3493FF1F84
:1038D0003493FF1F3C93FF1F3C93FF1F4493FF1F34
:1038E0004493FF1F4C93FF1F4C93FF1F5493FF1FE4
:1038F0005493FF1F5C93FF1F5C93FF1F6493FF1F94
:103900006493FF1F6C93FF1F6C93FF1F7493FF1F43
:103910007493FF1F7C93FF1F7C93FF1F8493FF1FF3
:103920008493FF1F8C93FF1F8C93FF1F9493FF1FA3
:103930009493FF1F9C93FF1F9C93FF1FA493FF1F53
:10394000A493FF1FAC93FF1FAC93FF1FB493FF1F03
:10395000B493FF1FBC93FF1FBC93FF1FC493FF1FB3
:10396000C493FF1FCC93FF1FCC93FF1FD493FF1F63
:10397000D493FF1FDC93FF1FDC93FF1FE493FF1F13
:10398000E493FF1FEC93FF1FEC93FF1FF493FF1FC3
:10399000F493FF1FFC93FF1FFC93FF1F0494FF1F72
:1039A0000494FF1F0C94FF1F0C94FF1F1494FF1F1F
:1039B0001494FF1F1C94FF1F1C94FF1F2494FF1FCF
:1039C0002494FF1F2C94FF1F2C94FF1F3494FF1F7F
:1039D0003494FF1F3C94FF1F3C94FF1F4494FF1F2F
:1039E0004494FF1F4C94FF1F4C94FF1F5494FF1FDF
:1039F0005494FF1F5C94FF1F5C94FF1F6494FF1F8F
:103A00006494FF1F6C94FF1F6C94FF1F7494FF1F3E
:103A10007494FF1F7C94FF1F7C94FF1F8494FF1FEE
:103A20008494FF1F8C94FF1F8C94FF1F9494FF1F9E
:103A30009494FF1F9C94FF1F9C94FF1FA494FF1F4E
:103A4000A494FF1FAC94FF1FAC94FF1FB494FF1FFE
:103A5000B494FF1FBC94FF1FBC94FF1FC494FF1FAE
:103A6000C494FF1FCC94FF1FCC94FF1FD494FF1F5E
:103A7000D494FF1FDC94FF1FDC94FF1FE494FF1F0E
:103A8000E494FF1FEC94FF1FEC94FF1FF494FF1FBE
:103A9000F494FF1FFC94FF1FFC94FF1F0495FF1F6D
:103AA0000495FF1F0C95FF1F0C95FF1F1495FF1F1A
:103AB0001495FF1F1C95FF1F1C95FF1F2495FF1FCA
:103AC0002495FF1F2C95FF1F2C95FF1F3495FF1F7A
:103AD0003495FF1F3C95FF1F3C95FF1F4495FF1F2A
:103AE0004495FF1F4C95FF1F4C95FF1F5495FF1FDA
:103AF0005495FF1F5C95FF1F5C95FF1F6495FF1F8A
:103B00006495FF1F6C95FF1F6C95FF1F7495FF1F39
:103B10007495FF1F7C95FF1F7C95FF1F8495FF1FE9
:103B20008495FF1F8C95FF1F8C95FF1F9495FF1F99
:103B30009495FF1F9C95FF1F9C95FF1FA495FF1F49
:103B4000A495FF1FAC95FF1FAC95FF1FB495FF1FF9
:103B5000B495FF1FBC95FF1FBC95FF1FC495FF1FA9
:103B6000C495FF1FCC95FF1FCC95FF1FD495FF1F59
:103B7000D495FF1FDC95FF1FDC95FF1FE495FF1F09
:103B8000E495FF1FEC95FF1FEC95FF1FF495FF1FB9
:103B9000F495FF1FFC95FF1FFC95FF1F0496FF1F68
:103BA0000496FF1F0C96FF1F0C96FF1F1496FF1F15
:103BB0001496FF1F1C96FF1F1C96FF1F2496FF1FC5
:103BC0002496FF1F2C96FF1F2C96FF1F3496FF1F75
:103BD0003496FF1F3C96FF1F3C96FF1F4496FF1F25
:103BE0004496FF1F4C96FF1F4C96FF1F5496FF1FD5
:103BF0005496FF1F5C96FF1F5C96FF1F6496FF1F85
:103C00006496FF1F6C96FF1F6C96FF1F7496FF1F34
:103C10007496FF1F7C96FF1F7C96FF1F8496FF1FE4
:103C20008496FF1F8C96FF1F8C96FF1F9496FF1F94
:103C30009496FF1F9C96FF1F9C96FF1FA496FF1F44
:103C4000A496FF1FAC96FF1FAC96FF1F000002005A
:043C5000FFFFFFFF74
:00000001FF
