:1000000000180020C1000000AD14000079140000A9
:1000100079140000791400007914000079140000AC
:10002000791400007914000079140000AD14000068
:10003000AD14000079140000AD1400006914000034
:10004000AD140000AD140000AD140000AD140000AC
:10005000AD140000AD140000AD140000AD1400009C
:10006000AD140000AD140000AD140000AD1400008C
:1000700049180000291C000009200000AD140000F0
:10008000AD140000AD140000AD140000AD1400006C
:10009000AD140000AD140000AD140000AD1400005C
:1000A00009080000AD140000AD140000AD140000FC
:1000B000AD140000AD140000AD140000AD1400003C
:1000C00038B501F0F7F9434A434B1A60434A444BB1
:1000D0001A60444A444B1A60444B08221978114272
:1000E00002D019780A431A70414B2A221A70002351
:1000F000404A41499A188A4204D24049C9580433B7
:100100001160F5E73E4B3F491A1F181D00238A4234
:1001100002D21360031CF6E73B493C4A5958101CB5
:1001200099500433C02BF7D100239A083849920024
:10013000521803211940C9001568FF248C40A543BB
:100140002C1C80258D40291C214301331160202B5C
:10015000EBD1304B8A2218602F4B1A702F4B242280
:100160001A702F4BA0221A701A1C2E4B1978880770
:10017000FBD51978CD06FCD418780C21014008294C
:10018000FAD12949032008702849402008701978BD
:100190008806FCD519784D06FCD525492548086008
:1001A0002021117019780C220A400C2AFAD1224A17
:1001B000224B1A60224A234B1A60234B07221A60F3
:1001C00062B600F0FBF902F041FA01F079F901F0B2
:1001D000D7F8FEE7300004F034800440823F00008E
:1001E000388004400100000F3C80044002D00740EA
:1001F00000E0074070020020C40C002048330000DB
:10020000C80C00201C1000200000000000F9FF1F97
:1002100000E400E008ED00E0005006400140064028
:1002200000400640064006400440064005400640A7
:100230004480044000000110C00005050480044013
:100240007FBB000014E000E010E000E0FFFFFFFFD4
:10025000FFFFFFFFFFFFFFFFFFFFFFFFFFFFFFFFAE
:10026000FFFFFFFFFFFFFFFFFFFFFFFFFFFFFFFF9E
:10027000FFFFFFFFFFFFFFFFFFFFFFFFFFFFFFFF8E
:10028000FFFFFFFFFFFFFFFFFFFFFFFFFFFFFFFF7E
:10029000FFFFFFFFFFFFFFFFFFFFFFFFFFFFFFFF6E
:1002A000FFFFFFFFFFFFFFFFFFFFFFFFFFFFFFFF5E
:1002B000FFFFFFFFFFFFFFFFFFFFFFFFFFFFFFFF4E
:1002C000FFFFFFFFFFFFFFFFFFFFFFFFFFFFFFFF3E
:1002D000FFFFFFFFFFFFFFFFFFFFFFFFFFFFFFFF2E
:1002E000FFFFFFFFFFFFFFFFFFFFFFFFFFFFFFFF1E
:1002F000FFFFFFFFFFFFFFFFFFFFFFFFFFFFFFFF0E
:10030000FFFFFFFFFFFFFFFFFFFFFFFFFFFFFFFFFD
:10031000FFFFFFFFFFFFFFFFFFFFFFFFFFFFFFFFED
:10032000FFFFFFFFFFFFFFFFFFFFFFFFFFFFFFFFDD
:10033000FFFFFFFFFFFFFFFFFFFFFFFFFFFFFFFFCD
:10034000FFFFFFFFFFFFFFFFFFFFFFFFFFFFFFFFBD
:10035000FFFFFFFFFFFFFFFFFFFFFFFFFFFFFFFFAD
:10036000FFFFFFFFFFFFFFFFFFFFFFFFFFFFFFFF9D
:10037000FFFFFFFFFFFFFFFFFFFFFFFFFFFFFFFF8D
:10038000FFFFFFFFFFFFFFFFFFFFFFFFFFFFFFFF7D
:10039000FFFFFFFFFFFFFFFFFFFFFFFFFFFFFFFF6D
:1003A000FFFFFFFFFFFFFFFFFFFFFFFFFFFFFFFF5D
:1003B000FFFFFFFFFFFFFFFFFFFFFFFFFFFFFFFF4D
:1003C000FFFFFFFFFFFFFFFFFFFFFFFFFFFFFFFF3D
:1003D000FFFFFFFFFFFFFFFFFFFFFFFFFFFFFFFF2D
:1003E000FFFFFFFFFFFFFFFFFFFFFFFFFFFFFFFF1D
:1003F000FFFFFFFFFFFFFFFFFFFFFFFFFFFFFFFF0D
:10040000FFFFFFFFFFFFFFFFFFFFFFFFFEFFFFFFFD
:1004100010B5064C2378002B07D1054B002B02D0DA
:10042000044800E000BF0123237010BDC40C00206D
:10043000000000004833000008B5084B002B03D033
:100440000748084900E000BF07480368002B03D0B5
:10045000064B002B00D0984708BDC04600000000A6
:1004600048330000C80C0020C40C0020000000002D
:10047000704710B52824012149420022022000F0D3
:1004800011FE013C192000F07FF8002CF3D1282444
:100490000220011C002200F005FE013C192000F0A2
:1004A00073F8002CF4D128240420012149420022B1
:1004B000404200F0F7FD013C192000F065F8002CE7
:1004C000F2D110BD10B51A2818D80C2358430C4A85
:1004D000835810181C7D027A224205D0002901D0D1
:1004E0001A710BE01A7209E043681A68002902D0F9
:1004F00003210A4301E002218A431A6010BDC0466D
:10050000AC2F000010B51A2818D80C2358430C4AF9
:10051000141863688258247A012904D1117D0C4390
:100520001475A22205E0107DA0431075002902D1A8
:100530008022520001E00422FF321A6010BDC04642
:10054000AC2F000010B572B60B4B0C491A680C4B5F
:100550001B68096862B6480104D53221914289417D
:1005600049425B180748FA24801A3021A4005C43F2
:1005700001F0FEFF201810BD18E000E004ED00E0DF
:10058000E00C00207FBB000038B5041CFFF7DAFF49
:10059000051C002C0ED0FFF7D5FF074B401B9842DF
:1005A00005D9013C002C05D0FA239B00ED1800F082
:1005B000EFFEF0E738BDC046E70300001C4B802289
:1005C000D20510B51A60802212061A60194B00205D
:1005D00018601949194B1A4A196028231360194ADF
:1005E000194C1360194A1360194A1360194A1360B1
:1005F000194A136009222260184C2060184C2160AF
:10060000184C2360184C2360184C2260184C206052
:100610001848016018490B6018490B60184B1A60A4
:1006200000F0DAFE0420FFF7AFFF00F0EFFB10BD93
:1006300000E100E004800340FFBF000008800340A9
:100640000C80034014800340008003401C80034062
:10065000248003402C8003403480034004900340F6
:10066000089003400C900340149003400090034016
:1006700004A0034008A003400CA0034014A00340C2
:1006800000A00340F0B50B4F02223B780A4E1A43FC
:10069000D2000A4DB418606028788824002800D061
:1006A000C82409040C43B450012250405340287020
:1006B0003B70F0BD600D002000F8FF1FE80D00202A
:1006C000431E10B5052B0FD872B6084A99008858FA
:1006D000002807D044685B008C50054A01889C5A6A
:1006E000611A995262B600E0002010BD480D00204A
:1006F00004100020431E0020052B09D872B6054ABD
:100700009B009B58002B02D001305B68FAE762B671
:100710007047C046A40D002038B572B60123164AB2
:100720009A18013A127811071CD5144A5C01A55891
:100730009900002D05D1131908305860104BA350B3
:100740000AE001242143C9008C58002C0AD1531817
:10075000083058600B4B8B500B4B1A78013A1A70CB
:1007600062B608E00133072BD9D162B6064B0022EE
:100770001A7000F06FFC38BD5031000000F8FF1F08
:1007800088004000C8004000DE0D0020421E10B569
:10079000052A30D8022380001843174BC0001B18CD
:1007A00072B6164CA05C032809D801F0CDFE1402E5
:1007B00016050833022011E0083304200EE010482B
:1007C000920014580F4B002C01D1115001E09858A1
:1007D000416099500EE0032000E00520A0540A1C5F
:1007E00008325A608822180700D5C82209880904EF
:1007F0000A431A6062B610BD00F8FF1F000D00200A
:10080000A40D0020BC0D0020F7B5B7490C780E1CD4
:10081000E4B262071DD5B54B1B78002B16D0B44A45
:100820001378DBB2002B05D0013BDBB21370002B39
:1008300000D100BEAF4A1378DBB2002B06D0013BDB
:10084000DBB21370002B01D100F076FDA64D04231E
:100850002B700825221C2A4000D168E2A64BA74C29
:100860001B78DBB29E081F09F600002F00D0F1E1D3
:10087000A619316875688806000F01380C2800D960
:10088000E5E101F06BFE98019801E401E401E40167
:10089000E401E401E401C101E401E401E4010D002B
:1008A0002B68974F6D6897497D603160964D9748EA
:1008B000974900263B6001229BB22E602661A6610B
:1008C00002708B421BD8D021C9008B4200D3EDE0CF
:1008D000812191408B4200D1CAE006D8802B00D103
:1008E000B1E0822B00D1B3E0F9E08A4A934200D113
:1008F000CDE0A022D200934200D133E1EFE086495F
:100900008B4200D12EE112D8902109018B421BD0DD
:1009100082498B4200D14BE1882109018B4200D0F2
:10092000DDE0724B7E4C1B78161C23701CE17D4A67
:10093000934200D1CFE07C4A934200D112E17B4A3E
:10094000934200D0CBE033E1BA78684B1A70A31918
:10095000196A090603D5586A083800F07BFB083687
:10096000C02EF4D100252E1C714AA858002805D0AD
:100970004368019300F06EFB0198F7E76C496D4BFB
:100980006D4A4851E850A858002805D043680193A3
:1009900000F060FB0198F7E7684B694AE850730084
:1009A000D0526549674B4851F05C0238032807D89C
:1009B00001F0CAFD02040204002200E001229A555F
:1009C00001360435062ECFD15F4A0023137001256E
:1009D000161C5E4BEA185E4B9200EB18013B1B782D
:1009E0001370190720D500F017FB6B01002805D004
:1009F000E21808305060574AE25003E0E050337884
:100A00000133337000F008FB0122AB001343DB001D
:100A1000002805D0E218083050603A4AE25003E05E
:100A2000E050337801333370AB0002221A43D20016
:100A30000021A1500322134393400135E150072DBB
:100A4000C7D10E1C8FE0364C2670667002268BE0F4
:100A5000BB88062B43D8324C3F4D9B0026706670F6
:100A60005B191B780226334200D17DE022707BE0C7
:100A7000BB887F221A40062A31DC7E88002E2ED1C8
:100A800035499B005B181A7802218A4325E0BB8810
:100A90007F221A40062A22DC7E88002E1FD12E4A91
:100AA0009B009B181A7802210A4316E07A88B988BD
:100AB0002A4B5C68002C12D01888904209D15888C3
:100AC000884206D1120A032A01D126784CE01E89F9
:100AD0004AE00C33EDE7BA78214B1A7043E01E4B25
:100AE0000F221A7064E0C04680200740E70D002006
:100AF000610D0020FE0D00209020074000F8FF1F30
:100B0000D40D0020C8004000E40C0020E80D0020B7
:100B10008106000002030000210A000021090000F4
:100B2000DF0D0020212200002123000021200000F1
:100B3000480D0020E80C0020A40D0020BC0D002072
:100B400004100020000D0020DE0D002030C8011030
:100B50005031000088004000C0200740583100009C
:100B60000C0E00200026341CFB889E4200D91E1C5F
:100B7000371E402F00D94027201C391CFFF782FD6B
:100B8000E419F61B03D1351C402F04D010E040259A
:100B9000B54200D9351C201C291CFFF773FD6419D0
:100BA000761B01D1402D03D17C4D7D4B2C601E80E6
:100BB00001227C4B4AE07C4C7C4B22889A4211D12A
:100BC0000023E95C7A4AD1540133072BF9D1136829
:100BD0000735862B02D1774B0F221A700020011C9B
:100BE000FFF750FD744B216899420AD16268734B3C
:100BF0009A4206D12A78724B0020011C1A70FFF726
:100C000041FD704B336022E0644F3D68002D13D0EE
:100C1000634A1688341E402C00D94024281C211C0D
:100C2000FFF730FD361B5E4BB6B21E80002E01D1A1
:100C3000402C00D12E193E605B4BA0221988D200B7
:100C4000914204D100225A709A785F4B1A700122A7
:100C5000544B60E0A4196068013F0838FFB22B4094
:100C600036D000F0F7F95949B8004258584B002ADD
:100C70001BD055684550111CD85D083161600328B0
:100C80000BD801F061FC02040608032104E00221F4
:100C900002E0052100E00421D9558823260700D56C
:100CA000C8231288120413433CE0D85D032808D8F7
:100CB00001F04AFC39390204002200E00122DA5531
:100CC00031E02C40624262410324A41ADC552AE040
:100CD00062880280002A20D03E4D43804360BB00E2
:100CE0005E593D49002E01D1585101E0CD58686050
:100CF000C8503A4B7F00F95A5218FA5200F08CF95A
:100D0000002804D00830606021070AD507E0344B82
:100D100020601A7801321A7005E02C4201D0294B6C
:100D200000E0304B2360304A082313706DE501204A
:100D300004421ED01B4902230B702C4B294C1A7005
:100D40002B4B2C4D1C609C602B4C1A61DC609A6113
:100D50005D602A4B0D241C70294CFF2323701A4C14
:100D600033702270274A1370274B9F221A70087025
:100D700013E063B2002B04DA204B0D221A7080239B
:100D8000337002231C4204D01D4A1178C9B211707D
:100D9000337010231C4200D03370F7BDE40C0020E8
:100DA000DC0D002094200740D40D002021200000FD
:100DB00010100020610D0020210900020200010036
:100DC000E90D0020C800400098200740A40D002035
:100DD000000D0020480D0020E80C00200410002029
:100DE000DE0D00208800400080200740600D0020BC
:100DF00000F8FF1F080D0020640D0020C0200740F0
:100E0000882007408C2007408420074010B501F05F
:100E10005BF900221A4B0021D1509818083241602A
:100E2000C82AF7D1174A80201468C00220431060F6
:100E3000180A154AC0B21070180C144AC0B21070CB
:100E4000134A1B0E1370134AFF231370124A1348E0
:100E50001370134A13700122027012480170124974
:100E60000A70124A116899430B1C70210B431360DE
:100E70000F4B802252041A600E4B10221A7010BDC4
:100E800000F8FF1F348004409C200740B02007403A
:100E9000B420074080200740882007409420074066
:100EA00010200740002107408420074018E400E09C
:100EB00000E100E0082107401F2807D828230A285E
:100EC0000BD000230B2808D12B2306E000237F281A
:100ED00003D8034B181820380378181C7047C046F5
:100EE000F030000038B5194D194B01201B78002B4C
:100EF00029D0FFF7FFFB032804D9013D154B002D36
:100F000017D119E000F088F8041EF6D0124B1349EF
:100F10001B7806220372124B1B7843720A3001F0D1
:100F200049FE082301202380211CFFF72FFC00200D
:100F30000AE01A78002A03D001221A70101C02E07D
:100F400000F026FAD0E7404238BDC0469953000071
:100F5000E70D0020F40D0020F20D0020EC0D002024
:100F6000F30D002038B5094C094D0023297020707D
:100F70006370A370E37023716371FFF7B3FF002800
:100F800003D128702070FFF7ADFF38BDEC0D0020B5
:100F9000F20D002008B5FFF78FFF011E06D03F209D
:100FA00008404906C90F4900FFF7DCFF08BDFFFFF5
:100FB00042B208B5164B002A02DB00221A600BE091
:100FC000BF2813D83F2210401A68012A07D10022F7
:100FD0001A60104B1B881843FFF7DCFF17E0022A4A
:100FE00015D10C4A80011188084305E0DF2806D896
:100FF0001F221040074A80011080012206E0FF22D4
:10100000EF2803D8034A0003108002221A6008BDAB
:10101000F80D0020EA0D002038B572B60B4C25689B
:10102000281C01F0F5FA1D2802D962B600200CE058
:1010300080231B06C3409D43256062B64823584366
:10104000034B181800230360436038BD7002002072
:1010500000FAFF1F10B5041C0E484821201A01F0A9
:1010600087FA1D2815D80C4B1B78002B07D00B4B8B
:101070001B78002B03D0201CFFF74EFB09E072B653
:101080008022074B1206C240101C1A6810431860D9
:1010900062B610BD00FAFF1FDE0D0020E70D002034
:1010A00070020020F7B5031C051C0C1C0192803354
:1010B00001D17F256D42231C803301D17F246442FE
:1010C000019B803302D17F235B420193174F184B62
:1010D0001B78002B27D00520FFF70CFB154E0228AC
:1010E00003D9013F002F15D117E0FFF795FF011E2F
:1010F000F7D001230372104B85721B78C4724372C0
:10110000019B00270373052008803770FFF73EFB23
:10111000381C0AE03378002B02D00123337002E040
:1011200000F036F9D3E701204042FEBD293200002D
:10113000E70D0020FD0D0020FC0D002038B5114CFE
:101140002368002B0CD020684288531C8218157A23
:101150000288934212D3FFF77DFF002323600EE045
:10116000094B1B78002B02D10120404208E00320EC
:10117000FFF7A6FA20600028E5D1F5E74380281C98
:1011800038BDC046080E0020E70D002010B50D4CFC
:101190002368002B03D02368002B0ED103E00A4BF9
:1011A0001B78002B02D10120404209E00320FFF709
:1011B00087FA20600028EED1F5E75A889B18187A44
:1011C00010BDC046080E0020E70D0020054B988892
:1011D000054B1B68002B03D01A885B88D31AC018F4
:1011E0007047C04604100020080E0020F7B5304DAF
:1011F0000123071C0C1C2B70002C56D02D4E306880
:10120000002827D12C4A01922C4B1B78DBB2002BF3
:1012100003D12B700120404249E00420FFF76AFA15
:10122000072808D801232B70FFF7F6FE214B186022
:1012300000280FD128700198214B01380190002817
:1012400002D01A78002A02D001221A70E2E700F0D8
:101250009FF8D9E71A4B002231681A704B8840205A
:10126000C01A0094844200D90090181C009A0830DB
:101270009B1808184B800190A41A00230098834201
:1012800004D0F85C019AD0540133F7E7FF184B887B
:101290003F2B06D940230B800420FFF777FA002369
:1012A0003360084B05221A70A6E72C70201CFEBD87
:1012B000FF0D0020000E002009750000E70D002042
:1012C000040E0020FE0D002007B56B46D8710733D1
:1012D000181C0121FFF78AFF0EBDFFFFF8B5124B66
:1012E0001B78002B1ED0114F114B3C6801261E703D
:1012F000104D002C09D000262E7063880420238016
:10130000211CFFF743FA3E6009E0FFF785FE011E4E
:1013100004D004202C70FFF739FA00E02E70044A44
:1013200000231370F8BDC046E70D0020000E00201A
:10133000FF0D0020FE0D002038B50E4B1D78EDB2DC
:10134000002D15D10C4C2168002906D04B880420B3
:101350000B80FFF71BFA25600AE0FFF75DFE011E18
:1013600003D00420FFF712FA02E0044B01221A70A6
:1013700038BDC046FF0D0020000E0020FE0D0020ED
:1013800008B5FFF775F8FFF774F800F001F8FAE711
:1013900010B5104C2378002B1BD101232370FFF7CD
:1013A00015FF002801D001F076F800F0FBF90028C5
:1013B00001D000F038FF00F0E5FB002801D000F07C
:1013C000B6FF00F0CFFD002801D001F034F8002373
:1013D000237010BD0D0E00201B4B1C4A19781C4BAE
:1013E000082901D1002102E00A2903D13821116026
:1013F000132206E00C2901D1342100E03C211160C8
:1014000012221A60134B1A78134B002A01D00022C3
:1014100000E001221A60114B1A78114B012A01D801
:1014200080220CE0042A01D8842208E0082A01D88E
:10143000852204E0102A01D8862200E087221A6063
:10144000084B01221A7070477402002008B0034054
:101450000CB003400F0E002020B0034075020020A6
:1014600024B003400E0E0020024B1A6801321A60AD
:101470007047C046E00C002010B50B4C23685A039F
:1014800001D5FFF7C1F923685A0501D500F0DCF951
:1014900023681A0501D500F0C7FB2368DA04ECD5F0
:1014A00000F0B2FDE9E7C0463480044008B5FFF71C
:1014B000E3FFFFFF014B00221A60704700810440E8
:1014C0007047FFFF024A136818181060181C704715
:1014D00078020020EFF31383002B21D1EFF3108368
:1014E000002083421ED1EFF30583002B0ED00F2B7B
:1014F0000ED91A1C103A92080B490320920003409F
:10150000521883401068D840C0B201E080204000EB
:10151000EFF31182002A05D0824203D2101C01E0B1
:10152000012040427047C04600E400E0164B802294
:101530001968D2000A431A60144A00231370144A2F
:1015400014491370144A1370144A1370144A137018
:10155000144A1160144AD12189001160134AC10450
:10156000C90EC0B21170507093702C23D370104B01
:10157000FF22196891430A1C40210A431A600D4B4F
:10158000802252011A60704734800440930E00207C
:10159000110E0020130300009C0E0020940E00206A
:1015A000100E002040A0044044A0044000A00640CB
:1015B0000CE400E000E100E010B5124B1322997832
:1015C0009143032202400A43410701D510210A43F7
:1015D0009A700F220B490240042A03D18A794024D1
:1015E00022438A715A7910218A43084200D00A4363
:1015F0005A719A7910218A43840600D50A439A7158
:1016000010BDC04600A0064008B50E4B1B685A0529
:1016100017D50D4B1B78DBB2002B02D0FFF7B8FEBD
:10162000F7E70A4A802149011160094A0949D37044
:101630000422FF320A6008490A60084A1370084A07
:10164000137008BD34800440100E002080E100E0DB
:1016500000A0064040A0044044A00440930E002097
:10166000110E002038B5041C0B4B1D78EDB2002D77
:10167000FAD1201C0121FEF745FF291C201CFEF792
:1016800021FF0C225443054B054AE1581C191160F7
:10169000044B227A1A7038BD100E0020AC2F0000C7
:1016A000980E0020920E0020F8B5214B071C1B68F5
:1016B0005A053BD51F4B1B68002B02D01E4A1278DF
:1016C0001A711E4E002334783F220134A2425B413E
:1016D0005B421C401A4D2B78A3421CD1FFF7FAFE47
:1016E000402813DC174A13795BB2002BF2DA2B780F
:1016F000002101333F209842494149420B401249A1
:10170000C95CDBB2C9B2D1712B70E3E7FF28E1DD20
:10171000FFF73EFEDEE70C4BFFB21F550B4B0122DD
:101720001A70084BE4B2AC223470DA70F8BDC046CF
:1017300034800440980E0020920E00209C0E002061
:10174000940E002000A00640120E0020100E002073
:1017500038B5041C4518AC4204D02078FFF7A4FF2C
:101760000134F8E738BDFFFF08B5044B1B78002BA8
:1017700002D0FFF70DFEF8E708BDC046100E0020AE
:10178000064B074A1B781078DBB2C0B2834201D304
:101790003F3000E00138C01A7047C0469C0E002060
:1017A000940E0020054B1878054BC0B21B78DBB2B5
:1017B000984200D24030C01A7047C046930E0020B5
:1017C000110E00200A4B0B4A19781378DBB29942AC
:1017D0000BD001333F2000219842494149420B4040
:1017E0000549C85CDBB2137001E00120404270473C
:1017F000930E0020110E0020520E00200A4B1A7882
:101800000A4B1B78DBB29A420AD0013300223F21F7
:101810009942524152421340054AD05CC0B201E0A5
:10182000012040427047C046930E0020110E002058
:10183000520E0020024B1A78024BD2B21A70704737
:10184000110E0020930E002030B5254A1379990619
:1018500012D52449D4790B78002001333F259D42CD
:101860004041404203402048E4B20078834203D024
:101870001E48C454DBB20B70D178194CC9B24BB2BC
:10188000002B1ADA23795BB2002B16DA184B1948B1
:101890001D780378DBB29D4202D16C23E3700CE02B
:1018A000013300243F259D42644164422340124C91
:1018B000E45CDBB2E4B2D4710370402319420ED071
:1018C000117919420BD00D4B002119700C4B1B687C
:1018D0008B4202D00B49097819722C23D37030BD8A
:1018E00000A00640930E0020110E0020520E002092
:1018F0009C0E0020940E0020120E0020100E0020DE
:10190000980E0020920E0020164B802219681201BA
:101910000A431A60144A00231370144A14491370BE
:10192000144A1370144A1370144A1370144A116045
:10193000144AD12189001160134AC104C90EC0B2F2
:101940001170507093702C23D370104B104A19688B
:101950000A408021C9010A431A600E4B802292017D
:101960001A60704734800440080F00209E0E00204B
:1019700013030000100F0020090F00209D0E00200F
:101980000CB0044010B0044000B006400CE400E08D
:10199000FF00FFFF00E100E010B5124B1322997821
:1019A0009143032202400A43410701D510210A4313
:1019B0009A700F220B490240042A03D18A794024ED
:1019C00022438A715A7910218A43084200D00A437F
:1019D0005A719A7910218A43840600D50A439A7174
:1019E00010BDC04600B0064008B50E4B1B681A0576
:1019F00017D50D4B1B78DBB2002B02D0FFF7C8FCCC
:101A0000F7E70A4A802189011160094A0949D37020
:101A10000422FF320A6008490A60084A1370084A23
:101A2000137008BD348004409D0E002080E100E06A
:101A300000B006400CB0044010B00440080F002075
:101A40009E0E002038B5041C0B4B1D78EDB2002D06
:101A5000FAD1201C0121FEF755FD291C201CFEF7A0
:101A600031FD0C225443054B054AE1581C19116005
:101A7000044B227A1A7038BD9D0E0020AC2F000056
:101A80000C0F0020070F0020F8B5214B071C1B6826
:101A90001A053BD51F4B1B68002B02D01E4A12783B
:101AA0001A711E4E0023347827220134A2425B4172
:101AB0005B421C401A4D2B78A3421CD1FFF70AFD54
:101AC000402813DC174A13795BB2002BF2DA2B782B
:101AD0000021013327209842494149420B401249D5
:101AE000C95CDBB2C9B2D1712B70E3E7FF28E1DD3D
:101AF000FFF74EFCDEE70C4BFFB21F550B4B0122EC
:101B00001A70084BE4B2AC223470DA70F8BDC046EB
:101B1000348004400C0F0020070F0020100F00201D
:101B2000090F002000B006409F0E00209D0E0020EF
:101B300038B5041C4518AC4204D02078FFF7A4FF48
:101B40000134F8E738BDFFFF08B5044B1B78002BC4
:101B500002D0FFF71DFCF8E708BDC0469D0E00202F
:101B6000064B074A1B781078DBB2C0B2834201D320
:101B7000273000E00138C01A7047C046100F00201F
:101B8000090F0020054B1878054BC0B21B78DBB25B
:101B9000984200D24030C01A7047C046080F00205B
:101BA0009E0E00200A4B0B4A19781378DBB299423B
:101BB0000BD001333F2000219842494149420B405C
:101BC0000549C85CDBB2137001E001204042704758
:101BD000080F00209E0E0020C70E00200A4B1A7826
:101BE0000A4B1B78DBB29A420AD0013300223F2114
:101BF0009942524152421340054AD05CC0B201E0C2
:101C0000012040427047C046080F00209E0E002071
:101C1000C70E0020024B1A78024BD2B21A707047DE
:101C20009E0E0020080F002030B5254A1379990632
:101C300012D52449D4790B78002001333F259D42E9
:101C40004041404203402048E4B20078834203D040
:101C50001E48C454DBB20B70D178194CC9B24BB2D8
:101C6000002B1ADA23795BB2002B16DA184B1948CD
:101C70001D780378DBB29D4202D16C23E3700CE047
:101C80000133002427259D42644164422340124CC5
:101C9000E45CDBB2E4B2D4710370402319420ED08D
:101CA000117919420BD00D4B002119700C4B1B6898
:101CB0008B4202D00B49097819722C23D37030BDA6
:101CC00000B00640080F00209E0E0020C70E002026
:101CD000100F0020090F00209F0E00209D0E0020F5
:101CE0000C0F0020070F0020164B802219685201AC
:101CF0000A431A60144A00231370144A14491370DB
:101D0000144A1370144A1370144A1370144A116061
:101D1000144AD12189001160134AC104C90EC0B20E
:101D20001170507093702C23D370104B104A1968A7
:101D30000A408021C9030A431A600E4B8022D20157
:101D40001A607047348004407C0F0020120F00207E
:101D500013030000840F00207D0F0020110F0020CE
:101D600008C004400CC0044000C006400CE400E081
:101D7000FFFF00FF00E100E010B5124B132299783D
:101D80009143032202400A43410701D510210A432F
:101D90009A700F220B490240042A03D18A79402409
:101DA00022438A715A7910218A43084200D00A439B
:101DB0005A719A7910218A43840600D50A439A7190
:101DC00010BDC04600C0064008B50E4B1B68DA04C3
:101DD00017D50D4B1B78DBB2002B02D0FFF7D8FADA
:101DE000F7E70A4A8021C9011160094A0949D370FD
:101DF0000422FF320A6008490A60084A1370084A40
:101E0000137008BD34800440110F002080E100E011
:101E100000C0064008C004400CC004407C0F0020F5
:101E2000120F002038B5041C0B4B1D78EDB2002DAD
:101E3000FAD1201C0121FEF765FB291C201CFEF7AE
:101E400041FB0C225443054B054AE1581C19116013
:101E5000044B227A1A7038BD110F0020AC2F0000FD
:101E6000800F00207B0F0020F8B5214B071C1B685A
:101E7000DA043BD51F4B1B68002B02D01E4A127898
:101E80001A711E4E0023347827220134A2425B418E
:101E90005B421C401A4D2B78A3421CD1FFF71AFB62
:101EA000402813DC174A13795BB2002BF2DA2B7847
:101EB0000021013327209842494149420B401249F1
:101EC000C95CDBB2C9B2D1712B70E3E7FF28E1DD59
:101ED000FFF75EFADEE70C4BFFB21F550B4B0122FA
:101EE0001A70084BE4B2AC223470DA70F8BDC04608
:101EF00034800440800F00207B0F0020840F0020DE
:101F00007D0F002000C00640130F0020110F00209D
:101F100038B5041C4518AC4204D02078FFF7A4FF64
:101F20000134F8E738BDFFFF08B5044B1B78002BE0
:101F300002D0FFF72DFAF8E708BDC046110F0020C8
:101F4000064B074A1B781078DBB2C0B2834201D33C
:101F5000273000E00138C01A7047C046840F0020C7
:101F60007D0F0020054B1878054BC0B21B78DBB203
:101F7000984200D24030C01A7047C0467C0F002003
:101F8000120F00200A4B0B4A19781378DBB29942E2
:101F90000BD001333F2000219842494149420B4078
:101FA0000549C85CDBB2137001E001204042704774
:101FB0007C0F0020120F00203B0F00200A4B1A78E4
:101FC0000A4B1B78DBB29A420AD0013300223F2130
:101FD0009942524152421340054AD05CC0B201E0DE
:101FE000012040427047C0467C0F0020120F0020A5
:101FF0003B0F0020024B1A78024BD2B21A70704786
:10200000120F00207C0F002030B5254A1379990665
:1020100012D52449D4790B78002001333F259D4205
:102020004041404203402048E4B20078834203D05C
:102030001E48C454DBB20B70D178194CC9B24BB2F4
:10204000002B1ADA23795BB2002B16DA184B1948E9
:102050001D780378DBB29D4202D16C23E3700CE063
:102060000133002427259D42644164422340124CE1
:10207000E45CDBB2E4B2D4710370402319420ED0A9
:10208000117919420BD00D4B002119700C4B1B68B4
:102090008B4202D00B49097819722C23D37030BDC2
:1020A00000C006407C0F0020120F00203B0F0020D4
:1020B000840F00207D0F0020130F0020110F00203F
:1020C000800F00207B0F00201FB572B6154B7022C9
:1020D0001A70154A41211170144A0F211170802283
:1020E0001A701A7852B2002AFBDA114B186862B6DD
:1020F000104B984201D80A23584301AC211C0A22F4
:1021000000F0E9F90023E15C0B4A002905D05800F2
:102110001018013341800A2BF5D101335B00137095
:102120001FBDC046000002400700024006000240FA
:10213000080002407F9698006E04002008B50368EE
:10214000C9B21B68984708BD08B50368C9B21B68C7
:10215000984708BD08B50368C9B21B68984708BD11
:1021600008B50368C9B21B68984708BD08B5044B99
:102170004808C01800F0FCF9FFF7D8F908BDC046C0
:10218000C0C62D0010B5064B4808C018141C00F03E
:10219000EFF9FFF7CBF9201CFFF70EFA10BDC04690
:1021A000C0C62D0008B5FFF72FFA08BD08B5081CFA
:1021B000FFF758FA08BD08B5FFF7F4FA08BD08B5EF
:1021C000FFF71CFB08BD08B5FFF7FCFA08BD08B512
:1021D000FFF7CAFA08BD08B5FFF72CFB08BD08B524
:1021E000FFF7CEFA08BD08B5081CFFF75DFA01201D
:1021F00008BD08B5081CFFF757FA012008BD10B547
:10220000081C141C111CFFF7A3FA201C10BD38B5C4
:10221000081C0D1C00F056F9041C211C281CFFF79B
:1022200097FA201C38BD7047044B00221A711A73AC
:10223000FA21034A890099601A607047880F0020CC
:102240000032000008B50368C9B21B68984708BD92
:1022500008B50368C9B21B68984708BD08B503688C
:10226000C9B21B68984708BD08B50368C9B21B68A6
:10227000984708BD08B5044B4808C01800F078F925
:10228000FFF742FB08BDC04660E3160010B5064BE1
:102290004808C018141C00F06BF9FFF735FB201C30
:1022A000FFF77AFB10BDC046C0C62D0008B5FFF78A
:1022B0009BFB08BD08B5081CFFF7C4FB08BD08B5AB
:1022C000FFF760FC08BD08B5FFF788FC08BD08B53E
:1022D000FFF768FC08BD08B5FFF736FC08BD08B578
:1022E000FFF798FC08BD08B5FFF73AFC08BD08B534
:1022F000081CFFF7C9FB012008BD08B5081CFFF743
:10230000C3FB012008BD10B5081C141C111CFFF7ED
:102310000FFC201C10BD38B5081C0D1C00F0D2F8B5
:10232000041C211C281CFFF703FC201C38BD70472F
:10233000044B00221A711A73FA21034A890099602A
:102340001A607047980F00205032000008B50368EB
:10235000C9B21B68984708BD08B50368C9B21B68B5
:10236000984708BD08B50368C9B21B68984708BDFF
:1023700008B50368C9B21B68984708BD08B5044B87
:102380004808C01800F0F4F8FFF7AEFC08BDC046DE
:1023900060E3160010B5064B4808C018141C00F086
:1023A000E7F8FFF7A1FC201CFFF7E6FC10BDC046D4
:1023B00060E3160008B5FFF707FD08BD08B5081C67
:1023C000FFF730FD08BD08B5FFF7CCFD08BD08B527
:1023D000FFF7F4FD08BD08B5FFF7D4FD08BD08B54B
:1023E000FFF7A2FD08BD08B5FFF704FE08BD08B55C
:1023F000FFF7A6FD08BD08B5081CFFF735FD012055
:1024000008BD08B5081CFFF72FFD012008BD10B559
:10241000081C141C111CFFF77BFD201C10BD38B5D7
:10242000081C0D1C00F04EF8041C211C281CFFF792
:102430006FFD201C38BD7047044B00221A711A73BF
:10244000FA21034A890099601A607047A80F00209A
:10245000A032000008B5FEF7B9FE08BD08B5FEF7CA
:102460006DFE08BD08B5FEF791FE08BD08B5FEF784
:1024700035FF08BD08B5081CFEF726FF08BD08B5E6
:10248000081C111CFEF7B2FE08BD08B5081CFEF7BB
:102490008FFD012008BD7047064BFA218900996025
:1024A000054900221A711A731960044B1A71044A03
:1024B0001A607047C00F0020F0320000B80F0020F3
:1024C00010330000021C031C981A0133591E0978AE
:1024D0000029F9D17047F8B5061C0D1C171C002403
:1024E000301C391C00F088F8092901D8303100E08F
:1024F0003731C9B22955301C391C00F039F8061E95
:1025000001D00134ECE72B1958702B1C5A1BA24246
:1025100006DA1A78295D19702A550133013CF5E76E
:10252000281CF8BDF8B5061C0C1C8F180025BC42F1
:1025300007D0336821781B68301C984701342D1868
:10254000F5E7281CF8BDFFFF02B4714649084900B1
:10255000095C49008E4402BC7047C04603B4714612
:10256000490840004900095A49008E4403BC70479D
:10257000002934D00123002210B488422CD3012436
:102580002407A14204D2814202D209011B01F8E7CB
:10259000E400A14204D2814202D249005B00F8E784
:1025A000884201D3401A1A434C08A04202D3001BB0
:1025B0005C0822438C08A04202D3001B9C082243E3
:1025C000CC08A04202D3001BDC082243002803D021
:1025D0001B0901D00909E3E7101C10BC7047002853
:1025E00001D00020C04307B4024802A14018029065
:1025F00003BDC046190000000029F0D003B5FFF765
:10260000B9FF0EBC4243891A1847C0467047C046FE
:102610001C2101231B04984201D3000C10391B0A12
:10262000984201D3000A08391B09984201D30009D6
:10263000043902A2105C40187047C046040302022D
:1026400001010101000000000000000070B50D4E06
:102650000D4D0024AD1BAD1005D0A300F35801347F
:102660009847A542F9D100F05BFE084E084D0024C2
:10267000AD1BAD1005D0A300F35801349847A54217
:10268000F9D170BD2C3300002C3300002C33000036
:102690004433000008B5034B011C186800F004F82F
:1026A00008BDC046B0080020F0B5564644465F4617
:1026B0004D46F0B40C1C0B3483B0061C162C2BD9E1
:1026C00007239C432BD4A14229D8301C00F0B4FA34
:1026D000F823FF339C4226D8E208CA4DD300EB18FA
:1026E000DF689F4200D1BBE178680323FA68B968CC
:1026F00098433B18CA609160596801220A43301C14
:102700005A6000F09BFA381C083003B03CBC90467D
:102710009946A246AB46F0BD1024A142D5D90C2360
:1027200033600020F1E7630A00D18EE0042B00D96A
:102730003DE1A30938339C465900B24D8900691820
:10274000CF68B94215D07A6803239A43101B0F282B
:1027500000DD8DE000287CDA032007E07A68824300
:10276000131B0F2B00DD83E0002B72DAFF68B942E8
:10277000F4D1012294442B1C2F6908339F4200D1CD
:1027800063E1786803229043021C011B0F2900DDDE
:102790004AE16B612B6100295FDA9B4B984200D9BB
:1027A0000FE1C3089A100121DB00EB189140686823
:1027B0000A1C99680243FB60B9606A609F60CF6041
:1027C00061468B1001219940914255D811420DD19B
:1027D000032360469843031C043349009C4611427E
:1027E00004D1042349009C441142FAD003208046BE
:1027F0006246D3005B199A46181CE146C768B84286
:1028000007D124E1002B00DB33E1FF68B84200D19F
:102810001DE17A6843469A43131B0F2BF2DD012119
:102820003A190C437C60F868BC680835E0601943CD
:102830008460EA60AA60301CD56095605160D35016
:1028400000F0FCF9381C08305FE73F227E219446F7
:1028500073E7FB68B968CB609960BA1851680123C7
:102860000B43301C536000F0E9F9381C08304CE78A
:102870000120404284447CE7AF6803237868984392
:102880008146A04203D3031B0F2B00DD81E05F4A8A
:102890005F4B49461B68106879180191E31893460D
:1028A000013000D147E15B495B181B0B1B03009310
:1028B000301C009900F0C4F9021C804601325DD042
:1028C000019B834200D9EBE053480099026882469D
:1028D0008B1801990360414500D135E15A461268D1
:1028E000013200D143E1019841460A1A9B18514632
:1028F0000B6007234246134000D104E1D21A08328C
:102900009046464AD31A0098021C42441205120D02
:102910009A1A111C301C934600F092F9411C00D108
:1029200021E14246801A5844012318435246116857
:102930000B1C5B444146A96013604860AF4213D052
:102940004A460F2A00D8E9E04A46786807210C3A3F
:102950008A4301210140114379600520B91848607C
:1029600088600F2A00D906E12D4A1068834200D9F9
:1029700013602C4A11688B4200D91360AF6803239F
:102980007A689A43131B944200D9AEE00F2B00DC07
:10299000ABE00122211C11433C1913437960301C28
:1029A000AC60636000F04AF9381C0830ADE6142BC7
:1029B0006ED9542B00D99DE0230B6E339C465900F1
:1029C000BBE6430A042B67D9142B00D9B6E0191CC7
:1029D0005B3148008000401983688146834200D102
:1029E00094E0032188465968404681438A4202D2D6
:1029F0009B689945F7D1D9686A68F960BB608F60B8
:102A0000DF60DDE6B4080020FF010000C00C0020FC
:102A1000D80F00200F100000DC0F0020081000006D
:102A2000D40F0020D00F002001203A19044308439E
:102A30007C606A612A615060D3609360301C5150A1
:102A400000F0FCF8381C08305FE66A68B8E601223E
:102A5000914443464A460830134200D0CEE62CE06B
:102A60003B1C7F69023208339446BB4200D182E6A8
:102A70003AE6BA185068012303435360FB68BA680A
:102A8000301CD3609A6000F0D9F8381C08303CE65E
:102A90005B339C46590050E681093831480099E77C
:102AA000AF4200D06AE70FE753461868012252424E
:102AB000083B94448246984277D14346604603429D
:102AC000F2D16B688B436B604900994200D9D3E621
:102AD000002900D1D0E6CC46194200D088E6042275
:102AE000490094441942FAD082E6301C00F0A6F85E
:102AF00000200AE6AA225200934214D8E30B77334F
:102B00009C46590019E680235B01FCE68910686841
:102B100001228A4002436A60191C6EE701234B6060
:102B2000474600222EE7224A934218D8A30C7C3352
:102B30009C46590001E610330093B9E6542B22D885
:102B4000010B6E31480045E70A0500D0C6E6009942
:102B5000AA68081C484401210143516004E77E2310
:102B6000FC219C46E9E5002301209B46DEE6434626
:102B700058460360BDE6391C0831301C00F0EEF801
:102B800051460B68F0E6AA2149008B4203D8C10BDD
:102B9000773148001EE706498B4203D8810C7C310F
:102BA000480017E7FC207E2114E76B688CE7C046DD
:102BB00054050000F0B50F2A35D9031C0B439C07C0
:102BC00035D1161C103E36093501451910350C1C3F
:102BD000031C27681F6067685F60A7689F60E768DD
:102BE0001034DF601033AB42F3D1731C1B01C518E6
:102BF000C9180F231340032B1BD91C1FA408013431
:102C0000A4000023CE58EE500433A342FAD1ED18AD
:102C1000C91803231A4005D00023CC5CEC540133BF
:102C20009342FAD1F0BD051C002AF5D1FAE7051C44
:102C3000F2E71A1CF8E7C0467047C0467047C04626
:102C400038B5074C0023051C081C2360FEF73AFC2E
:102C5000431C00D038BD2368002BFBD02B60F9E764
:102C60001810002008B5034B002B02D0024800F0DA
:102C700005F808BD000000008D2C000008B5011CFF
:102C800000220020002300F031F908BD38B5094BBF
:102C9000094DED1AAD1009D0013DAC00E41800E07B
:102CA000013D23689847043C002DF9D100F04AFB10
:102CB00038BDC0460000000000000000F8B50F1C41
:102CC000041CFFF7B9FF204D204AAB685E68032360
:102CD0009E43F71BBF183F0B1D4B013F3F039F4215
:102CE00007DD201C0021FFF7ABFFAA68931998426B
:102CF00004D0201CFFF7A2FF0020F8BD7942201C61
:102D0000FFF79EFF01300DD0AB68F61B0122164382
:102D10005E60104B201C1A68D71B1F60FFF78EFFE8
:102D20000120EAE7201C0021FFF78AFFAB68C21AE6
:102D30000F2ADEDD08490968401A064908600121AA
:102D40000A435A60D5E7C046B4080020EF0F0000E0
:102D5000FF0F0000DC0F0020C00C0020F0B547463C
:102D600080B4051C0C1E55D0FFF766FF211C0839E6
:102D700048680127031CBB43CA18546880460320D7
:102D80008443201C534CA668964260D00026B4466B
:102D90004646506037420AD10E68271C891B9B1992
:102DA0008E680837BE426BD0CF68F760BE601618D9
:102DB000766801273E4207D11B18604600282CD0B8
:102DC0009068D268C26090600122181C1043664669
:102DD0004860CB50002E1AD13F48834229D95A0A65
:102DE000042A50D89E093836700080002018826866
:102DF00082424ED003265468B443A34202D2926862
:102E00009042F8D1D368CB608A609960D160281C69
:102E1000FFF714FF04BC9046F0BD90682F4EB042FF
:102E2000CFD11F43C1608160C86088604F60CB50C4
:102E3000EDE7DB08981082406068DB0002436260C7
:102E4000E418A368CC608B60A160D960DFE7C31889
:102E50004046074206D10A68891A88689B18CA68E2
:102E6000C260906001221A434A601D4AA160126844
:102E70009342CCD31B4B281C1968FFF71FFFC6E7F2
:102E80000126B44693E7142A0CD8161C5B36700052
:102E9000ABE7B6100123B3401E1C63681E43666097
:102EA000131CB0E7542A03D81E0B6E3670009CE743
:102EB000AA204000824203D8DE0B7736700094E7E8
:102EC0000948824203D89E0C7C3670008DE7FC20B6
:102ED0007E268AE7B4080020FF010000BC0800201D
:102EE000BC0C0020D80F002054050000F0B54F4660
:102EF0004646C0B498462B4BA4251B686D005C5910
:102F000083B0061C0F1C91460193002C44D06568C9
:102F10001F2D1ADD244B002B02D1012040421CE062
:102F2000C8204000FFF7B6FB041EF6D00025456020
:102F3000A42301985B00C05801992060CC50C423A1
:102F40005B00E550C6235B00E550002E0AD16B1CE8
:102F50000235AD00636000202F5103B00CBC9046D9
:102F60009946F0BDAB00E318882248469850C4202B
:102F70004000221810680121A940084310608422F3
:102F8000520040469850022EE1D1C6225200A318AA
:102F9000186801431960DAE71C1C4D34FF345C519A
:102FA000B5E7C0461C33000095260000420000F83B
:102FB00040A0044001000000420000F844A004408A
:102FC00002000000C00000F800C004400100000042
:102FD000000000F80490044002000000000000F827
:102FE0000890044004000000C00000F81CC0044029
:102FF00080000000C00000F810C004401000000075
:10300000C00000F808C0044004000000C00000F840
:103010000CC0044008000000800000F80CB0044020
:1030200008000000800000F810B00440100000000C
:10303000800000F818B0044040000000800000F854
:103040001CB0044080000000800000F814B0044070
:1030500020000000C00000F804C00440020000008E
:10306000800000F800B0044001000000400000F8BB
:1030700000A0044001000000400000F804A004404B
:1030800002000000400000F80CA00440080000000E
:10309000400000F808A0044004000000C00000F850
:1030A00014C0044020000000C00000F818C0044014
:1030B00040000000800000F804B00440020000005E
:1030C000800000F808B0044004000000020100F88D
:1030D00050D0044010000000020100F854D0044019
:1030E00020000000030100F878D0044040000000F8
:1030F0002C5E7460616264346667656E362D3738A5
:10310000271E1F202122232425267333762E77782D
:103110005F4445464748494A4B4C4D4E4F505152EB
:10312000535455565758595A5B5C5D2F3130636D77
:10313000350405060708090A0B0C0D0E0F101112B5
:10314000131415161718191A1B1C1D6F7170752A88
:10315000151519151515FFFF00010000C10200200B
:103160001200000000020000EC02002096000000A7
:10317000002202008203002055000000002102000E
:103180004003002009000000002203007C02002010
:103190004500000000210300590300200900000041
:1031A00000220400D7030020550000000021040085
:1031B0007203002009000000000300006A040020E0
:1031C0000000000001030904D402002000000000F8
:1031D000020309042C04002000000000030309047A
:1031E0006E0400200000000000000000000000004D
:1031F00000000000FFFFFFFF0000000000000000D3
:10320000E7210000FF210000B7210000C7210000D6
:10321000BF210000CF2100006D21000085210000AA
:10322000A5210000AD210000D7210000DF21000012
:103230003D210000492100005521000061210000CE
:103240000F220000F3210000000000000000000039
:10325000EF22000007230000BF220000CF22000061
:10326000C7220000D7220000752200008D22000036
:10327000AD220000B5220000DF220000E72200009E
:1032800045220000512200005D220000692200005A
:1032900017230000FB2200000000000000000000D7
:1032A000F72300000F240000C7230000D7230000ED
:1032B000CF230000DF2300007D23000095230000C2
:1032C000B5230000BD230000E7230000EF2300002A
:1032D0004D230000592300006523000071230000E6
:1032E0001F24000003240000000000000000000074
:1032F000752400007F240000552400005D24000098
:10330000652400006D2400000000000000000000A3
:103310008B240000252500004300000088040020C5
:10332000F8B5C046F8BC08BC9E467047652C000046
:103330003904000029220000312300003924000054
:0433400099240000CC
:04334400F8B5C046D2
:10334800FFFFFFFF0A0400001C100020050109020E
:10335800A10185010509190129081500250195080C
:103368007501810205010930093109381581257F68
:10337800750895038106C005010902A101850205AA
:103388000109300931150026FF7F75109502810269
:10339800C012010002EF020140C0168704000101BB
:1033A8000203010018035400650065006E007300F5
:1033B80079006400750069006E006F0009029600CC
:1033C800050100C032080B000202020104090400D2
:1033D8000001020201000524001001052401010179
:1033E8000424020605240600010705820310004094
:1033F80009040100020A000000070503024000005A
:1034080007058402400000090402000103010100CD
:103418000921110100012255000705810308000157
:103428000904030001030000000921110100012221
:10343800450007058503080002090404000103008C
:10344800000009211101000122550007058603101B
:10345800000105010906A10175019508050719E094
:1034680029E7150025018102950875011500250138
:10347800050C09E909EA09E209CD09B509B609B750
:1034880009B88102950575010508190129059102F8
:10349800950175039103950675081500257F0507A5
:1034A8001900297F8100C005010904A10115002523
:1034B80001750195200509190129208102150025AA
:1034C800073500463B017504950165140501093966
:1034D800814205010901A100150026FF03750A951F
:1034E8000409300931093209358102C0150026FF67
:1034F80003750A9502093609368102C03E03530056
:1035080065007200690061006C002F004B006500C7
:10351800790062006F006100720064002F004D00A6
:103528006F007500730065002F004A006F00790076
:1035380073007400690063006B00040309040C0342
:103548000000000000000000000000000000000073
:1035580000000000000000000000000074070020C8
:10356800DC070020440800200000000000000000E4
:103578000000000000000000000000000000000043
:1035880000000000000000000000000018330000E8
:103598000000000000000000000000000000000023
:1035A8000000000000000000000000000000000013
:1035B8000000000000000000000000000000000003
:1035C80000000000000000000000000000000000F3
:1035D80000000000000000000000000000000000E3
:1035E80000000000000000000000000000000000D3
:1035F80000000000000000000000000000000000C3
:1036080001000000000000000E33CDAB34126DE65F
:10361800ECDE05000B0000000000000000000000C8
:103628000000000000000000000000000000000092
:103638000000000000000000000000000000000082
:103648000000000000000000000000000000000072
:103658000000000000000000000000000000000062
:10398800880400200000000000000000B4080020A7
:10399800B4080020BC080020BC080020C40800208F
:1039A800C4080020CC080020CC080020D40800203F
:1039B800D4080020DC080020DC080020E4080020EF
:1039C800E4080020EC080020EC080020F40800209F
:1039D800F4080020FC080020FC080020040900204E
:1039E800040900200C0900200C09002014090020FB
:1039F800140900201C0900201C09002024090020AB
:103A0800240900202C0900202C090020340900205A
:103A1800340900203C0900203C090020440900200A
:103A2800440900204C0900204C09002054090020BA
:103A3800540900205C0900205C090020640900206A
:103A4800640900206C0900206C090020740900201A
:103A5800740900207C0900207C09002084090020CA
:103A6800840900208C0900208C090020940900207A
:103A7800940900209C0900209C090020A40900202A
:103A8800A4090020AC090020AC090020B4090020DA
:103A9800B4090020BC090020BC090020C40900208A
:103AA800C4090020CC090020CC090020D40900203A
:103AB800D4090020DC090020DC090020E4090020EA
:103AC800E4090020EC090020EC090020F40900209A
:103AD800F4090020FC090020FC090020040A002049
:103AE800040A00200C0A00200C0A0020140A0020F6
:103AF800140A00201C0A00201C0A0020240A0020A6
:103B0800240A00202C0A00202C0A0020340A002055
:103B1800340A00203C0A00203C0A0020440A002005
:103B2800440A00204C0A00204C0A0020540A0020B5
:103B3800540A00205C0A00205C0A0020640A002065
:103B4800640A00206C0A00206C0A0020740A002015
:103B5800740A00207C0A00207C0A0020840A0020C5
:103B6800840A00208C0A00208C0A0020940A002075
:103B7800940A00209C0A00209C0A0020A40A002025
:103B8800A40A0020AC0A0020AC0A0020B40A0020D5
:103B9800B40A0020BC0A0020BC0A0020C40A002085
:103BA800C40A0020CC0A0020CC0A0020D40A002035
:103BB800D40A0020DC0A0020DC0A0020E40A0020E5
:103BC800E40A0020EC0A0020EC0A0020F40A002095
:103BD800F40A0020FC0A0020FC0A0020040B002044
:103BE800040B00200C0B00200C0B0020140B0020F1
:103BF800140B00201C0B00201C0B0020240B0020A1
:103C0800240B00202C0B00202C0B0020340B002050
:103C1800340B00203C0B00203C0B0020440B002000
:103C2800440B00204C0B00204C0B0020540B0020B0
:103C3800540B00205C0B00205C0B0020640B002060
:103C4800640B00206C0B00206C0B0020740B002010
:103C5800740B00207C0B00207C0B0020840B0020C0
:103C6800840B00208C0B00208C0B0020940B002070
:103C7800940B00209C0B00209C0B0020A40B002020
:103C8800A40B0020AC0B0020AC0B0020B40B0020D0
:103C9800B40B0020BC0B0020BC0B0020C40B002080
:103CA800C40B0020CC0B0020CC0B0020D40B002030
:103CB800D40B0020DC0B0020DC0B0020E40B0020E0
:103CC800E40B0020EC0B0020EC0B0020F40B002090
:103CD800F40B0020FC0B0020FC0B0020040C00203F
:103CE800040C00200C0C00200C0C0020140C0020EC
:103CF800140C00201C0C00201C0C0020240C00209C
:103D0800240C00202C0C00202C0C0020340C00204B
:103D1800340C00203C0C00203C0C0020440C0020FB
:103D2800440C00204C0C00204C0C0020540C0020AB
:103D3800540C00205C0C00205C0C0020640C00205B
:103D4800640C00206C0C00206C0C0020740C00200B
:103D5800740C00207C0C00207C0C0020840C0020BB
:103D6800840C00208C0C00208C0C0020940C00206B
:103D7800940C00209C0C00209C0C0020A40C00201B
:103D8800A40C0020AC0C0020AC0C002000000200A9
:043D9800FFFFFFFF2B
:00000001FF
