:1000000000180020C1000000811600004D160000FD
:100010004D1600004D1600004D1600004D16000054
:100020004D1600004D1600004D1600008116000010
:10003000811600004D160000811600003D160000DC
:100040008116000081160000811600008116000054
:100050008116000081160000811600008116000044
:100060008116000081160000811600008116000034
:10007000F5070000E10B0000CD0F00008116000025
:100080008116000081160000811600008116000014
:100090008116000081160000811600008116000004
:1000A000951A0000811600008116000081160000DC
:1000B00081160000811600008116000081160000E4
:1000C00038B501F0E1FA434A434B1A60434A444BC6
:1000D0001A60444A444B1A60444B08221978114272
:1000E00002D019780A431A70414B2A221A70002351
:1000F000404A41499A188A4204D24049C9580433B7
:100100001160F5E73E4B3F491A1F181D00238A4234
:1001100002D21360031CF6E73B493C4A5958101CB5
:1001200099500433C02BF7D100239A083849920024
:10013000521803211940C9001568FF248C40A543BB
:100140002C1C80258D40291C214301331160202B5C
:10015000EBD1304B8A2218602F4B1A702F4B242280
:100160001A702F4BA0221A701A1C2E4B1978880770
:10017000FBD51978CD06FCD418780C21014008294C
:10018000FAD12949032008702849402008701978BD
:100190008806FCD519784D06FCD525492548086008
:1001A0002021117019780C220A400C2AFAD1224A17
:1001B000224B1A60224A234B1A60234B07221A60F3
:1001C00062B601F041FB02F0E5F801F063FA00F0DD
:1001D00051F9FEE7300004F034800440823F000013
:1001E000388004400100000F3C80044002D00740EA
:1001F00000E0074060FDFF1F30020020D427000010
:10020000340200200C0500200000000000F9FF1F50
:1002100000E400E008ED00E0005006400140064028
:1002200000400640064006400440064005400640A7
:100230004480044000000110C00005050480044013
:100240007FBB000014E000E010E000E0FFFFFFFFD4
:10025000FFFFFFFFFFFFFFFFFFFFFFFFFFFFFFFFAE
:10026000FFFFFFFFFFFFFFFFFFFFFFFFFFFFFFFF9E
:10027000FFFFFFFFFFFFFFFFFFFFFFFFFFFFFFFF8E
:10028000FFFFFFFFFFFFFFFFFFFFFFFFFFFFFFFF7E
:10029000FFFFFFFFFFFFFFFFFFFFFFFFFFFFFFFF6E
:1002A000FFFFFFFFFFFFFFFFFFFFFFFFFFFFFFFF5E
:1002B000FFFFFFFFFFFFFFFFFFFFFFFFFFFFFFFF4E
:1002C000FFFFFFFFFFFFFFFFFFFFFFFFFFFFFFFF3E
:1002D000FFFFFFFFFFFFFFFFFFFFFFFFFFFFFFFF2E
:1002E000FFFFFFFFFFFFFFFFFFFFFFFFFFFFFFFF1E
:1002F000FFFFFFFFFFFFFFFFFFFFFFFFFFFFFFFF0E
:10030000FFFFFFFFFFFFFFFFFFFFFFFFFFFFFFFFFD
:10031000FFFFFFFFFFFFFFFFFFFFFFFFFFFFFFFFED
:10032000FFFFFFFFFFFFFFFFFFFFFFFFFFFFFFFFDD
:10033000FFFFFFFFFFFFFFFFFFFFFFFFFFFFFFFFCD
:10034000FFFFFFFFFFFFFFFFFFFFFFFFFFFFFFFFBD
:10035000FFFFFFFFFFFFFFFFFFFFFFFFFFFFFFFFAD
:10036000FFFFFFFFFFFFFFFFFFFFFFFFFFFFFFFF9D
:10037000FFFFFFFFFFFFFFFFFFFFFFFFFFFFFFFF8D
:10038000FFFFFFFFFFFFFFFFFFFFFFFFFFFFFFFF7D
:10039000FFFFFFFFFFFFFFFFFFFFFFFFFFFFFFFF6D
:1003A000FFFFFFFFFFFFFFFFFFFFFFFFFFFFFFFF5D
:1003B000FFFFFFFFFFFFFFFFFFFFFFFFFFFFFFFF4D
:1003C000FFFFFFFFFFFFFFFFFFFFFFFFFFFFFFFF3D
:1003D000FFFFFFFFFFFFFFFFFFFFFFFFFFFFFFFF2D
:1003E000FFFFFFFFFFFFFFFFFFFFFFFFFFFFFFFF1D
:1003F000FFFFFFFFFFFFFFFFFFFFFFFFFFFFFFFF0D
:10040000FFFFFFFFFFFFFFFFFFFFFFFFFEFFFFFFFD
:1004100010B5064C2378002B07D1054B002B02D0DA
:10042000044800E000BF0123237010BD300200200B
:1004300000000000D427000008B5084B002B03D0B3
:100440000748084900E000BF07480368002B03D0B5
:10045000064B002B00D0984708BDC04600000000A6
:10046000D4270000340200203002002000000000E9
:100470007047704708B5FFF7FBFFFFF7FAFF00F082
:1004800001F8FAE710B5104C2378002B1BD101239B
:10049000237000F043FE002801D001F0C0F800F006
:1004A00057F9002801D000F088FF00F047FB002832
:1004B00001D001F006F800F037FD002801D001F06E
:1004C00084F80023237010BD4C020020164B8022BC
:1004D0001968D2000A431A60144A00231370144AA0
:1004E00014491370144A1370144A1370144A137089
:1004F000144A1160144AD12189001160134AC104C1
:10050000C90EC0B21170507093702C23D370104B71
:10051000FF22196891430A1C40210A431A600D4BBF
:10052000802252011A60704734800440D0020020BB
:100530004E02002013030000D8020020D102002048
:100540004D02002040A0044044A0044000A006400A
:100550000CE400E000E100E010B5164B132219682E
:100560000902090E9143032202400A43410701D5C3
:1005700010210A439A700F220E490240042A05D125
:100580004A6840241202120E22438A715A681021CE
:100590001204120E8A43084200D00A435A715A6864
:1005A00010211202120E8A43840600D50A439A7162
:1005B00010BDC04600A0064008B50E4B1B685A058A
:1005C00017D50D4B1B78DBB2002B02D0FFF75AFF7B
:1005D000F7E70A4A802149011160094A0949D370A5
:1005E0000422FF320A6008490A60084A1370084A68
:1005F000137008BD348004404D02002080E100E00B
:1006000000A0064040A0044044A00440D0020020C6
:100610004E02002038B5041C0B4B1D78EDB2002DA6
:10062000FAD1201C012101F0B3F8291C201C01F093
:100630008FF80C225443054B054AE1581C191160F0
:10064000044B227A1A7038BD4D02002008260000A3
:10065000D4020020CF020020F8B5204B071C1B68F5
:1006600059053AD51E4B1B68002B02D01D4A127843
:100670001A711D4E002334783F220134A2425B419F
:100680005B421C40194D2B78A3421BD101F004F8AA
:10069000402812DC164A53681906F3D52B7800213E
:1006A00001333F209842494149420B401149C95CFE
:1006B000DBB2C9B2D1712B70E4E7FF28E2DDFFF7AE
:1006C000E1FEDFE70B4BFFB21F550B4B01221A7007
:1006D000074BE4B2AC223470DA70F8BD34800440C9
:1006E000D4020020CF020020D8020020D102002036
:1006F00000A006404F0200204D02002038B5041C27
:100700004518AC4204D02078FFF7A6FF0134F8E783
:1007100038BDFFFF08B5044B1B78002B02D0FFF754
:10072000B1FEF8E708BDC0464D020020064B074A5F
:100730001B781078DBB2C0B2834201D33F3000E0B7
:100740000138C01A7047C046D8020020D1020020EC
:10075000054B1878054BC0B21B78DBB2984200D22B
:100760004030C01A7047C046D00200204E02002020
:100770000A4B0B4A19781378DBB299420BD001333C
:100780003F2000219842494149420B400549C85C3D
:10079000DBB2137001E0012040427047D00200201C
:1007A0004E0200208F0200200A4B1A780A4B1B7859
:1007B000DBB29A420AD0013300223F2199425241D2
:1007C00052421340054AD05CC0B201E001204042D1
:1007D0007047C046D00200204E0200208F02002049
:1007E000024B1A78024BD2B21A7070474E020020A8
:1007F000D002002030B5254A5368990612D5244905
:1008000054680B78002001333F259D42404140420F
:1008100003402048240E0078834203D01E48C4546D
:10082000DBB20B70136819481B0EDCB25BB2002BF5
:1008300019DA4368190616D5184B19491D780B7833
:10084000DBB29D4202D16C23C3700CE00133002067
:100850003F259D424041404203401248C05CDBB20C
:10086000C0B2D0710B7040231C420ED051681942A7
:100870000BD00D4B002119700C4B1B688B4202D022
:100880000B49097819722C23D37030BD00A00640A3
:10089000D00200204E0200208F020020D80200204B
:1008A000D10200204F0200204D020020D40200207F
:1008B000CF020020164B8022196812010A431A60E9
:1008C000144A00231370144A14491370144A137005
:1008D000144A1370144A1370144A1160144AD12137
:1008E00089001160134AC104C90EC0B21170507062
:1008F00093702C23D370104B104A19680A40802142
:10090000C9010A431A600E4B802292011A60704797
:100910003480044044030020DA0200201303000066
:100920004C03002045030020D90200200CB00440F5
:1009300010B0044000B006400CE400E0FF00FFFFF0
:1009400000E100E010B5164B132219680902090EE8
:100950009143032202400A43410701D510210A4373
:100960009A700F220E490240042A05D14A68402499
:100970001202120E22438A715A6810211204120EBA
:100980008A43084200D00A435A715A681021120261
:10099000120E8A43840600D50A439A7110BDC046E0
:1009A00000B0064008B50E4B1B681A0517D50D4B55
:1009B0001B78DBB2002B02D0FFF764FDF7E70A4A91
:1009C000802189011160094A0949D3700422FF324C
:1009D0000A6008490A60084A1370084A137008BD83
:1009E00034800440D902002080E100E000B00640DD
:1009F0000CB0044010B0044044030020DA02002090
:100A000038B5041C0B4B1D78EDB2002DFAD1201C1B
:100A1000012100F0BDFE291C201C00F099FE0C22D3
:100A20005443054B054AE1581C191160044B227AC6
:100A30001A7038BDD90200200826000048030020A3
:100A400043030020F8B5204B071C1B6819053AD555
:100A50001E4B1B68002B02D01D4A12781A711D4EC6
:100A60000023347827220134A2425B415B421C40C0
:100A7000194D2B78A3421BD100F00EFE402812DC4A
:100A8000164A53681906F3D52B7800210133272025
:100A90009842494149420B401149C95CDBB2C9B295
:100AA000D1712B70E4E7FF28E2DDFFF7EBFCDFE715
:100AB0000B4BFFB21F550B4B01221A70074BE4B2D0
:100AC000AC223470DA70F8BD348004404803002052
:100AD000430300204C0300204503002000B00640E3
:100AE000DB020020D902002038B5041C4518AC42B6
:100AF00004D02078FFF7A6FF0134F8E738BDFFFFE8
:100B000008B5044B1B78002B02D0FFF7BBFCF8E7BD
:100B100008BDC046D9020020064B074A1B78107852
:100B2000DBB2C0B2834201D3273000E00138C01AE3
:100B30007047C0464C03002045030020054B187841
:100B4000054BC0B21B78DBB2984200D24030C01ACD
:100B50007047C04644030020DA0200200A4B0B4ACB
:100B600019781378DBB299420BD001333F20002172
:100B70009842494149420B400549C85CDBB21370B9
:100B800001E001204042704744030020DA020020C7
:100B9000030300200A4B1A780A4B1B78DBB29A42F7
:100BA0000AD0013300223F21994252415242134060
:100BB000054AD05CC0B201E0012040427047C04607
:100BC00044030020DA02002003030020024B1A78BD
:100BD000024BD2B21A707047DA02002044030020A0
:100BE00030B5254A5368990612D5244954680B78C4
:100BF000002001333F259D424041404203402048B0
:100C0000240E0078834203D01E48C454DBB20B701C
:100C1000136819481B0EDCB25BB2002B19DA43686B
:100C2000190616D5184B19491D780B78DBB29D4271
:100C300002D16C23C3700CE00133002027259D42B4
:100C40004041404203401248C05CDBB2C0B2D071A8
:100C50000B7040231C420ED0516819420BD00D4B33
:100C6000002119700C4B1B688B4202D00B4909788C
:100C700019722C23D37030BD00B00640440300200D
:100C8000DA020020030300204C030020450300206B
:100C9000DB020020D902002048030020430300208B
:100CA000164B8022196852010A431A60144A002325
:100CB0001370144A14491370144A1370144A1370B1
:100CC000144A1370144A1160144AD121890011602A
:100CD000134AC104C90EC0B21170507093702C2316
:100CE000D370104B104A19680A408021C9030A4387
:100CF0001A600E4B8022D2011A6070473480044083
:100D0000B80300204E03002013030000C00300209E
:100D1000B90300204D03002008C004400CC004406B
:100D200000C006400CE400E0FFFF00FF00E100E02F
:100D300010B5164B132219680902090E91430322BC
:100D400002400A43410701D510210A439A700F223D
:100D50000E490240042A05D14A6840241202120EAC
:100D600022438A715A6810211204120E8A430842E3
:100D700000D00A435A715A6810211202120E8A4397
:100D8000840600D50A439A7110BDC04600C00640D3
:100D900008B50E4B1B68DA0417D50D4B1B78DBB278
:100DA000002B02D0FFF76EFBF7E70A4A8021C9014A
:100DB0001160094A0949D3700422FF320A600849C8
:100DC0000A60084A1370084A137008BD3480044052
:100DD0004D03002080E100E000C0064008C0044050
:100DE0000CC00440B80300204E03002038B5041C9A
:100DF0000B4B1D78EDB2002DFAD1201C012100F023
:100E0000C7FC291C201C00F0A3FC0C225443054BFA
:100E1000054AE1581C191160044B227A1A7038BD3A
:100E20004D03002008260000BC030020B70300206B
:100E3000F8B5204B071C1B68D9043AD51E4B1B681C
:100E4000002B02D01D4A12781A711D4E00233478EF
:100E500027220134A2425B415B421C40194D2B7892
:100E6000A3421BD100F018FC402812DC164A53683C
:100E70001906F3D52B7800210133272098424941E8
:100E800049420B401149C95CDBB2C9B2D1712B7028
:100E9000E4E7FF28E2DDFFF7F5FADFE70B4BFFB2EF
:100EA0001F550B4B01221A70074BE4B2AC22347071
:100EB000DA70F8BD34800440BC030020B703002082
:100EC000C0030020B903002000C006404F030020EB
:100ED0004D03002038B5041C4518AC4204D02078DE
:100EE000FFF7A6FF0134F8E738BDFFFF08B5044B54
:100EF0001B78002B02D0FFF7C5FAF8E708BDC04603
:100F00004D030020064B074A1B781078DBB2C0B2B5
:100F1000834201D3273000E00138C01A7047C04631
:100F2000C0030020B9030020054B1878054BC0B260
:100F30001B78DBB2984200D24030C01A7047C046DE
:100F4000B80300204E0300200A4B0B4A197813788F
:100F5000DBB299420BD001333F2000219842494136
:100F600049420B400549C85CDBB2137001E0012027
:100F700040427047B80300204E0300207703002052
:100F80000A4B1A780A4B1B78DBB29A420AD001331B
:100F900000223F219942524152421340054AD05CFF
:100FA000C0B201E0012040427047C046B8030020B3
:100FB0004E03002077030020024B1A78024BD2B276
:100FC0001A7070474E030020B803002030B5254A40
:100FD0005368990612D5244954680B7800200133D0
:100FE0003F259D424041404203402048240E007866
:100FF000834203D01E48C454DBB20B7013681948F7
:101000001B0EDCB25BB2002B19DA4368190616D549
:10101000184B19491D780B78DBB29D4202D16C2325
:10102000C3700CE00133002027259D42404140421F
:1010300003401248C05CDBB2C0B2D0710B704023D9
:101040001C420ED0516819420BD00D4B0021197073
:101050000C4B1B688B4202D00B49097819722C2368
:10106000D37030BD00C00640B80300204E030020FE
:1010700077030020C0030020B90300204F030020A5
:101080004D030020BC030020B703002038B5114CED
:101090002368002B0CD020684288531C8218157AD4
:1010A0000288934212D301F049F8002323600EE036
:1010B000094B1B78002B02D10120404208E003209D
:1010C00000F044FC20600028E5D1F5E74380281CAF
:1010D00038BDC046CC030020F704002010B50D4CED
:1010E0002368002B03D02368002B0ED103E00A4BAA
:1010F0001B78002B02D10120404209E0032000F0C0
:1011000025FC20600028EED1F5E75A889B18187A54
:1011100010BDC046CC030020F7040020054B988882
:10112000054B1B68002B03D01A885B88D31AC018A4
:101130007047C04604050020CC030020F7B5304DB1
:101140000123071C0C1C2B70002C56D02D4E306830
:10115000002827D12C4A01922C4B1B78DBB2002BA4
:1011600003D12B700120404249E0042000F008FC2C
:10117000072808D801232B7000F0C2FF214B18600C
:1011800000280FD128700198214B013801900028C8
:1011900002D01A78002A02D001221A70E2E7FFF783
:1011A00071F9D9E71A4B316800221A704B88402038
:1011B000C01A0094844200D90090181C009A08308C
:1011C0009B1808184B800190A41A002300988342B2
:1011D00004D0F85C019AD0540133F7E7FF184B882C
:1011E0003F2B06D940230B80042000F015FC002380
:1011F0003360084B05221A70A6E72C70201CFEBD38
:10120000C2030020C403002009750000F704002079
:10121000C8030020C103002007B56B46D87107330F
:10122000181C0121FFF78AFF0EBDFFFFF8B5124B16
:101230001B78002B1ED0114F114B3C6801261E70ED
:10124000104D002C09D0638800262E7004202380C6
:10125000211C00F0E1FB3E6009E000F051FF011E9F
:1012600004D004202C7000F0D7FB00E02E70044A5C
:1012700000231370F8BDC046F7040020C40300200B
:10128000C2030020C103002038B50E4B1D78EDB21B
:10129000002D15D10C4C2168002906D04B88042064
:1012A0000B8000F0B9FB25600AE000F029FF011E69
:1012B00003D0042000F0B0FB02E0044B01221A70BE
:1012C00038BDC046C2030020C4030020C103002073
:1012D00008B50368C9B21B68984708BD08B503681C
:1012E000C9B21B68984708BD08B50368C9B21B6836
:1012F000984708BD08B50368C9B21B68984708BD80
:1013000008B5044B4808C01800F0D6FFFFF7DEF818
:1013100008BDC046C0C62D0010B5064B4808C01811
:10132000141C00F0C9FFFFF7D1F8201CFFF714F9D7
:1013300010BDC046C0C62D0008B5FFF73DF908BD79
:1013400008B5081CFFF766F908BD08B5FFF700FAF5
:1013500008BD08B5FFF728FA08BD08B5FFF708FA79
:1013600008BD08B5FFF7D6F908BD08B5FFF738FA8C
:1013700008BD08B5FFF7DAF908BD08B5081CFFF786
:101380006BF9012008BD08B5081CFFF765F90120BD
:1013900008BD10B5081C141C111CFFF7AFF9201C68
:1013A00010BD38B5081C0D1C00F0A2F9041C211C4E
:1013B000281CFFF7A3F9201C38BD7047044B0022FE
:1013C0001A711A73FA21034A890099601A607047EA
:1013D000D40300200025000008B50368C9B21B68CB
:1013E000984708BD08B50368C9B21B68984708BD8F
:1013F00008B50368C9B21B68984708BD08B50368FB
:10140000C9B21B68984708BD08B5044B4808C01806
:1014100000F052FFFFF74EFA08BDC04660E3160029
:1014200010B5064B4808C018141C00F045FFFFF724
:1014300041FA201CFFF786FA10BDC046C0C62D0039
:1014400008B5FFF7AFFA08BD08B5081CFFF7D8FAD2
:1014500008BD08B5FFF772FB08BD08B5FFF79AFB9A
:1014600008BD08B5FFF77AFB08BD08B5FFF748FBD4
:1014700008BD08B5FFF7AAFB08BD08B5FFF74CFB90
:1014800008BD08B5081CFFF7DDFA012008BD08B546
:10149000081CFFF7D7FA012008BD10B5081C141C62
:1014A000111CFFF721FB201C10BD38B5081C0D1CBA
:1014B00000F01EF9041C211C281CFFF715FB201C42
:1014C00038BD7047044B00221A711A73FA21034A7F
:1014D000890099601A607047E403002050250000DD
:1014E00008B50368C9B21B68984708BD08B503680A
:1014F000C9B21B68984708BD08B50368C9B21B6824
:10150000984708BD08B50368C9B21B68984708BD6D
:1015100008B5044B4808C01800F0CEFEFFF7C0FB2A
:1015200008BDC04660E3160010B5064B4808C01859
:10153000141C00F0C1FEFFF7B3FB201CFFF7F8FB03
:1015400010BDC04660E3160008B5FFF721FC08BDDA
:1015500008B5081CFFF74AFC08BD08B5FFF7E4FC16
:1015600008BD08B5FFF70CFD08BD08B5FFF7ECFC9A
:1015700008BD08B5FFF7BAFC08BD08B5FFF71CFDAC
:1015800008BD08B5FFF7BEFC08BD08B5081CFFF78D
:101590004FFC012008BD08B5081CFFF749FC0120DD
:1015A00008BD10B5081C141C111CFFF793FC201C6F
:1015B00010BD38B5081C0D1C00F09AF8041C211C45
:1015C000281CFFF787FC201C38BD7047044B002205
:1015D0001A711A73FA21034A890099601A607047D8
:1015E000F4030020A025000008B5FFF797FD08BD13
:1015F00008B5FFF74BFD08BD08B5FFF76FFD08BD47
:1016000008B5FFF713FE08BD08B5081CFFF704FE78
:1016100008BD08B5081C111CFFF790FD08BD7047F8
:10162000044B00221A711A73FA21034A8900996047
:101630001A60704704040020F0250000024B1A686D
:1016400001321A607047C0461404002010B50B4CDC
:1016500023685A0301D500F01DFA23685A0501D505
:10166000FFF7C8F823681A0501D5FFF7B9FA236810
:10167000DA04ECD5FFF7AAFCE9E7C0463480044061
:1016800008B5FFF7E3FFFFFF014B00221A60704728
:10169000008104407047FFFFEFF31383002B21D13B
:1016A000EFF31083002083421ED1EFF30583002B5C
:1016B0000ED00F2B0ED91A1C103A92080B4903209A
:1016C00092000340521883401068D840C0B201E035
:1016D00080204000EFF31182002A05D0824203D21D
:1016E000101C01E0012040427047C04600E400E0C9
:1016F000021C031C981A0133591E09780029F9D1DC
:101700007047F8B5061C0D1C171C0024301C391C32
:1017100000F016FE092901D8303100E03731C9B296
:101720002955301C391C00F0C7FD061E01D00134BC
:10173000ECE72B1958702B1C5A1BA24206DA1A78B8
:10174000295D19702A550133013CF5E7281CF8BDC5
:1017500010B51A2818D80C2358430C4A835810186F
:101760001C7D027A224205D0002901D01A710BE0BB
:101770001A7209E043681A68002902D003210A435B
:1017800001E002218A431A6010BDC046082600000D
:1017900010B51A2818D80C2358430C4A141863683B
:1017A0008258247A012904D1117D0C431475A22298
:1017B00005E0107DA0431075002902D1802252005F
:1017C00001E00422FF321A6010BDC0460826000066
:1017D00010B572B60B4B0C491A680C4B1B680968A4
:1017E00062B6480104D532219142894149425B18D1
:1017F0000748FA24801A3021A4005C4300F05CFD05
:10180000201810BD18E000E004ED00E014040020F2
:101810007FBB000038B5041CFFF7DAFF051C002C65
:101820000ED0FFF7D5FF074B401B984205D9013C6E
:10183000002C05D0FA239B00ED18FEF723FEF0E7FD
:1018400038BDC046E70300001C4B8022D20510B50E
:101850001A60802212061A60194B0020186019497C
:10186000194B1A4A196028231360194A194C13603E
:10187000194A1360194A1360194A1360194A136010
:1018800009222260184C2060184C2160184C2360FB
:10189000184C2360184C2260184C206018480160D6
:1018A00018490B6018490B60184B1A6000F06EFC69
:1018B0000420FFF7AFFF00F0CDFB10BD00E100E01A
:1018C00004800340FFBF0000088003400C800340F9
:1018D00014800340008003401C80034024800340A8
:1018E0002C80034034800340049003400890034060
:1018F0000C900340149003400090034004A0034068
:1019000008A003400CA0034014A0034000A0034023
:10191000F0B50B4F02223B780A4E1A43D2000A4D13
:10192000B418606028788824002800D0C8240904EE
:101930000C43B45001225040534028703B70F0BD1E
:101940008004002000F8FF1FF8040020431E10B59B
:10195000032B0FD872B6084A99008858002807D080
:1019600044685B008C50054A01889C5A611A995260
:1019700062B600E0002010BD7004002004050020C5
:10198000431E0020032B09D872B6054A9B009B58C2
:10199000002B02D001305B68FAE762B67047C046A0
:1019A000C404002038B572B60123164A9A18013AC9
:1019B000127811071CD5144A5C01A5589900002D16
:1019C00005D1131908305860104BA3500AE00124C8
:1019D0002143C9008C58002C0AD153180830586094
:1019E0000B4B8B500B4B1A78013A1A7062B608E019
:1019F0000133052BD9D162B6064B00221A7000F0D4
:101A00009DFB38BD4C27000000F8FF1F88004000F8
:101A1000C8004000EE040020421E10B5032A30D852
:101A2000022380001843174BC0001B1872B6164CD7
:101A3000A05C032809D800F02BFC1402160508331B
:101A4000022011E0083304200EE0104892001458E0
:101A50000F4B002C01D1115001E098584160995072
:101A60000EE0032000E00520A0540A1C08325A6052
:101A70008822180700D5C822098809040A431A6079
:101A800062B610BD00F8FF1F2C040020C404002023
:101A9000D4040020F7B5B3490C780E1CE4B26207F9
:101AA0001DD5B14B1B78002B16D0B04A1378DBB292
:101AB000002B05D0013BDBB21370002B00D100BE20
:101AC000AB4A1378DBB2002B06D0013BDBB21370BC
:101AD000002B01D1FFF7D8FBA24D04232B70082562
:101AE000221C2A4000D14BE2A24BA34C1B78DBB254
:101AF0001E099A08002E00D0D4E1D50065192F6880
:101B00006A68B806000F01380C2800D9C7E100F058
:101B1000C9FB8A018A01C601C601C601C601C60108
:101B2000C601A301C601C601C6010D009349136891
:101B3000934F526893482960934D944900263B6027
:101B40007A609BB201222E602661A66102708B42F0
:101B500018D8D021C9008B4200D3E5E08121914003
:101B60008B4200D1C2E006D8802B00D1A9E0822BA5
:101B700000D1ABE0F1E0864A934200D1C5E0A0225B
:101B8000D20017E083498B4200D149E10DD888216A
:101B900009018B4200D18EE090221201934200D0C5
:101BA000DBE0BA78704B1A7009E07B4A934200D1AF
:101BB000CFE07A4A0026934200D10DE1CDE0A3198F
:101BC000196A090603D5586A083800F0B7FA0836CA
:101BD000802EF4D100252E1C714AA858002805D06B
:101BE0004368019300F0AAFA0198F7E76C496D4B3E
:101BF0006D4A4851E850A858002805D04368019321
:101C000000F09CFA0198F7E7684B694AE8507300C6
:101C1000D0526549674B4851F05C0238032807D819
:101C200000F036FB02040204002200E001229A5573
:101C300001360435042ECFD15F4A002313700125ED
:101C4000161C5E4BEA185E4B9200EB18013B1B78AA
:101C50001370190720D500F053FA6B01002805D046
:101C6000E21808305060574AE25003E0E050337801
:101C70000133337000F044FA0122AB001343DB0060
:101C8000002805D0E218083050603C4AE25003E0DA
:101C9000E050337801333370AB0002221A43D20094
:101CA0000021A1500322134393400135E150052D3B
:101CB000C7D10E1C90E02C4B434C1B78161C237094
:101CC0008BE0414C26706670022686E0BB88042BB0
:101CD00043D83D4C3D4D9B00267066705B191B78C8
:101CE0000226334200D178E0227076E0BB887F2262
:101CF0001A40042A31DC7E88002E2ED133499B0005
:101D00005B181A7802218A4325E0BB887F221A409B
:101D1000042A22DC7E88002E1FD12C4A9B009B18AF
:101D20001A7802210A4316E07A88B988284B5C6841
:101D3000002C12D01888904209D15888884206D1C8
:101D4000120A032A01D1267847E01E8945E00C33A8
:101D5000EDE7BA781F4B1A703EE01C4B0F221A7049
:101D60005EE0C04680200740F70400208104002088
:101D7000C10300209020074000F8FF1FC80040006A
:101D8000E4040020F804002018040020810600006C
:101D90000203000021200000212200002123000076
:101DA000700400201C040020C4040020D40400207F
:101DB000040500202C040020EE04002030C801108F
:101DC0004C27000088004000EF040020C02007409E
:101DD00050270000D0030020341CFB889E4200D90D
:101DE0001E1C371E402F00D94027201C391CF61B13
:101DF000FFF78EFDE419351E02D1402F03D00FE00E
:101E0000402E00D94025201C291CFFF781FD6419B4
:101E1000761B01D1402D03D1754D764B2C601E8071
:101E20000122754B3AE0754B1988754B994210D1D8
:101E30000023D05C7349C8540133072BF9D10B68D8
:101E4000862B02D1704B0F221A700020011CFFF765
:101E50005FFD6E4B2B6022E0654F3D68002D13D077
:101E600064490E88341E402C00D94024281C211CB3
:101E7000FFF74EFD361B5F4AB6B21680002E01D129
:101E8000402C00D12E193E605C4BA0221988D20054
:101E9000914204D100225A709A785D4B1A70012247
:101EA000554B61E0D200A4186068013E0838F6B2D4
:101EB0002B4036D000F042F95649B0004258564BFC
:101EC000002A1BD055684550111C985D083161608F
:101ED00003280BD800F0DCF902040608032104E013
:101EE000022102E0052100E00421995588232707FB
:101EF00000D5C8231288120413433CE0985D0328E0
:101F000008D800F0C5F939390204002200E00122A6
:101F10009A5531E02C40624262410324A41A9C5538
:101F20002AE062880280002A20D03C4D4380436032
:101F3000B3005F593A49002F01D1585101E0CD5803
:101F40006860C850374B7600F15A5218F25200F0D0
:101F5000D7F8002804D00830606021070AD507E0D0
:101F6000314B20601A7801321A7005E02C4201D002
:101F7000264B00E02D4B23602D4A082313708AE581
:101F8000012004421ED01C4902230B70294B274C10
:101F90001A70294B294D1C609C60294C1A61DC6029
:101FA0009A615D60274B0D241C70274CFF23237022
:101FB000174C33702270254A1370254B9F221A70DC
:101FC000087013E063B2002B04DA1E4B0D221A7066
:101FD0008023337002231C4204D01B4A1178C9B2FB
:101FE0001170337010231C4200D03370F7BDC0460F
:101FF00018040020EC04002094200740E404002092
:1020000021200000FC04002081040020C8004000C2
:1020100098200740C40400202C04002070040020F5
:102020001C04002004050020EE040020880040006D
:10203000802007408004002000F8FF1F30040020AB
:1020400084040020C0200740882007408C200740DF
:102050008420074010B500F0E1F800221A4B00215F
:10206000D150981808324160882AF7D1174A802049
:102070001468C00220431060180A154AC0B21070DC
:10208000180C144AC0B21070134A1B0E1370134A76
:10209000FF231370124A13481370134A137001225E
:1020A00002701248017012490A70124A116899436D
:1020B0000B1C70210B4313600F4B802252041A60DB
:1020C0000E4B10221A7010BD00F8FF1F3480044020
:1020D0009C200740B0200740B420074080200740E4
:1020E0008820074094200740102007400021074027
:1020F0008420074018E400E000E100E008210740E8
:1021000038B572B60B4C2568281C00F025F90B2851
:1021100002D962B600200CE080231B06C3409D4319
:10212000256062B648235843034B18180023036008
:10213000436038BD60FDFF1F00FAFF1F10B5041C8F
:102140000E484821201A00F0B7F80B2815D80C4B80
:102150001B78002B07D00B4B1B78002B03D0201CC7
:10216000FFF720FC09E072B68022074B1206C2403E
:10217000101C1A681043186062B610BD00FAFF1FE9
:10218000EE040020F704002060FDFF1F1B4B1C4ADB
:1021900019781C4B082901D1002102E00A2903D13A
:1021A00038211160132206E00C2901D1342100E00E
:1021B0003C21116012221A60134B1A78134B002A2B
:1021C00001D0002200E001221A60114B1A78114B55
:1021D000012A01D880220CE0042A01D8842208E0D8
:1021E000082A01D8852204E0102A01D8862200E0BE
:1021F00087221A60084B01221A70704764FDFF1F86
:1022000008B003400CB00340FA04002020B00340A3
:1022100065FDFF1F24B00340F90400201FB572B60E
:10222000154B70221A70154A41211170144A0F2162
:10223000117080221A701A7852B2002AFBDA114B00
:10224000186862B6104B984201D80A23584301AC73
:10225000211C0A22FFF755FA0023E15C0B4A0029F2
:1022600005D058001018013341800A2BF5D10133F5
:102270005B0013701FBDC046000002400700024013
:1022800006000240080002407F969800EEFDFF1F06
:1022900002B4714649084900095C49008E4402BCF9
:1022A0007047C04603B47146490840004900095AC6
:1022B00049008E4403BC7047002934D0012300221A
:1022C00010B488422CD301242407A14204D28142B5
:1022D00002D209011B01F8E7E400A14204D28142C5
:1022E00002D249005B00F8E7884201D3401A1A4342
:1022F0004C08A04202D3001B5C0822438C08A04279
:1023000002D3001B9C082243CC08A04202D3001B2E
:10231000DC082243002803D01B0901D00909E3E7A8
:10232000101C10BC7047002801D00020C04307B427
:10233000024802A14018029003BDC04619000000E7
:102340000029F0D003B5FFF7B9FF0EBC4243891A4C
:102350001847C0467047C0461C2101231B04984201
:1023600001D3000C10391B0A984201D3000A083926
:102370001B09984201D30009043902A2105C4018DD
:102380007047C04604030202010101010000000081
:102390000000000070B50D4E0D4D0024AD1BAD10BA
:1023A00005D0A300F35801349847A542F9D100F0B5
:1023B000FDF9084E084D0024AD1BAD1005D0A3005B
:1023C000F35801349847A542F9D170BDB8270000F1
:1023D000B8270000B8270000D027000008B5034B3D
:1023E000002B02D0024800F005F808BD00000000F4
:1023F0000524000008B5011C00220020002300F085
:1024000019F808BD38B5094B094DED1AAD1009D0C2
:10241000013DAC00E41800E0013D23689847043C0E
:10242000002DF9D100F0D4F938BDC04600000000FD
:1024300000000000F0B54F464646C0B498462B4B0E
:10244000A4251B686D005C5983B0061C0F1C9146C7
:102450000193002C44D065681F2D1ADD244B002BFE
:1024600002D1012040421CE0C820400000E000BF33
:10247000041EF6D000254560A42301985B00C058D7
:1024800001992060CC50C4235B00E550C6235B005B
:10249000E550002E0AD16B1C0235AD0063600020B0
:1024A0002F5103B00CBC90469946F0BDAB00E31829
:1024B000882248469850C420400022181068012104
:1024C000A940084310608422520040469850022ED2
:1024D000E1D1C6225200A318186801431960DAE757
:1024E0001C1C4D34FF345C51B5E7C046A8270000E2
:1024F00000000000FFFFFFFF0000000000000000E0
:102500007B130000931300004B1300005B130000CB
:10251000531300006313000001130000191300009F
:1025200039130000411300006B1300007313000007
:10253000D1120000DD120000E9120000F5120000C7
:10254000A31300008713000000000000000000003B
:10255000831400009B140000531400006314000057
:102560005B1400006B14000009140000211400002B
:102570004114000049140000731400007B14000093
:10258000D9130000E5130000F1130000FD13000053
:10259000AB1400008F1400000000000000000000D9
:1025A0008B150000A31500005B1500006B150000E3
:1025B00063150000731500001115000029150000B7
:1025C00049150000511500007B150000831500001F
:1025D000E1140000ED140000F914000005150000DE
:1025E000B315000097150000000000000000000077
:1025F0000916000013160000E9150000F11500008F
:10260000F915000001160000420000F840A0044047
:1026100001000000420000F844A004400200000055
:10262000C00000F800C0044001000000000000F8F5
:102630000490044002000000000000F808900440EC
:1026400004000000C00000F81CC00440800000002E
:10265000C00000F810C0044010000000C00000F8E6
:1026600008C0044004000000C00000F80CC0044092
:1026700008000000800000F80CB0044008000000D2
:10268000800000F810B0044010000000800000F846
:1026900018B0044040000000800000F81CB0044066
:1026A00080000000800000F814B00440200000000A
:1026B000C00000F804C0044002000000800000F8E0
:1026C00000B0044001000000400000F800A00440F9
:1026D00001000000400000F804A0044002000000D7
:1026E000400000F80CA0044008000000400000F882
:1026F00008A0044004000000C00000F814C004401A
:1027000020000000C00000F818C004404000000095
:10271000800000F804B0044002000000800000F8CF
:1027200008B0044004000000020100F850D004404A
:1027300010000000020100F854D004402000000006
:10274000030100F878D0044040000000001519157E
:102750000001000066FDFF1F1200000000020000E3
:1027600090FDFF1F4300000000030000EAFDFF1F73
:10277000000000000103090478FDFF1F00000000B5
:1027800002030904D4FDFF1F000000000303090435
:10279000EEFDFF1F00000000000000000000000030
:1027A000000000004300000008FEFF1FF8B5C0460F
:1027B000F8BC08BC9E467047DD23000039040000C9
:1027C000BD130000C5140000CD1500002116000047
:0427D000F8B5C04652
:1027D400FFFFFFFF0A041201000202000040C016BE
:1027E400830400010102030118035400650065001D
:1027F4006E00730079006400750069006E006F005C
:1028040009024300020100C032090400000102026F
:10281400010005240010010524010101042402061D
:102824000524060001070582031000400904010085
:10283400020A0000000705030240000007058402A5
:1028440040000000160355005300420020005300CE
:1028540065007200690061006C00040309040C0344
:102864000000000000000000000000000000000064
:10287400000000000000000000000000F400002040
:102884005C010020C40100200000000000000000E2
:102894000000000000000000000000000000000034
:1028A400000000000000000000000000A427000059
:1028B4000000000000000000000000000000000014
:1028C4000000000000000000000000000000000004
:1028D40000000000000000000000000000000000F4
:1028E40000000000000000000000000000000000E4
:1028F40000000000000000000000000000000000D4
:1029040000000000000000000000000000000000C3
:1029140000000000000000000000000000000000B3
:1029240001000000000000000E33CDAB34126DE650
:10293400ECDE05000B0000000000000000000000B9
:102944000000000000000000000000000000000083
:102954000000000000000000000000000000000073
:102964000000000000000000000000000000000063
:102974000000000000000000000000000000000053
:00000001FF
